:020000040800F2
:100000007806002049090008A9090008A909000884
:10001000A9090008A9090008A909000800000000B2
:10002000000000000000000000000000A909000816
:10003000A909000800000000A9090008A50100089E
:10004000A9090008A9090008A9090008A9090008C8
:10005000A9090008A9090008A9090008A9090008B8
:10006000A9090008A9090008A9090008A9090008A8
:10007000A9090008A9090008A9090008A909000898
:10008000A9090008A9090008A9090008A909000888
:10009000A9090008A9090008A9090008A909000878
:1000A000A9090008A9090008A9090008A909000868
:1000B000A9090008A9090008A9090008A909000858
:1000C000A9090008A9090008A9090008A909000848
:1000D000A9090008A9090008A9090008A909000838
:1000E000A9090008A9090008A909000800000000E2
:1000F0000000000000000000000000000000000000
:1001000000000000000000005FF808F180B483B038
:1001100000AF03463960FB7197F90730002B0BDA0B
:100120000D49FB7903F00F03043B3A68D2B2120188
:10013000D2B20B441A7609E0084997F907303A68B9
:10014000D2B21201D2B20B4483F8002300BF0C37A5
:10015000BD4680BC704700BF00ED00E000E100E05C
:1001600080B582B000AF78607B68B3F1807F01D347
:10017000012311E00A4A7B6823F07F43013B53606F
:100180000F214FF0FF30FFF7C1FF054B00229A60AF
:10019000034B07221A60002318460837BD4680BD6E
:1001A00010E000E080B400AF044B1B680133034A49
:1001B000136000BFBD4680BC704700BF4C020020EA
:1001C00080B582B000AF7860124801F051F9114B50
:1001D0005B68114AA2FB03239B091846FFF7C0FF87
:1001E0000E4B00229A600E4B00221A6000BF0C4B8F
:1001F0001A687B689A42FAD3064B5B68094AA2FBED
:1002000003239B0C1846FFF7ABFF00BF0837BD4622
:1002100080BD00BF38020020D34D621010E000E026
:100220004C02002083DE1B4380B582B000AF7860B3
:100230007B689F2B03D91221094800F0D3FE094B9C
:1002400000229A60084B00221A6000BF064B1A6811
:100250007B689A42FAD300BF0837BD4680BD00BF15
:10026000F81E000810E000E04C02002080B582B0CB
:1002700000AF7860144801F0FBF8134B5B68134A39
:10028000A2FB03239B091846FFF76AFF104B0022CD
:100290009A60104B00221A6000BF7B684FF47A729C
:1002A00002FB03F20B4B1B689A42F6D8064B5B68C5
:1002B000094AA2FB03239B0C1846FFF751FF00BF1E
:1002C0000837BD4680BD00BF38020020D34D621004
:1002D00010E000E04C02002083DE1B4380B483B0BA
:1002E00000AF78607B681B78002B06D07B680233F8
:1002F0007A680232043212781A707B681B78012BFC
:1003000006D97B6807337A680732043212781A708C
:100310007B681B78022B06D97B680C337A680C3219
:10032000043212781A707B681B78032B06D97B681D
:1003300011337A681132043212781A707B681B7894
:10034000042B06D97B6816337A6816320432127889
:100350001A7000BF0C37BD4680BC704780B485B0B2
:1003600000AFF8600B467A60FB72FB7A002B0AD173
:100370007B685BB2DB015BB2DB1159B2FA6893793F
:1003800061F3C7139371FB7A012B0AD17B685BB2CF
:10039000DB015BB2DB1159B2FA68937961F3861322
:1003A0009371FB7A022B0AD17B685BB2DB015BB2F3
:1003B000DB1159B2FA68937961F345139371FB7AB3
:1003C000032B0AD17B685BB2DB015BB2DB1159B254
:1003D000FA68937961F304139371FB7A042B0AD1C1
:1003E0007B685BB2DB015BB2DB1159B2FA689379CF
:1003F00061F3C3039371FB7A052B0AD17B685BB26F
:10040000DB015BB2DB1159B2FA68937961F38203C5
:100410009371FB7A062B0AD17B685BB2DB015BB27E
:10042000DB1159B2FA68937961F341039371FB7A56
:10043000072B0AD17B685BB2DB015BB2DB1159B2DF
:10044000FA68937961F300039371FB7A082B0AD160
:100450007B685BB2DB015BB2DB1159B2FA68D37A1D
:1004600061F3C713D372FB7A092B0AD17B685BB2A5
:10047000DB015BB2DB1159B2FA68D37A61F3861300
:10048000D372FB7A0A2B0AD17B685BB2DB015BB2C9
:10049000DB1159B2FA68D37A61F34513D372FB7A50
:1004A0000B2B0AD17B685BB2DB015BB2DB1159B26B
:1004B000FA68D37A61F30413D372FB7A0C2B0AD156
:1004C0007B685BB2DB015BB2DB1159B2FA68D37AAD
:1004D00061F3C303D372FB7A0D2B0AD17B685BB245
:1004E000DB015BB2DB1159B2FA68D37A61F38203A4
:1004F000D372FB7A0E2B0AD17B685BB2DB015BB255
:10050000DB1159B2FA68D37A61F34103D372FB7AF3
:100510000F2B0AD17B685BB2DB015BB2DB1159B2F6
:10052000FA68137C61F3C7131374FB7A102B0AD19A
:100530007B685BB2DB015BB2DB1159B2FA68137CFA
:1005400061F386131374FB7A112B0AD17B685BB2BB
:10055000DB015BB2DB1159B2FA68137C61F345131E
:100560001374FB7A122B0AD17B685BB2DB015BB29E
:10057000DB1159B2FA68137C61F304131374FB7A2C
:10058000132B0AD17B685BB2DB015BB2DB1159B282
:10059000FA68137C61F3C3031374FB7A142B0AD13A
:1005A0007B685BB2DB015BB2DB1159B2FA68137C8A
:1005B00061F382031374FB7A152B0AD17B685BB25B
:1005C000DB015BB2DB1159B2FA68137C61F34103C2
:1005D0001374FB7A162B0AD17B685BB2DB015BB22A
:1005E000DB1159B2FA68137C61F300031374FB7AD0
:1005F000172B0AD17B685BB2DB015BB2DB1159B20E
:10060000FA68937E61F300039376FB7A182B0AD184
:100610007B685BB2DB015BB2DB1159B2FA68537DD8
:1006200061F386135375FB7A192B0AD17B685BB291
:10063000DB015BB2DB1159B2FA68537D61F34513FC
:100640005375FB7A1A2B0AD17B685BB2DB015BB274
:10065000DB1159B2FA68537D61F304135375FB7AC9
:100660001B2B0AD17B685BB2DB015BB2DB1159B299
:10067000FA68537D61F3C3035375FB7A1C2B0AD1CF
:100680007B685BB2DB015BB2DB1159B2FA68537D68
:1006900061F382035375FB7A1D2B0AD17B685BB231
:1006A000DB015BB2DB1159B2FA68537D61F34103A0
:1006B0005375FB7A1E2B0AD17B685BB2DB015BB200
:1006C000DB1159B2FA68537D61F300035375FB7A6D
:1006D0001F2B0AD17B685BB2DB015BB2DB1159B225
:1006E000FA68937E61F300039376FB7A202B0AD19C
:1006F0007B685BB2DB015BB2DB1159B2FA68537DF8
:1007000061F386135375FB7A212B0AD17B685BB2A8
:10071000DB015BB2DB1159B2FA68537D61F345131B
:100720005375FB7A222B0AD17B685BB2DB015BB28B
:10073000DB1159B2FA68537D61F304135375FB7AE8
:10074000232B0AD17B685BB2DB015BB2DB1159B2B0
:10075000FA68537D61F3C3035375FB7A242B0AD1E6
:100760007B685BB2DB015BB2DB1159B2FA68537D87
:1007700061F382035375FB7A252B0AD17B685BB248
:10078000DB015BB2DB1159B2FA68537D61F34103BF
:100790005375FB7A262B0AD17B685BB2DB015BB217
:1007A000DB1159B2FA68537D61F300035375FB7A8C
:1007B000272B0AD17B685BB2DB015BB2DB1159B23C
:1007C000FA68137C61F3C713137400BF1437BD4676
:1007D00080BC704780B500AF154A154B1B6843F0CD
:1007E000010313601249124B5A68124B13404B60BD
:1007F0000F4A0F4B1B6823F0847323F4803313607C
:100800000B4A0B4B1B6823F480231360084A084BE8
:100810005B6823F4FE035360054B4FF41F029A609C
:1008200000F00CF8044B4FF000629A6000BF80BDEE
:10083000001002400000FFF800ED00E080B500AFBE
:1008400000F002F800BF80BD80B483B000AF002389
:100850007B6000233B603A4A394B1B6843F480338A
:100860001360374B1B6803F400333B607B68013334
:100870007B603B68002B03D17B68B3F5A06FF0D1A0
:100880002F4B1B6803F40033002B02D001233B6085
:1008900001E000233B603B68012B4BD1294A294BE7
:1008A0001B6843F010031360264A264B1B6823F095
:1008B00003031360234A234B1B6843F002031360B6
:1008C0001F4A1F4B5B6853601D4A1D4B5B6853609A
:1008D0001B4A1B4B5B6843F480635360184A184BF8
:1008E0005B6823F47C135360154A154B5B6843F433
:1008F000E8135360124A124B1B6843F08073136075
:1009000000BF0F4B1B6803F00073002BF9D00C4A9B
:100910000B4B5B6823F003035360094A084B5B6889
:1009200043F00203536000BF054B5B6803F00C0308
:10093000082BF9D100BF0C37BD4680BC704700BF03
:10094000001002400020024080B582B000AF114B81
:100950007B60114B3B6007E03B681A1D3A607A6888
:10096000111D796012681A603B680C4A9342F3D3F8
:100970000B480C494FF000028842B8BF40F8042BE6
:10098000FADBFFF727FF00F017FA00BF0837BD4674
:1009900080BD00BFE02800080000002014000020F7
:1009A000140000207402002080B400AFFEE700BFF6
:1009B00080B588B000AF786039600023FB61002308
:1009C0003B610023BB610023FB6000237B610023AC
:1009D000BB607B68824A93421BD07B68814A93420A
:1009E00017D07B68804A934213D07B687F4A93423A
:1009F0000FD07B687E4A93420BD07B687D4A93423E
:100A000007D07B687C4A934203D0B2217B4800F038
:100A1000E9FA3B68DB78002B1FD03B68DB78042BBE
:100A20001BD03B68DB78282B17D03B68DB78482B42
:100A300013D03B68DB78142B0FD03B68DB78102B8E
:100A40000BD03B68DB781C2B07D03B68DB78182B7E
:100A500003D0B321694800F0C5FA3B681B88002B1E
:100A600003D1B421654800F0BDFA3B68DB7803F0A0
:100A70000F03FB613B68DB7803F01003002B15D0FC
:100A80003B689B78012B0BD03B689B78022B07D0EF
:100A90003B689B78032B03D0BB21584800F0A2FA97
:100AA0003B689B781A46FB691343FB613B681B88D4
:100AB000DBB2002B44D07B681B687B610023BB61E9
:100AC00038E00122BB6902FA03F3FB603B681B8834
:100AD0001A46FB6813403B613A69FB689A4226D18B
:100AE000BB699B00FB600F22FB6802FA03F3BB604B
:100AF000BB68DB437A6913407B61FA69FB6802FAE1
:100B000003F37A6913437B613B68DB78282B05D1BB
:100B10000122BB699A407B685A6108E03B68DB7838
:100B2000482B04D10122BB699A407B681A61BB69DA
:100B30000133BB61BB69072BC3D97B687A691A6033
:100B40003B681B88FF2B46D97B685B687B61002371
:100B5000BB613AE0BB690833012202FA03F3FB6090
:100B60003B681B881A46FB6813403B613A69FB6887
:100B70009A4227D1BB699B00FB600F22FB6802FAF7
:100B800003F3BB60BB68DB437A6913407B61FA699E
:100B9000FB6802FA03F37A6913437B613B68DB78F5
:100BA000282B05D1BB69083301229A407B685A6122
:100BB0003B68DB78482B05D1BB69083301229A409A
:100BC0007B681A61BB690133BB61BB69072BC1D963
:100BD0007B687A695A6000BF2037BD4680BD00BF80
:100BE00000080140000C01400010014000140140C9
:100BF00000180140001C0140002001407421000841
:100C000080B582B000AF78600B467B8013467B7066
:100C10007B683B4A93421CD07B683A4A934218D087
:100C20007B68394A934214D07B68384A934210D08B
:100C30007B68374A93420CD07B68364A934208D08F
:100C40007B68354A934204D040F28D11334800F05E
:100C5000C9F97B88012B39D07B88022B36D07B8861
:100C6000042B33D07B88082B30D07B88102B2DD0E1
:100C70007B88202B2AD07B88402B27D07B88802B19
:100C800024D07B88B3F5807F20D07B88B3F5007FAC
:100C90001CD07B88B3F5806F18D07B88B3F5006FCC
:100CA00014D07B88B3F5805F10D07B88B3F5005FEC
:100CB0000CD07B88B3F5804F08D07B88B3F5004F0C
:100CC00004D04FF4C771154800F08CF97B78002BE5
:100CD00007D07B78012B04D040F28F110F4800F031
:100CE00081F97B78002B03D07A887B681A6102E057
:100CF0007A887B685A6100BF0837BD4680BD00BF57
:100D000000080140000C01400010014000140140A7
:100D100000180140001C014000200140742100081F
:100D200080B483B000AF03463960FB7197F9073098
:100D3000002B0BDA0D49FB7903F00F03043B3A68F3
:100D4000D2B21201D2B20B441A7609E0084997F9DF
:100D500007303A68D2B21201D2B20B4483F80023B2
:100D600000BF0C37BD4680BC704700BF00ED00E0FF
:100D700000E100E080B582B000AF78607B68B3F13D
:100D8000807F01D3012311E00A4A7B6823F07F436F
:100D9000013B53600F214FF0FF30FFF7C1FF054BC0
:100DA00000229A60034B07221A6000231846083776
:100DB000BD4680BD10E000E080B500AF00F09AF8BD
:100DC00000F05AF800F0A0FD00220021254800F0B4
:100DD00013FE254B5B6801220021184600F082FEBD
:100DE00001223221214800F007FE0120FFF73EFAE0
:100DF0001F4B05221A701E4B08225A7000F0DCF8B7
:100E000000F018FE002200211A4800F0F5FD184BF2
:100E1000D3F8023001220021184600F063FE144B83
:100E2000D3F8073002220021184600F05BFE104B79
:100E3000DB6803220021184600F054FE0C4BD3F867
:100E4000113004220021184600F04CFE084BD3F864
:100E5000113005220021184600F044FE0120FFF762
:100E600005FACBE7F8230008380200200824000820
:100E7000540200200C24000880B582B000AF4FF46B
:100E80000041194800F004FF4FF6FF73BB801023A8
:100E9000FB710123BB713B1D19461448FFF788FD08
:100EA0000121124800F04AFC0221104800F05AFCCF
:100EB00004210E4800F06AFC08210C4800F07AFC7E
:100EC00010210A4800F08AFC1023FB7020233B808D
:100ED0000323BB703B4619460548FFF769FD00BF79
:100EE0000837BD4680BD00BF00100140000801402A
:100EF000000C014080B500AF00F08CF84FF480305A
:100F000000F0B6F800F0F2F803461A46274B1A70C4
:100F1000264B1B78012B2AD1002000F0D3F94FF487
:100F2000806000F00BFA4FF4E06000F03BFA4FF401
:100F3000004000F06DFA4FF4E0114FF4803000F003
:100F4000FDF8012000F06AF900BF392000F096FB9F
:100F50000346002BF9D0022000F07CF900BF00F01E
:100F6000A3F90346082BFAD1012000F06BFB1048CF
:100F700000F07EFA0E4B5B680E4AA2FB03239B092E
:100F80001846FFF7F7FE0121042000F021FB0121A4
:100F9000082000F01DFB0121102000F019FB0121A9
:100FA000202000F015FB00BF80BD00BF51020020D3
:100FB00038020020D34D621080B500AF4FF40041DD
:100FC000064800F0EFFD064A4FF40041034800F0E8
:100FD0000BFE0348FFF782F900BF80BD00100140FF
:100FE0005402002080B582B000AF7860396000F014
:100FF00021FD7B681B6800220021184600F072FD6D
:1010000001220021386800F06DFD00BF0837BD46A1
:1010100080BD00BF80B400AF134A134B1B6843F080
:10102000010313601049104B5A68104B13404B607A
:101030000D4A0D4B1B6823F0847323F48033136037
:10104000094A094B1B6823F480231360064A064BA8
:101050005B6823F4FE035360034B4FF41F029A6056
:1010600000BFBD4680BC7047001002400000FFF882
:1010700080B582B000AF78607B68002B0CD07B68B5
:10108000B3F5803F08D07B68B3F5802F04D040F2E1
:1010900011111448FFF7A6FF134A134B1B6823F4E2
:1010A00080331360104A104B1B6823F480231360B5
:1010B0007B68B3F5803F03D0B3F5802F07D00DE0F8
:1010C000094A094B1B6843F48033136006E0064A63
:1010D000054B1B6843F4A023136000BF00BF083713
:1010E000BD4680BD5C2600080010024080B582B07D
:1010F00000AF00233B600023FB710023BB71312054
:1011000000F0BCFA0346BB713B6801333B603B68AF
:10111000B3F5A06F02D0BB79002BF0D0312000F0E6
:10112000ADFA0346002B02D00123FB7101E000233E
:10113000FB71FB7918460837BD4680BD80B584B089
:1011400000AF786039600023FB607B68002B0CD017
:101150007B68B3F5803F08D07B68B3F5403F04D08F
:1011600040F27F112B48FFF73DFF3B68002B3CD03E
:101170003B68B3F5802F38D03B68B3F5002F34D0EF
:101180003B68B3F5402F30D03B68B3F5801F2CD0BF
:101190003B68B3F5A01F28D03B68B3F5C01F24D02F
:1011A0003B68B3F5E01F20D03B68B3F5001F1CD0AF
:1011B0003B68B3F5101F18D03B68B3F5201F14D05F
:1011C0003B68B3F5301F10D03B68B3F5401F0CD01F
:1011D0003B68B3F5501F08D03B68B3F5601F04D0DF
:1011E0004FF4C0710B48FFF7FDFE0B4B5B68FB60D3
:1011F000FB6823F47C13FB607A683B681343FA684E
:101200001343FB60044AFB68536000BF1037BD46C0
:1012100080BD00BF5C2600080010024080B582B08F
:1012200000AF0346FB71FB79002B07D0FB79012B44
:1012300004D04FF4CA710548FFF7D4FE044AFB7985
:10124000136000BF0837BD4680BD00BF5C260008A4
:101250006000424280B584B000AF78600023FB603C
:101260007B68002B0AD07B68012B07D07B68022BA0
:1012700004D04FF40E710A48FFF7B4FE094B5B68C7
:10128000FB60FB6823F00303FB60FA687B68134391
:10129000FB60044AFB68536000BF1037BD4680BD49
:1012A0005C2600080010024080B400AF044B5B686D
:1012B000DBB203F00C03DBB21846BD4680BC7047BE
:1012C0000010024080B584B000AF78600023FB605E
:1012D0007B68002B1CD07B68802B19D07B68902BFF
:1012E00016D07B68A02B13D07B68B02B10D07B6806
:1012F000C02B0DD07B68D02B0AD07B68E02B07D0A9
:101300007B68F02B04D04FF419710A48FFF76AFE8E
:10131000094B5B68FB60FB6823F0F003FB60FA6835
:101320007B681343FB60044AFB68536000BF1037BF
:10133000BD4680BD5C2600080010024080B584B028
:1013400000AF78600023FB607B68002B14D07B68C3
:10135000B3F5806F10D07B68B3F5A06F0CD07B68BD
:10136000B3F5C06F08D07B68B3F5E06F04D040F2EE
:101370007E210A48FFF736FE094B5B68FB60FB687D
:1013800023F4E063FB60FA687B681343FB60044A64
:10139000FB68536000BF1037BD4680BD5C26000867
:1013A0000010024080B584B000AF78600023FB607D
:1013B0007B68002B14D07B68B3F5806F10D07B68FE
:1013C000B3F5A06F0CD07B68B3F5C06F08D07B6815
:1013D000B3F5E06F04D04FF426710B48FFF702FE1F
:1013E0000A4B5B68FB60FB6823F46053FB607B681F
:1013F000DB00FA681343FB60044AFB68536000BFDC
:101400001037BD4680BD00BF5C26000800100240BA
:1014100080B584B000AF78600023FB607B68002B50
:1014200010D07B68B3F5804F0CD07B68B3F5004FCC
:1014300008D07B68B3F5404F04D040F202310A482F
:10144000FFF7D0FD094B5B68FB60FB6823F440436A
:10145000FB60FA687B681343FB60044AFB685360D7
:1014600000BF1037BD4680BD5C260008001002405A
:1014700080B487B000AF786000237B6100233B61BC
:101480000023FB600023BB604C4B5B6803F00C0344
:101490007B617B69042B07D0082B09D0002B33D14B
:1014A0007B68474A1A6033E07B68454A1A602FE040
:1014B000424B5B6803F470133B61404B5B6803F481
:1014C0008033FB603B699B0C02333B61FB68002B64
:1014D00006D13B693B4A02FB03F27B681A6017E0C6
:1014E000364B5B6803F40033002B06D03B69354A6A
:1014F00002FB03F27B681A600AE03B69304A02FB98
:1015000003F27B681A6003E07B682D4A1A6000BF13
:101510002A4B5B6803F0F0037B617B691B097B61ED
:10152000294A7B6913441B78DBB2BB607B681A686D
:10153000BB68DA407B685A60204B5B6803F4E06369
:101540007B617B691B0A7B611F4A7B6913441B78A3
:10155000DBB2BB607B685A68BB68DA407B689A6024
:10156000164B5B6803F460537B617B69DB0A7B612C
:10157000154A7B6913441B78DBB2BB607B685A68F1
:10158000BB68DA407B68DA600C4B5B6803F440436D
:101590007B617B699B0B7B610C4A7B6913441B78E5
:1015A000DBB2BB607B68DA68BB68B2FBF3F27B68D6
:1015B0001A6100BF1C37BD4680BC70470010024056
:1015C00000127A0000093D000000002010000020F9
:1015D00080B582B000AF78600B46FB707A68164B1E
:1015E0001340002B02D17B68002B04D140F24A410A
:1015F0001248FFF7F7FCFB78002B07D0FB78012B94
:1016000004D040F24B410D48FFF7ECFCFB78002B77
:1016100006D00B490A4B9A697B6813438B6106E03D
:101620000749074B9A697B68DB4313408B6100BF16
:101630000837BD4680BD00BF0200C0FF5C26000821
:101640000010024080B582B000AF0346FB71FB7909
:10165000002B07D0FB79012B04D040F2E54105486F
:10166000FFF7C0FC044AFB79136000BF0837BD4692
:1016700080BD00BF5C2600084C00424280B586B0A9
:1016800000AF0346FB710023FB6000237B61002356
:10169000FB74FB79212B22D0FB79312B1FD0FB79F6
:1016A000392B1CD0FB79412B19D0FB79612B16D03B
:1016B000FB797A2B13D0FB797B2B10D0FB797C2B19
:1016C0000DD0FB797D2B0AD0FB797E2B07D0FB79DF
:1016D0007F2B04D040F234511648FFF783FCFB798E
:1016E0005B09DBB2FB60FB68012B03D1124B1B686B
:1016F0007B6109E0FB68022B03D10F4B1B6A7B6106
:1017000002E00D4B5B6A7B61FB7903F01F03FB601A
:101710007A69FB6822FA03F303F00103002B02D07D
:101720000123FB7401E00023FB74FB7C184618378F
:10173000BD4680BD5C2600080010024080B483B026
:1017400000AF78600B467B80054A7B681360044AD3
:101750007B88938000BF0C37BD4680BC704700BFBC
:101760001400002080B483B000AF78600B467B800B
:10177000054A7B689360044A7B88938100BF0C37DD
:10178000BD4680BC704700BF1400002080B483B009
:1017900000AF78600B467B80054A7B681361044A82
:1017A0007B88938200BF0C37BD4680BC704700BF6A
:1017B0001400002080B483B000AF78600B467B80BB
:1017C000054A7B689361044A7B88938300BF0C378A
:1017D000BD4680BC704700BF1400002080B483B0B9
:1017E00000AF78600B467B80054A7B681362044A31
:1017F0007B88938400BF0C37BD4680BC704700BF18
:101800001400002080B584B000AF0346FB710023B4
:10181000FB7326E0164B9869154B998BFA79FB7B85
:10182000C3F1070342FA03F303F00103002B14BFD3
:1018300001230023DBB21A46FFF7E2F90C4B186ACA
:101840000B4B9B8C01221946FFF7DAF9084B186AFB
:10185000074B9B8C00221946FFF7D2F9FB7B013323
:10186000FB73FB7B072BD5D900BF1037BD4680BD6E
:101870001400002080B582B000AF03460A46FB7119
:101880001346BB71BB79002B1CD11E4B18691D4B35
:101890009B8A00221946FFF7B3F91A4B9868194B37
:1018A0009B8900221946FFF7ABF9FB791846FFF731
:1018B000A9FF144B9868134B9B8901221946FFF727
:1018C0009FF91BE00F4B18690E4B9B8A01221946AA
:1018D000FFF796F90B4B98680A4B9B890022194633
:1018E000FFF78EF9FB791846FFF78CFF054B9868D8
:1018F000044B9B8901221946FFF782F900BF083784
:10190000BD4680BD1400002080B500AF174B18689D
:10191000164B9B8800221946FFF772F9134B186883
:10192000124B9B8801221946FFF76AF900212120FA
:10193000FFF7A0FF0021B820FFF79CFF0021042043
:10194000FFF798FF00211420FFF794FF00212020CB
:10195000FFF790FF00210C20FFF78CFF00F06AF8E2
:10196000034B002283F8F82100BF80BD1400002043
:101970003C00002080B584B000AF0346FB7100231B
:10198000FB602DE01A4B93F8F83183F00103DBB2D2
:10199000002B10D0FB79A3F12002164913465B00FF
:1019A00013445B00CA18FB6813441B7801211846D6
:1019B000FFF760FF11E0FB79A3F120020D49134608
:1019C0005B0013445B00CA18FB6813441B78DB43BD
:1019D000DBB201211846FFF74DFFFB680133FB60C6
:1019E000FB68052BCEDD00BF1037BD4680BD00BFB4
:1019F0003C000020A026000880B582B000AF7860CF
:101A00000B46FB701346BB70BA78FB78114618463C
:101A100000F02CF806E07B685A1C7A601B781846A8
:101A2000FFF7A8FF7B681B78002BF4D100BF0837B5
:101A3000BD4680BD80B582B000AF00237B600BE067
:101A400001210020FFF716FF074A7B68134400229C
:101A50001A707B6801337B607B68B3F5FC7FEFDB3A
:101A600000BF0837BD4680BD3C00002080B582B075
:101A700000AF03460A46FB711346BB71FB7963F066
:101A80007F03DBB200211846FFF7F4FEBB7943F079
:101A90004003DBB200211846FFF7ECFE00BF083719
:101AA000BD4680BD80B485B000AF78600023FB7375
:101AB0007B68002B0AD101230CE07B68084AA2FB5B
:101AC0000323DB087B60FB7B0133FB737B68002B0C
:101AD000F3D1FB7B18461437BD4680BC704700BF6E
:101AE000CDCCCCCC80B588B000AF78600B46FB7015
:101AF0001346BB700123BB610023FB777868FFF7B7
:101B0000D1FF0346013BBB77BB7F013307F12002C6
:101B10001344002203F8182C1FE07A68204BA3FB23
:101B20000213D9080B469B000B445B00D31ABB6120
:101B3000BB7F5A1EBA771946BB69DBB23033DAB2C3
:101B400007F120030B4403F8182C7B68144AA2FB0E
:101B50000323DB087B600123FB777B68002BDCD150
:101B60007B68002B11D1FB7F002B0ED1BB7F07F1CF
:101B700020021344302203F8182CBA78F97807F1C0
:101B800008031846FFF738FF06E0BA78F97807F13E
:101B900008031846FFF730FF00BF2037BD4680BD61
:101BA000CDCCCCCC80B582B000AF78600B467B80CA
:101BB0007B680C4A5A607B684FF4C0429A601220DE
:101BC000FEF7FEFA7B684FF044325A607B684FF4B0
:101BD00060429A600820FEF727FB00BF0837BD4629
:101BE00080BD00BF4444448480B586B000AFF86037
:101BF0000B467A607B8100BFFB689A687B89134043
:101C0000002BF9D19620FEF70FFB00BFFB689A6806
:101C10007B891340002BF9D10023FB7527E000BF1F
:101C2000FB689A687B891340002BF9D02820FEF7C7
:101C3000FBFAFB689A687B891340002B0DD0FB7D73
:101C4000012219467868FEF789FB00BFFB689A6895
:101C50007B891340002BF9D106E0FB7D0022194659
:101C60007868FEF77BFB00BFFB7D0133FB75FA7DD7
:101C70007B681B7819467B681B7803FB01F39A424B
:101C8000CDDB3620FEF7D0FA00BF1837BD4680BD49
:101C900080B584B000AF78600B467B800423FB7373
:101CA0007B88BB8107F10C0319467868FEF780FE3C
:101CB00000BF1037BD4680BD0000000000000000DE
:101CC000005F000000000700070000147F147F146D
:101CD00000242A7F2A120023130864620036495523
:101CE000225000000503000000001C2241000000FB
:101CF00041221C000014083E08140008083E080891
:101D0000000050300000000808080808000060606B
:101D10000000002010080402003E5149453E00002A
:101D2000427F4000004261514946002141454B310C
:101D3000001814127F10002745454539003C4A49D8
:101D4000493000017109050300364949493600064A
:101D50004949291E000036360000000056360000B2
:101D6000000814224100001414141414000041222D
:101D7000140800020151090600324979413E007EF3
:101D80001111117E007F49494936003E41414122EF
:101D9000007F4141221C007F49494941007F0909D8
:101DA0000901003E4149497A007F0808087F000088
:101DB000417F4100002040413F01007F0814224143
:101DC000007F40404040007F020C027F007F0408FB
:101DD000107F003E4141413E007F09090906003E57
:101DE0004151215E007F0919294600464949493180
:101DF0000001017F0101003F4040403F001F2040A3
:101E0000201F003F4038403F006314081463000760
:101E10000870080700615149454300007F414100B7
:101E2000000204081020000041417F00000402016C
:101E30000204004040404040000001020400002035
:101E400054545478007F4844443800384444442073
:101E500000384444487F00385454541800087E0920
:101E60000102000C5252523E007F08040478000028
:101E7000447D4000002040443D00007F1028440085
:101E80000000417F4000007C04180478007C0804B6
:101E90000478003844444438007C141414080008C2
:101EA0001414187C007C080404080048545454207E
:101EB00000043F444020003C4040207C001C204067
:101EC000201C003C4030403C004428102844000CBA
:101ED0005050503C004464544C44000008364100CB
:101EE0000000007F000000004136080000100808D4
:101EF00010080078464146785A3A5C686F6D655C18
:101F00007374616D5C776F726B73706163655C7421
:101F10006F6F6C5F626F785F73746D33325C737474
:101F20006D5F6C69625C7372635C64656C61792E71
:101F3000630000000000000000000000005F0000DF
:101F400000000700070000147F147F1400242A7F7C
:101F50002A120023130864620036495522500000FB
:101F60000503000000001C224100000041221C006B
:101F70000014083E08140008083E0808000050300D
:101F80000000000808080808000060600000002049
:101F900010080402003E5149453E0000427F4000C7
:101FA000004261514946002141454B31001814124D
:101FB0007F10002745454539003C4A49493000011A
:101FC0007109050300364949493600064949291E69
:101FD00000003636000000005636000000081422CB
:101FE00041000014141414140000412214080002CB
:101FF0000151090600324979413E007E1111117EDE
:10200000007F49494936003E41414122007F41411C
:10201000221C007F49494941007F09090901003E0E
:102020004149497A007F0808087F0000417F41004C
:10203000002040413F01007F08142241007F4040C2
:102040004040007F020C027F007F0408107F003EAA
:102050004141413E007F09090906003E4151215E90
:10206000007F091929460046494949310001017F8D
:102070000101003F4040403F001F2040201F003F23
:102080004038403F006314081463000708700807D5
:1020900000615149454300007F41410000020408AE
:1020A0001020000041417F000004020102040040B2
:1020B0004040404000000102040000205454547885
:1020C000007F4844443800384444442000384444A5
:1020D000487F00385454541800087E090102000C4F
:1020E0005252523E007F080404780000447D4000B4
:1020F000002040443D00007F102844000000417F44
:102100004000007C04180478007C0804047800383F
:1021100044444438007C1414140800081414187C37
:10212000007C0804040800485454542000043F4430
:102130004020003C4040207C001C2040201C003CF3
:102140004030403C004428102844000C5050503C83
:10215000004464544C440000083641000000007FF5
:102160000000000041360800001008081008007840
:10217000464146785A3A5C686F6D655C7374616D70
:102180005C776F726B73706163655C746F6F6C5FAB
:10219000626F785F73746D33325C73746D5F6C69FA
:1021A000625C7372635C73746D3332663130785F76
:1021B0006770696F2E6300000000000000000000DF
:1021C000005F000000000700070000147F147F1468
:1021D00000242A7F2A12002313086462003649551E
:1021E000225000000503000000001C2241000000F6
:1021F00041221C000014083E08140008083E08088C
:102200000000503000000008080808080000606066
:102210000000002010080402003E5149453E000025
:10222000427F4000004261514946002141454B3107
:10223000001814127F10002745454539003C4A49D3
:102240004930000171090503003649494936000645
:102250004949291E000036360000000056360000AD
:102260000008142241000014141414140000412228
:10227000140800020151090600324979413E007EEE
:102280001111117E007F49494936003E41414122EA
:10229000007F4141221C007F49494941007F0909D3
:1022A0000901003E4149497A007F0808087F000083
:1022B000417F4100002040413F01007F081422413E
:1022C000007F40404040007F020C027F007F0408F6
:1022D000107F003E4141413E007F09090906003E52
:1022E0004151215E007F091929460046494949317B
:1022F0000001017F0101003F4040403F001F20409E
:10230000201F003F4038403F00631408146300075B
:102310000870080700615149454300007F414100B2
:10232000000204081020000041417F000004020167
:102330000204004040404040000001020400002030
:1023400054545478007F484444380038444444206E
:1023500000384444487F00385454541800087E091B
:102360000102000C5252523E007F08040478000023
:10237000447D4000002040443D00007F1028440080
:102380000000417F4000007C04180478007C0804B1
:102390000478003844444438007C141414080008BD
:1023A0001414187C007C0804040800485454542079
:1023B00000043F444020003C4040207C001C204062
:1023C000201C003C4030403C004428102844000CB5
:1023D0005050503C004464544C44000008364100C6
:1023E0000000007F000000004136080000100808CF
:1023F0001008007846414678546F6F6C5F426F78E2
:102400005F53544D33320000487A00004448543141
:10241000312073656E736F720000000000000000D1
:1024200000000000005F000000000700070000142B
:102430007F147F1400242A7F2A1200231308646269
:1024400000364955225000000503000000001C2200
:102450004100000041221C000014083E081400083E
:10246000083E08080000503000000008080808086E
:10247000000060600000002010080402003E514986
:10248000453E0000427F4000004261514946002124
:1024900041454B31001814127F100027454545393E
:1024A000003C4A4949300001710905030036494999
:1024B000493600064949291E000036360000000052
:1024C000563600000008142241000014141414149D
:1024D0000000412214080002015109060032497926
:1024E000413E007E1111117E007F49494936003E70
:1024F00041414122007F4141221C007F494949411D
:10250000007F09090901003E4149497A007F080816
:10251000087F0000417F4100002040413F01007FD3
:1025200008142241007F40404040007F020C027F9F
:10253000007F0408107F003E4141413E007F0909B1
:102540000906003E4151215E007F091929460046D7
:10255000494949310001017F0101003F4040403FAE
:10256000001F2040201F003F4038403F00631408F8
:1025700014630007087008070061514945430000D3
:102580007F414100000204081020000041417F000B
:1025900000040201020400404040404000000102EB
:1025A0000400002054545478007F484444380038D4
:1025B0004444442000384444487F0038545454185C
:1025C00000087E090102000C5252523E007F0804AE
:1025D00004780000447D4000002040443D00007F1E
:1025E000102844000000417F4000007C041804785B
:1025F000007C08040478003844444438007C1414F7
:10260000140800081414187C007C0804040800480E
:102610005454542000043F444020003C4040207C5F
:10262000001C2040201C003C4030403C004428104E
:102630002844000C5050503C004464544C4400006A
:10264000083641000000007F00000000413608000D
:102650000010080810080078464146785A3A5C682D
:102660006F6D655C7374616D5C776F726B737061B5
:1026700063655C746F6F6C5F626F785F73746D33EA
:10268000325C73746D5F6C69625C7372635C7374EB
:102690006D3332663130785F7263632E6300000001
:1026A0000000000000000000005F000000000700C4
:1026B000070000147F147F1400242A7F2A120023AD
:1026C00013086462003649552250000005030000DB
:1026D00000001C224100000041221C000014083EA2
:1026E00008140008083E08080000503000000008E8
:1026F00008080808000060600000002010080402BC
:10270000003E5149453E0000427F40000042615179
:102710004946002141454B31001814127F10002713
:1027200045454539003C4A494930000171090503D6
:1027300000364949493600064949291E0000363607
:10274000000000005636000000081422410000146A
:102750001414141400004122140800020151090647
:1027600000324979413E007E1111117E007F4949B6
:102770004936003E41414122007F4141221C007FF9
:1027800049494941007F09090901003E4149497A07
:10279000007F0808087F0000417F41000020404181
:1027A0003F01007F08142241007F40404040007FED
:1027B000020C027F007F0408107F003E4141413E31
:1027C000007F09090906003E4151215E007F091979
:1027D00029460046494949310001017F0101003F76
:1027E0004040403F001F2040201F003F4038403FF6
:1027F000006314081463000708700807006151495A
:10280000454300007F414100000204081020000001
:1028100041417F000004020102040040404040406A
:10282000000001020400002054545478007F484402
:10283000443800384444442000384444487F003839
:102840005454541800087E090102000C5252523EA2
:10285000007F080404780000447D400000204044CC
:102860003D00007F102844000000417F4000007CB4
:1028700004180478007C0804047800384444443880
:10288000007C1414140800081414187C007C08043C
:10289000040800485454542000043F444020003CA5
:1028A0004040207C001C2040201C003C4030403C2C
:1028B000004428102844000C5050503C00446454FC
:1028C0004C440000083641000000007F000000007A
:1028D0004136080000100808100800784641467884
:1028E00000000000010203040102030406070809B6
:0428F00002040608D0
:0400000508000000EF
:00000001FF
