:020000040800F2
:10000000080B002015060008750600087506000894
:100010007506000875060008750600080000000057
:10002000000000000000000000000000750600084D
:1000300075060008000000007506000801020008AF
:1000400075060008750600087506000875060008A4
:100050007506000875060008750600087506000894
:100060007506000875060008750600087506000884
:100070007506000875060008750600087506000874
:100080007506000875060008750600087506000864
:100090007506000875060008750600087506000854
:1000A0007506000875060008750600087506000844
:1000B0007506000875060008750600087506000834
:1000C0007506000875060008750600087506000824
:1000D0007506000875060008750600087506000814
:1000E0007506000875060008750600080000000087
:1000F0000000000000000000000000000000000000
:1001000000000000000000005FF808F110B5054C89
:10011000237833B9044B13B10448AFF300800123B3
:10012000237010BD50040020000000009C2C00082B
:10013000084B10B51BB108490848AFF300800848C8
:10014000036803B910BD074B002BFBD0BDE810407E
:10015000184700BF00000000540400209C2C000839
:100160004C0400200000000080B483B000AF0346C0
:100170003960FB7197F90730002B0BDA0D49FB79D9
:1001800003F00F03043B3A68D2B21201D2B20B441F
:100190001A7609E0084997F907303A68D2B2120195
:1001A000D2B20B4483F8002300BF0C37BD4680BC9D
:1001B000704700BF00ED00E000E100E080B582B0D4
:1001C00000AF78607B68B3F1807F01D3012311E039
:1001D0000A4A7B6823F07F43013B53600F214FF0B5
:1001E000FF30FFF7C1FF054B00229A60034B072247
:1001F0001A60002318460837BD4680BD10E000E0B5
:1002000080B400AF044B1B680133034A136000BF86
:10021000BD4680BC704700BFC006002080B582B0DC
:1002200000AF7860124801F015F9114B5B68114A74
:10023000A2FB03239B091846FFF7C0FF0E4B0022C9
:100240009A600E4B00221A6000BF0C4B1A687B6844
:100250009A42FAD3064B5B68094AA2FB03239B0C24
:100260001846FFF7ABFF00BF0837BD4680BD00BF93
:10027000AC060020D34D621010E000E0C006002064
:1002800083DE1B4380B58AB000AFF860B9607A6046
:100290007B801C2387F827307A883B8E13439BB2E0
:1002A000BB84032387F8263007F1240319467868B6
:1002B00000F0E4F90023FB83BB687B6100233B83F0
:1002C0001523BB834FF480433B844BF6FF737B8342
:1002D00007F114031946F86801F026FC0121F868BB
:1002E00001F0E4FC00BF2837BD4680BD80B586B074
:1002F00000AFF8607B600B46FB721346BB7200BF19
:100300004FF40031F86801F0AFFD0346002BF7D140
:100310000121F86801F0EAFC00BF3049F86801F0FB
:1003200073FD0346002BF8D0FB7A00221946F868CB
:1003300001F04CFD00BF2A49F86801F065FD034655
:10034000002BF8D0BB7A9AB2FB681A8200BF25490D
:10035000F86801F059FD0346002BF8D00121F86838
:1003600001F0C4FC00BF1D49F86801F04DFD0346D3
:10037000002BF8D0FB7A01221946F86801F026FD1F
:1003800000BF1949F86801F03FFD0346002BF8D083
:1003900000BF1549F86801F037FD0346002BF8D07F
:1003A000FB681B8A9BB2DAB27B681A700021F8687E
:1003B00001F0DCFC0121F86801F0B8FC00BF4FF44B
:1003C0000031F86801F050FD0346002BF7D10023FF
:1003D000FB75002318461837BD4680BD0100030099
:1003E00082000700840007004000030080B582B04F
:1003F00000AF7860084611461A460346FB700B466C
:10040000BB7013467B700121786801F06FFC00BF60
:100410002049786801F0F8FC0346002BF8D0FB78FF
:1004200000221946786801F0D1FC00BF1A497868AB
:1004300001F0EAFC0346002BF8D0BB781946786837
:1004400001F0B4FC00BF1549786801F0DDFC0346FB
:10045000002BF8D07B781946786801F0A7FC00BF24
:100460000E49786801F0D0FC0346002BF8D001213A
:10047000786801F05BFC00BF4FF40031786801F050
:10048000F3FC0346002BF7D1002318460837BD467E
:1004900080BD00BF01000300820007008400070048
:1004A00080B500AF154A154B1B6843F0010313607C
:1004B0001249124B5A68124B13404B600F4A0F4BB4
:1004C0001B6823F0847323F4803313600B4A0B4BB7
:1004D0001B6823F480231360084A084B5B6823F4ED
:1004E000FE035360054B4FF41F029A6000F00CF8B6
:1004F000044B4FF000629A6000BF80BD00100240C4
:100500000000FFF800ED00E080B500AF00F002F859
:1005100000BF80BD80B483B000AF00237B600023A8
:100520003B603A4A394B1B6843F480331360374BC6
:100530001B6803F400333B607B6801337B603B68DE
:10054000002B03D17B68B3F5A06FF0D12F4B1B6854
:1005500003F40033002B02D001233B6001E00023B1
:100560003B603B68012B4BD1294A294B1B6843F068
:1005700010031360264A264B1B6823F00303136005
:10058000234A234B1B6843F0020313601F4A1F4B8F
:100590005B6853601D4A1D4B5B6853601B4A1B4BD5
:1005A0005B6843F480635360184A184B5B6823F41C
:1005B0007C135360154A154B5B6843F4E813536092
:1005C000124A124B1B6843F08073136000BF0F4B3D
:1005D0001B6803F00073002BF9D00C4A0B4B5B68CF
:1005E00023F003035360094A084B5B6843F002039E
:1005F000536000BF054B5B6803F00C03082BF9D177
:1006000000BF0C37BD4680BC704700BF00100240E1
:100610000020024080B582B000AF114B7B60114BCF
:100620003B6007E03B681A1D3A607A68111D7960EB
:1006300012681A603B680C4A9342F3D30B480C498A
:100640004FF000028842B8BF40F8042BFADBFFF7F6
:1006500027FF00F035F900BF0837BD4680BD00BF59
:100660009C2C0008000000205004002050040020B2
:100670000407002080B400AFFEE700BF80B489B05B
:1006800000AF786039600023FB6100233B610023E9
:10069000BB610023FB6000237B610023BB603B68E0
:1006A000DB7803F00F03FB613B68DB7803F010039A
:1006B000002B05D03B689B781A46FB691343FB610E
:1006C0003B681B88DBB2002B44D07B681B687B61D6
:1006D0000023BB6138E00122BB6902FA03F3FB602F
:1006E0003B681B881A46FB6813403B613A69FB680C
:1006F0009A4226D1BB699B00FB600F22FB6802FA7D
:1007000003F3BB60BB68DB437A6913407B61FA6922
:10071000FB6802FA03F37A6913437B613B68DB7879
:10072000282B05D10122BB699A407B685A6108E0F9
:100730003B68DB78482B04D10122BB699A407B6877
:100740001A61BB690133BB61BB69072BC3D97B68E5
:100750007A691A603B681B88FF2B46D97B685B6807
:100760007B610023BB613AE0BB690833012202FAD6
:1007700003F3FB603B681B881A46FB6813403B6130
:100780003A69FB689A4227D1BB699B00FB600F2244
:10079000FB6802FA03F3BB60BB68DB437A69134072
:1007A0007B61FA69FB6802FA03F37A6913437B61A0
:1007B0003B68DB78282B05D1BB69083301229A40BE
:1007C0007B685A613B68DB78482B05D1BB690833ED
:1007D00001229A407B681A61BB690133BB61BB6926
:1007E000072BC1D97B687A695A6000BF2437BD46A0
:1007F00080BC704780B483B000AF78600B467B80CC
:1008000013467B707B78002B03D07A887B681A6153
:1008100002E07A887B685A6100BF0C37BD4680BC15
:10082000704700BF80B483B000AF03463960FB71EE
:1008300097F90730002B0BDA0D49FB7903F00F0312
:10084000043B3A68D2B21201D2B20B441A7609E0E4
:10085000084997F907303A68D2B21201D2B20B4474
:1008600083F8002300BF0C37BD4680BC704700BF33
:1008700000ED00E000E100E080B582B000AF7860FC
:100880007B68B3F1807F01D3012311E00A4A7B68C2
:1008900023F07F43013B53600F214FF0FF30FFF700
:1008A000C1FF054B00229A60034B07221A60002308
:1008B00018460837BD4680BD10E000E0000000008B
:1008C000B0B5A2B002AF00F017FC00F0D7FB00F00B
:1008D000DDFF00220021C74801F050F8C64B5B68DD
:1008E00001220021184601F0BFF801223221C3483D
:1008F00001F044F8802300934023C14AC149C24813
:10090000FFF7C0FC1420FFF789FC3A460023009350
:100910001346AA22EE21BC48FFF7E8FC3B465A1CCE
:10092000002300931346AB22EE21B748FFF7DEFC0D
:100930003B469A1C002300931346AC22EE21B2489A
:10094000FFF7D4FC3B46DA1C002300931346AD228C
:10095000EE21AD48FFF7CAFC3B461A1D0023009369
:100960001346AE22EE21A848FFF7C0FC3B465A1DB5
:10097000002300931346AF22EE21A348FFF7B6FCF5
:100980003B469A1D002300931346B022EE219E4859
:10099000FFF7ACFC3B46DA1D002300931346B1225F
:1009A000EE219948FFF7A2FC3B4603F10802002321
:1009B00000931346B222EE219348FFF797FC3B4683
:1009C00003F10902002300931346B322EE218E485F
:1009D000FFF78CFC3B4603F10A0200230093134609
:1009E000B422EE218848FFF781FC3B4603F10B025D
:1009F000002300931346B522EE218348FFF776FCCF
:100A00003B4603F10C02002300931346B622EE216D
:100A10007D48FFF76BFC3B4603F10D02002300937A
:100A20001346B722EE217848FFF760FC3B4603F1FE
:100A30000E02002300931346B822EE217248FFF7FE
:100A400055FC3B4603F10F02002300931346B922E5
:100A5000EE216D48FFF74AFC3B4603F110020023EC
:100A600000931346BA22EE216748FFF73FFC3B464E
:100A700003F11102002300931346BB22EE216248CA
:100A8000FFF734FC3B4603F11202002300931346A8
:100A9000BC22EE215C48FFF729FC3B4603F1130220
:100AA000002300931346BD22EE215748FFF71EFC9A
:100AB0003B4603F11402002300931346BE22EE21AD
:100AC0005148FFF713FC3B4603F115020023009346
:100AD0001346BF22EE214C48FFF708FC3B781B026F
:100AE0001AB27B781BB21343A7F87A30BB781B028B
:100AF0001AB2FB781BB21343A7F878303B791B027C
:100B00001AB27B791BB21343A7F87630BB791B026C
:100B10001AB2FB791BB213431BB2A7F874303B7AAD
:100B20001B021AB27B7A1BB213431BB2A7F87230B6
:100B3000BB7A1B021AB2FB7A1BB213431BB2A7F893
:100B400070303B7B1B021AB27B7B1BB21343A7F8AE
:100B50006E30BB7B1B021AB2FB7B1BB21343A7F8A0
:100B60006C303B7C1B021AB27B7C1BB21343A7F890
:100B70006A30BB7C1B021AB2FB7C1BB21343A7F882
:100B800068303B7D1B021AB27B7D1BB21343A7F872
:100B900066302E23F422EE211B48FFF727FC642049
:100BA000FFF73CFB3B4603F116020123009313467B
:100BB000F622EE211448FFF799FB3B4603F117029A
:100BC000012300931346F722EE210F48FFF78EFB17
:100BD0003423F422EE210C48FFF708FC6420FFF7D1
:100BE0001DFB3B4603F11802012300931346F62236
:100BF000EE210BE00C2A0008AC0600201C2A00089D
:100C0000000C0140A086010000540040BF48FFF7DF
:100C10006DFB3B4603F11902012300931346F722B3
:100C2000EE21BA48FFF762FB3B4603F11A020123AB
:100C300000931346F822EE21B448FFF757FB002338
:100C40003B66BB7D1B02FA7D1344FB653B7E1A4667
:100C50007B7E10339A40BB7E08339A403B6EC3F1D3
:100C6000080342FA03F3BB65B7F87030FA6DD31A84
:100C7000B7F8722002FB03F3002B02DA03F5FF43FF
:100C80007F33DB13184601F07FFA03460C46C7E9B1
:100C90001434B7F96830DB02184601F075FA0446DF
:100CA0000D46B7F96630184601F06EFAD7E91423FD
:100CB00001F01EF902460B462046294601F0F4FBDE
:100CC00003460C46C7E91234D7E91223D7E91401C9
:100CD00001F00EF903460C46C7E910344FF000024C
:100CE0008B4BD7E9100101F003F903460C46184677
:100CF00021464FF00002874B01F0D6FB03460C461D
:100D0000C7E90E34D7E90E0101F0B6FC03467B6358
:100D1000786B01F039FA03460C461A462346D7E9A8
:100D20000E0101F0E3F803460C46184621464FF049
:100D30000002794B01F08EFA03460C461846214614
:100D400001F09AFC03463B6300F036FE00220021CE
:100D5000724800F013FE01220021714800F00EFEDF
:100D60007B6B01222821184600F07EFE01223421EF
:100D70006C4800F003FE3B6B01223921184600F05D
:100D800073FE01224621684800F0F8FD4FF0000292
:100D9000664BD7E9100101F0A9F803460C46184646
:100DA000214601F069FC0346FB62FB6AFA6A02FB1A
:100DB00003F3002B01DA03F6FF731B131A46B82363
:100DC00003FB02F3002B01DA03F2FF73DB12184678
:100DD00001F0DAF903460C46C7E91434B7F9783064
:100DE000FA6A02FB03F3002B01DA03F2FF73DB1252
:100DF000184601F0C9F903460C46C7E91234D7E991
:100E00001223D7E9140101F073F803460C46184683
:100E1000214601F031FC0346BB62B7F97A309A00F3
:100E2000BB6A1A443B6E023302FA03F3002B00DA6A
:100E300003339B107B62FB6AAE2202FB03F3002BA1
:100E400002DA03F5FF531F335B13184601F09CF9D8
:100E500003460C46C7E91434B7F96E20FB6AF96AF9
:100E600001FB03F3002B01DA03F6FF731B1303FBF3
:100E700002F3002B02DA03F57F43FF331B141846FD
:100E800001F082F903460C46C7E91234D7E9122370
:100E9000D7E9140101F02CF803460C461846214608
:100EA0004FF000024FF0804301F022F803460C4659
:100EB000184621464FF000021D4B01F0F5FA03469B
:100EC0000C461846214601F0D7FB0346BB62B7F833
:100ED0007430BA6A02F5004202FB03F3DB0B3B629B
:100EE000BA6D7B6AD31A4CF250313A6E41FA02F273
:100EF00002FB03F3FB61FB69002B1BDBFB695A0060
:100F00003B6AB2FBF3F3FB671AE000BF00540040FA
:100F1000000020400000304000005940202A000816
:100F2000302A0008382A00083C2A00080040AF4058
:100F300000001040FA693B6AB2FBF3F35B00FB6709
:100F4000FB6F002B00DAFF331B121A46FB6F002BDE
:100F500000DAFF331B1203FB02F3184601F014F909
:100F600003460C46C7E9143439A3D3E90023D7E973
:100F7000140101F06FF903460C46184621464FF064
:100F80000002374B01F090FA03460C46C7E91434CF
:100F9000FB6F344A02FB03F3002B02DA03F57F43B5
:100FA000FF331B14184601F0EFF803460C46C7E95F
:100FB0001234F86F01F0E8F804460D46D7E9122321
:100FC000D7E9140100F094FF02460B46104619467B
:100FD00021A3D3E9002300F08BFF02460B46104605
:100FE00019464FF00002204B01F05EFA02460B4614
:100FF0002046294600F07CFF03460C461846214651
:1010000001F03AFB0346FB6702220021174800F07B
:10101000B5FC03220021164800F0B0FCFB6F032250
:101020001421184600F020FD03223921114800F058
:10103000A5FC3B6B03223E21184600F015FD032260
:101040004A210D4800F09AFCA3E500BFAFF30080F1
:101050000000000000BCA74000000000009EAD4062
:101060000000F04043E3FFFF00003040402A00084A
:101070004C2A0008382A0008502A000880B582B09F
:1010800000AF4FF40041194800F020FF4FF6FF7306
:10109000BB801023FB710123BB713B1D1946144813
:1010A000FFF7ECFA0121124800F00AFB0221104878
:1010B00000F01AFB04210E4800F02AFB08210C481E
:1010C00000F03AFB10210A4800F04AFB1023FB70A5
:1010D00020233B800323BB703B4619460548FFF79E
:1010E000CDFA00BF0837BD4680BD00BF00100140EB
:1010F00000080140000C014080B500AF00F05EF830
:101100004FF4803000F088F800F0B4F803461A4637
:10111000274B1A70264B1B78012B2AD1002000F098
:1011200029F94FF4806000F041F94FF4E06000F0DD
:1011300059F94FF4004000F071F94FF4E0114FF409
:10114000803000F0BFF8012000F0DAF800BF39204D
:1011500000F07CFA0346002BF9D0022000F0E0F802
:1011600000BF00F0F9F80346082BFAD1012000F087
:101170005DFA104800F06EF90E4B5B680E4AA2FB58
:1011800003239B091846FFF777FB0121042000F099
:1011900011FA0121082000F00DFA0121102000F0C1
:1011A00009FA01214FF4001000F022FA00BF80BDBF
:1011B000E1060020AC060020D34D621080B400AFE1
:1011C000134A134B1B6843F0010313601049104B83
:1011D0005A68104B13404B600D4A0D4B1B6823F0AF
:1011E000847323F480331360094A094B1B6823F48A
:1011F00080231360064A064B5B6823F4FE035360AA
:10120000034B4FF41F029A6000BFBD4680BC70477D
:10121000001002400000FFF880B483B000AF786097
:10122000134A134B1B6823F480331360104A104B8E
:101230001B6823F4802313607B68B3F5803F03D0E1
:10124000B3F5802F07D00DE0094A094B1B6843F422
:101250008033136006E0064A054B1B6843F4A02365
:10126000136000BF00BF0C37BD4680BC704700BF95
:101270000010024080B582B000AF00233B60002325
:10128000FB710023BB71312000F0E0F90346BB7114
:101290003B6801333B603B68B3F5A06F02D0BB797C
:1012A000002BF0D0312000F0D1F90346002B02D002
:1012B0000123FB7101E00023FB71FB79184608371D
:1012C000BD4680BD80B485B000AF78603960002332
:1012D000FB600A4B5B68FB60FB6823F47C13FB60DC
:1012E0007A683B681343FA681343FB60034AFB6860
:1012F000536000BF1437BD4680BC704700100240E9
:1013000080B483B000AF0346FB71044AFB791360DD
:1013100000BF0C37BD4680BC704700BF6000424232
:1013200080B485B000AF78600023FB60094B5B6838
:10133000FB60FB6823F00303FB60FA687B681343E0
:10134000FB60044AFB68536000BF1437BD4680BC95
:10135000704700BF0010024080B400AF044B5B68D0
:10136000DBB203F00C03DBB21846BD4680BC70470D
:101370000010024080B485B000AF78600023FB60AD
:10138000094B5B68FB60FB6823F0F003FB60FA68C5
:101390007B681343FB60044AFB68536000BF14374B
:1013A000BD4680BC704700BF0010024080B485B0CD
:1013B00000AF78600023FB60094B5B68FB60FB6853
:1013C00023F4E063FB60FA687B681343FB60044A24
:1013D000FB68536000BF1437BD4680BC704700BF38
:1013E0000010024080B485B000AF78600023FB603D
:1013F000094B5B68FB60FB6823F46053FB607B6810
:10140000DB00FA681343FB60034AFB68536000BFCC
:101410001437BD4680BC70470010024080B485B0D0
:1014200000AF78600023FB60094B5B68FB60FB68E2
:1014300023F44043FB60FA687B681343FB60044A73
:10144000FB68536000BF1437BD4680BC704700BFC7
:101450000010024080B487B000AF786000237B6149
:1014600000233B610023FB600023BB604C4B5B68A7
:1014700003F00C037B617B69042B07D0082B09D098
:10148000002B33D17B68474A1A6033E07B68454ABA
:101490001A602FE0424B5B6803F470133B61404BD2
:1014A0005B6803F48033FB603B699B0C02333B6158
:1014B000FB68002B06D13B693B4A02FB03F27B68C9
:1014C0001A6017E0364B5B6803F40033002B06D03C
:1014D0003B69354A02FB03F27B681A600AE03B690C
:1014E000304A02FB03F27B681A6003E07B682D4AF6
:1014F0001A6000BF2A4B5B6803F0F0037B617B69D5
:101500001B097B61294A7B6913441B78DBB2BB60F2
:101510007B681A68BB68DA407B685A60204B5B685E
:1015200003F4E0637B617B691B0A7B611F4A7B6973
:1015300013441B78DBB2BB607B685A68BB68DA4037
:101540007B689A60164B5B6803F460537B617B6930
:10155000DB0A7B61154A7B6913441B78DBB2BB60F5
:101560007B685A68BB68DA407B68DA600C4B5B6862
:1015700003F440437B617B699B0B7B610C4A7B6975
:1015800013441B78DBB2BB607B68DA68BB68B2FBD4
:10159000F3F27B681A6100BF1C37BD4680BC704700
:1015A0000010024000127A0000093D0000000020F7
:1015B0001000002080B483B000AF78600B46FB7051
:1015C000FB78002B06D00949084B9A697B681343C6
:1015D0008B6106E00549054B9A697B68DB43134044
:1015E0008B6100BF0C37BD4680BC704700100240C5
:1015F00080B483B000AF78600B46FB70FB78002BA3
:1016000006D00949084BDA697B681343CB6106E0D1
:101610000549054BDA697B68DB431340CB6100BFAA
:101620000C37BD4680BC70470010024080B483B0C8
:1016300000AF0346FB71044AFB79136000BF0C370F
:10164000BD4680BC704700BF4C00424280B487B0AA
:1016500000AF0346FB710023FB6000237B61002386
:10166000FB74FB795B09DBB2FB60FB68012B03D1E8
:10167000124B1B687B6109E0FB68022B03D10F4B07
:101680001B6A7B6102E00D4B5B6A7B61FB7903F0B7
:101690001F03FB607A69FB6822FA03F303F001037E
:1016A000002B02D00123FB7401E00023FB74FB7CC0
:1016B00018461C37BD4680BC704700BF0010024072
:1016C00080B483B000AF78600B467B80054A7B68AE
:1016D0001360044A7B88938000BF0C37BD4680BCF2
:1016E000704700BF6C04002080B483B000AF786006
:1016F0000B467B80054A7B689360044A7B88938114
:1017000000BF0C37BD4680BC704700BF6C04002092
:1017100080B483B000AF78600B467B80054A7B685D
:101720001361044A7B88938200BF0C37BD4680BC9E
:10173000704700BF6C04002080B483B000AF7860B5
:101740000B467B80054A7B689361044A7B889383C0
:1017500000BF0C37BD4680BC704700BF6C04002042
:1017600080B483B000AF78600B467B80054A7B680D
:101770001362044A7B88938400BF0C37BD4680BC4B
:10178000704700BF6C04002080B584B000AF0346F2
:10179000FB710023FB7326E0164B9869154B998B60
:1017A000FA79FB7BC3F1070342FA03F303F0010369
:1017B000002B14BF01230023DBB21A46FFF71AF8EF
:1017C0000C4B186A0B4B9B8C01221946FFF712F841
:1017D000084B186A074B9B8C00221946FFF70AF842
:1017E000FB7B0133FB73FB7B072BD5D900BF103785
:1017F000BD4680BD6C04002080B582B000AF0346BA
:101800000A46FB711346BB71BB79002B1CD11E4BE2
:1018100018691D4B9B8A00221946FEF7EBFF1A4BF5
:101820009868194B9B8900221946FEF7E3FFFB7964
:101830001846FFF7A9FF144B9868134B9B890122A8
:101840001946FEF7D7FF1BE00F4B18690E4B9B8A1A
:1018500001221946FEF7CEFF0B4B98680A4B9B8975
:1018600000221946FEF7C6FFFB791846FFF78CFFEA
:10187000054B9868044B9B8901221946FEF7BAFF75
:1018800000BF0837BD4680BD6C04002080B500AFA6
:10189000174B1868164B9B8800221946FEF7AAFFC3
:1018A000134B1868124B9B8801221946FEF7A2FFC2
:1018B00000212120FFF7A0FF0021B820FFF79CFFA7
:1018C00000210420FFF798FF00211420FFF794FF68
:1018D00000212020FFF790FF00210C20FFF78CFF54
:1018E00000F06AF8034B002283F8F82100BF80BDA6
:1018F0006C0400209404002080B584B000AF03463F
:10190000FB710023FB602DE01A4B93F8F83183F054
:101910000103DBB2002B10D0FB79A3F120021649A2
:1019200013465B0013445B00CA18FB6813441B7822
:1019300001211846FFF760FF11E0FB79A3F12002B7
:101940000D4913465B0013445B00CA18FB6813443F
:101950001B78DB43DBB201211846FFF74DFFFB6824
:101960000133FB60FB68052BCEDD00BF1037BD46A1
:1019700080BD00BF94040020542A000880B582B0C6
:1019800000AF78600B46FB701346BB70BA78FB78EB
:101990001146184600F02CF806E07B685A1C7A6065
:1019A0001B781846FFF7A8FF7B681B78002BF4D143
:1019B00000BF0837BD4680BD80B582B000AF0023B0
:1019C0007B600BE001210020FFF716FF074A7B68D0
:1019D000134400221A707B6801337B607B68B3F587
:1019E000FC7FEFDB00BF0837BD4680BD94040020BC
:1019F00080B582B000AF03460A46FB711346BB7147
:101A0000FB7963F07F03DBB200211846FFF7F4FE99
:101A1000BB7943F04003DBB200211846FFF7ECFE30
:101A200000BF0837BD4680BD80B485B000AF786088
:101A30000023FB737B68002B0AD101230CE07B6839
:101A4000084AA2FB0323DB087B60FB7B0133FB73AB
:101A50007B68002BF3D1FB7B18461437BD4680BC56
:101A6000704700BFCDCCCCCC80B588B000AF7860DB
:101A70000B46FB701346BB700123BB610023FB7751
:101A80007868FFF7D1FF0346013BBB77BB7F01338B
:101A900007F120021344002203F8182C1FE07A6893
:101AA000204BA3FB0213D9080B469B000B445B00A1
:101AB000D31ABB61BB7F5A1EBA771946BB69DBB22A
:101AC0003033DAB207F120030B4403F8182C7B689B
:101AD000144AA2FB0323DB087B600123FB777B68AE
:101AE000002BDCD17B68002B11D1FB7F002B0ED1AA
:101AF000BB7F07F120021344302203F8182CBA7878
:101B0000F97807F108031846FFF738FF06E0BA78BE
:101B1000F97807F108031846FFF730FF00BF2037B8
:101B2000BD4680BDCDCCCCCC80B58AB000AF78604E
:101B300039600023FB8400237B840423BB84574B40
:101B4000FB617B689B88FB84FB8C23F03F03FB8459
:101B500007F108031846FFF77DFC3B69FB61FB6951
:101B60004F4AA2FB03239B0C7B84FA8C7B8C134390
:101B7000FB847B68FA8C9A807B681B889BB223F07D
:101B800001039AB27B681A800023FB843B681B68C0
:101B9000444A934215D83B681B685B00FA69B2FB64
:101BA000F3F3BB84BB8C032B01D80423BB84FA8CD6
:101BB000BB8C1343FB847B8C01339AB27B681A8401
:101BC00040E03B68DB884BF6FF72934209D13B68EB
:101BD0001A6813465B001344FA69B2FBF3F3BB8443
:101BE0000EE03B681A6813469B0013449A001344A6
:101BF000FA69B2FBF3F3BB84BB8C43F48043BB8430
:101C0000BB8CC3F30B03002B03D1BB8C43F001034C
:101C1000BB84BA8CFB8C13439BB26FEA43436FEADD
:101C20005343FB847B8C4FF4967202FB03F31E4AF2
:101C300082FB03129211DB17D31A9BB201339AB2C3
:101C40007B681A847B68FA8C9A837B681B889BB2BA
:101C500043F001039AB27B681A807B681B88FB847F
:101C6000FB8C23F4816323F00203FB843B689A8896
:101C70003B685B8913439AB2FB8C1343FB847B68FC
:101C8000FA8C1A803B689A893B681B8913439AB285
:101C90007B681A8100BF2837BD4680BD00127A00DC
:101CA00083DE1B43A0860100D34D621080B483B055
:101CB00000AF78600B46FB70FB78002B08D07B6888
:101CC0001B889BB243F001039AB27B681A8007E03D
:101CD0007B681B889BB223F001039AB27B681A8051
:101CE00000BF0C37BD4680BC704700BF80B483B0D6
:101CF00000AF78600B46FB70FB78002B08D07B6848
:101D00001B889BB243F480739AB27B681A8007E009
:101D10007B681B889BB223F480739AB27B681A801D
:101D200000BF0C37BD4680BC704700BF80B483B095
:101D300000AF78600B46FB70FB78002B08D07B6807
:101D40001B889BB243F400739AB27B681A8007E049
:101D50007B681B889BB223F400739AB27B681A805D
:101D600000BF0C37BD4680BC704700BF80B483B055
:101D700000AF78600B46FB70FB78002B08D07B68C7
:101D80001B889BB243F480639AB27B681A8007E099
:101D90007B681B889BB223F480639AB27B681A80AD
:101DA00000BF0C37BD4680BC704700BF80B483B015
:101DB00000AF78600B46FB70FB789AB27B681A82A2
:101DC00000BF0C37BD4680BC704700BF80B483B0F5
:101DD00000AF78600B46FB701346BB70BB78002BDE
:101DE00004D0FB7843F00103FB7003E0FB7823F0A1
:101DF0000103FB70FB789AB27B681A8200BF0C3734
:101E0000BD4680BC704700BF80B487B000AF78602B
:101E1000396000233B610023FB600023BB6000238B
:101E2000FB757B689B8A9BB2FB607B681B8B9BB2BC
:101E3000BB60BB681B04BB60FA68BB68134323F03C
:101E40007F433B613A693B681A403B689A4202D142
:101E50000123FB7501E00023FB75FB7D18461C3751
:101E6000BD4680BC704700BF80B487B000AF7860CB
:101E700039600023FB7500233B610023FB607B6816
:101E8000FB603B681B0F3B613B6823F07F433B607B
:101E90003B69002B03D0FB681433FB6005E03B6813
:101EA0001B0C3B60FB681833FB60FB681A683B68DF
:101EB0001340002B02D00123FB7501E00023FB75CA
:101EC000FB7D18461C37BD4680BC704780B483B08C
:101ED00000AF78600B467B8000BF0C37BD4680BCEE
:101EE000704700BF81F0004102E000BF83F0004373
:101EF00030B54FEA41044FEA430594EA050F08BFA5
:101F000090EA020F1FBF54EA000C55EA020C7FEA68
:101F1000645C7FEA655C00F0E2804FEA5454D4EBE5
:101F20005555B8BF6D420CDD2C4480EA020281EAAF
:101F3000030382EA000083EA010180EA020281EAE7
:101F40000303362D88BF30BD11F0004F4FEA013139
:101F50004FF4801C4CEA113102D0404261EB410148
:101F600013F0004F4FEA03334CEA133302D05242CE
:101F700063EB430394EA050F00F0A780A4F101048A
:101F8000D5F1200E0DDB02FA0EFC22FA05F28018C4
:101F900041F1000103FA0EF2801843FA05F35941AA
:101FA0000EE0A5F120050EF1200E012A03FA0EFC29
:101FB00028BF4CF0020C43FA05F3C01851EBE37153
:101FC00001F0004507D54FF0000EDCF1000C7EEB70
:101FD00000006EEB0101B1F5801F1BD3B1F5001FAE
:101FE0000CD349085FEA30004FEA3C0C04F10104CD
:101FF0004FEA445212F5800F80F09A80BCF1004FF6
:1020000008BF5FEA500C50F1000041EB045141EA77
:10201000050130BD5FEA4C0C404141EB010111F478
:10202000801FA4F10104E9D191F0000F04BF014623
:102030000020B1FA81F308BF2033A3F10B03B3F101
:1020400020020CDA0C3208DD02F1140CC2F10C0291
:1020500001FA0CF021FA02F10CE002F11402D8BFEF
:10206000C2F1200C01FA02F120FA0CFCDCBF41EABB
:102070000C019040E41AA2BF01EB0451294330BD8A
:102080006FEA04041F3C1CDA0C340EDC04F1140467
:10209000C4F1200220FA04F001FA02F340EA03003E
:1020A00021FA04F345EA030130BDC4F10C04C4F184
:1020B000200220FA02F001FA04F340EA0300294664
:1020C00030BD21FA04F0294630BD94F0000F83F4AE
:1020D000801306BF81F480110134013D4EE77FEA91
:1020E000645C18BF7FEA655C29D094EA050F08BFDD
:1020F00090EA020F05D054EA000C04BF19461046BE
:1021000030BD91EA030F1EBF0021002030BD5FEA01
:10211000545C05D14000494128BF41F0004130BD29
:1021200014F580043CBF01F5801130BD01F000457D
:1021300045F0FE4141F470014FF0000030BD7FEAF0
:10214000645C1ABF194610467FEA655C1CBF0B46EB
:10215000024650EA013406BF52EA033591EA030F02
:1021600041F4002130BD00BF90F0000F04BF0021FA
:10217000704730B54FF4806404F132044FF000052D
:102180004FF0000150E700BF90F0000F04BF0021A6
:10219000704730B54FF4806404F1320410F000450C
:1021A00048BF40424FF000013EE700BF42004FEA07
:1021B000E2014FEA31014FEA02701FBF12F07F4384
:1021C00093F07F4F81F06051704792F0000F14BF81
:1021D00093F07F4F704730B54FF4607401F00045C5
:1021E00021F0004120E700BF50EA010208BF70471C
:1021F00030B54FF000050AE050EA010208BF704711
:1022000030B511F0004502D5404261EB41014FF479
:10221000806404F132045FEA915C3FF4DCAE4FF07D
:1022200003025FEADC0C18BF03325FEADC0C18BF64
:10223000033202EBDC02C2F1200300FA03FC20FAB5
:1022400002F001FA03FE40EA0E0021FA02F1144402
:10225000C1E600BF70B54FF0FF0C4CF4E06C1CEA17
:1022600011541DBF1CEA135594EA0C0F95EA0C0F8C
:1022700000F0DEF82C4481EA030621EA4C5123EAFF
:102280004C5350EA013518BF52EA033541F480112E
:1022900043F4801338D0A0FB02CE4FF00005E1FBE1
:1022A00002E506F00042E0FB03E54FF00006E1FB2B
:1022B00003569CF0000F18BF4EF0010EA4F1FF046E
:1022C000B6F5007F64F5407404D25FEA4E0E6D41AE
:1022D00046EB060642EAC62141EA55514FEAC520BF
:1022E00040EA5E504FEACE2EB4F1FD0C88BFBCF53B
:1022F000E06F1ED8BEF1004F08BF5FEA500E50F1EC
:10230000000041EB045170BD06F0004646EA0101B1
:1023100040EA020081EA0301B4EB5C04C2BFD4EBE3
:102320000C0541EA045170BD41F480114FF0000EDC
:10233000013C00F3AB8014F1360FDEBF002001F04A
:10234000004170BDC4F10004203C35DA0C341BDCC4
:1023500004F11404C4F1200500FA05F320FA04F096
:1023600001FA05F240EA020001F0004221F00041CA
:1023700010EBD37021FA04F642EB06015EEA430E3D
:1023800008BF20EAD37070BDC4F10C04C4F120056D
:1023900000FA04F320FA05F001FA04F240EA020020
:1023A00001F0004110EBD37041F100015EEA430EF1
:1023B00008BF20EAD37070BDC4F1200500FA05F211
:1023C0004EEA020E20FA04F301FA05F243EA020390
:1023D00021FA04F001F0004121FA04F220EA02009F
:1023E00000EBD3705EEA430E08BF20EAD37070BDE5
:1023F00094F0000F0FD101F00046400041EB0101C5
:1024000011F4801F08BF013CF7D041EA060195F0A6
:10241000000F18BF704703F00046520043EB030360
:1024200013F4801F08BF013DF7D043EA060370474D
:1024300094EA0C0F0CEA135518BF95EA0C0F0CD058
:1024400050EA410618BF52EA4306D1D181EA03019E
:1024500001F000414FF0000070BD50EA410606BF98
:102460001046194652EA430619D094EA0C0F02D1DD
:1024700050EA013613D195EA0C0F05D152EA033622
:102480001CBF104619460AD181EA030101F0004140
:1024900041F0FE4141F470014FF0000070BD41F089
:1024A000FE4141F4780170BD70B54FF0FF0C4CF463
:1024B000E06C1CEA11541DBF1CEA135594EA0C0F82
:1024C00095EA0C0F00F0A7F8A4EB050481EA030ECF
:1024D00052EA03354FEA013100F088804FEA0333B6
:1024E0004FF0805545EA131343EA12634FEA022284
:1024F00045EA111545EA10654FEA00260EF0004145
:102500009D4208BF964244F1FD0404F5407402D296
:102510005B084FEA3202B61A65EB03055B084FEA27
:1025200032024FF480104FF4002CB6EB020E75EB24
:10253000030E22BFB61A754640EA0C005B084FEA4C
:102540003202B6EB020E75EB030E22BFB61A7546C9
:1025500040EA5C005B084FEA3202B6EB020E75EB14
:10256000030E22BFB61A754640EA9C005B084FEA8C
:102570003202B6EB020E75EB030E22BFB61A754699
:1025800040EADC0055EA060E18D04FEA051545EA88
:1025900016754FEA06164FEAC30343EA52734FEA31
:1025A000C2025FEA1C1CC0D111F4801F0BD141EAAA
:1025B00000014FF000004FF0004CB6E711F4801F0F
:1025C00004BF01430020B4F1FD0C88BFBCF5E06FEF
:1025D0003FF6AFAEB5EB030C04BFB6EB020C5FEAFF
:1025E000500C50F1000041EB045170BD0EF0004E54
:1025F0004EEA113114EB5C04C2BFD4EB0C0541EA86
:10260000045170BD41F480114FF0000E013C90E682
:1026100045EA060E8DE60CEA135594EA0C0F08BF46
:1026200095EA0C0F3FF43BAF94EA0C0F0AD150EA45
:1026300001347FF434AF95EA0C0F7FF425AF1046D8
:1026400019462CE795EA0C0F06D152EA03353FF400
:10265000FDAE1046194622E750EA410618BF52EA7D
:1026600043067FF4C5AE50EA41047FF40DAF52EA51
:1026700043057FF4EBAE12E74FEA410212F5001278
:1026800015D211D56FF47873B3EB625212D94FEAB9
:10269000C12343F0004343EA505311F0004F23FAA3
:1026A00002F018BF404270474FF00000704750EAF8
:1026B000013005D111F0004008BF6FF000407047B5
:1026C0004FF00000704700BF024B13B1024800F00A
:1026D00005B8704700000000E92600080023014605
:1026E0001A46184600F014B838B5074D074C2C1B95
:1026F000A41005D0013C55F8043D9847002CF9D1B1
:10270000BDE8384000F05CB84C04002048040020CC
:102710002DE9F047254C064625688846D5F84841FE
:1027200092469946C4B360681F2817DC411C76B1F5
:1027300004EB8003C3F888A0D4F8885101228240BA
:102740001543022EC4F88851C3F808911ED0831C8B
:102750006160002044F82380BDE8F087144B03B388
:102760004FF4C870AFF300800446D0B1D5F84831BB
:10277000002784E888003846C5F848410121C4F89C
:102780008871C4F88C71002EE1D0D1E7D4F88C3177
:102790001A43C4F88C21DAE705F5A674C5F8484158
:1027A000C1E74FF0FF30BDE8F08700BF982C00086C
:1027B00000000000F8B500BFF8BC08BC9E4670479A
:1027C000F8B500BFF8BC08BC9E467047000000008A
:1027D00000000000005F0000000007000700001478
:1027E0007F147F1400242A7F2A12002313086462B6
:1027F00000364955225000000503000000001C224D
:102800004100000041221C000014083E081400088A
:10281000083E0808000050300000000808080808BA
:10282000000060600000002010080402003E5149D2
:10283000453E0000427F4000004261514946002170
:1028400041454B31001814127F100027454545398A
:10285000003C4A49493000017109050300364949E5
:10286000493600064949291E00003636000000009E
:1028700056360000000814224100001414141414E9
:102880000000412214080002015109060032497972
:10289000413E007E1111117E007F49494936003EBC
:1028A00041414122007F4141221C007F4949494169
:1028B000007F09090901003E4149497A007F080863
:1028C000087F0000417F4100002040413F01007F20
:1028D00008142241007F40404040007F020C027FEC
:1028E000007F0408107F003E4141413E007F0909FE
:1028F0000906003E4151215E007F09192946004624
:10290000494949310001017F0101003F4040403FFA
:10291000001F2040201F003F4038403F0063140844
:10292000146300070870080700615149454300001F
:102930007F414100000204081020000041417F0057
:102940000004020102040040404040400000010237
:102950000400002054545478007F48444438003820
:102960004444442000384444487F003854545418A8
:1029700000087E090102000C5252523E007F0804FA
:1029800004780000447D4000002040443D00007F6A
:10299000102844000000417F4000007C04180478A7
:1029A000007C08040478003844444438007C141443
:1029B000140800081414187C007C0804040800485B
:1029C0005454542000043F444020003C4040207CAC
:1029D000001C2040201C003C4030403C004428109B
:1029E0002844000C5050503C004464544C440000B7
:1029F000083641000000007F00000000413608005A
:102A0000001008081008007846414678546F6F6C33
:102A10005F426F785F53544D33320000487A0000B4
:102A2000424D503138435F73656E736F7200000022
:102A300054454D50203D00002C0000004300000094
:102A400050524553535552450000000050203D0060
:102A5000500000000000000000000000005F0000C7
:102A600000000700070000147F147F1400242A7F51
:102A70002A120023130864620036495522500000D0
:102A80000503000000001C224100000041221C0040
:102A90000014083E08140008083E080800005030E2
:102AA000000000080808080800006060000000201E
:102AB00010080402003E5149453E0000427F40009C
:102AC000004261514946002141454B310018141222
:102AD0007F10002745454539003C4A4949300001EF
:102AE0007109050300364949493600064949291E3E
:102AF00000003636000000005636000000081422A0
:102B0000410000141414141400004122140800029F
:102B10000151090600324979413E007E1111117EB2
:102B2000007F49494936003E41414122007F4141F1
:102B3000221C007F49494941007F09090901003EE3
:102B40004149497A007F0808087F0000417F410021
:102B5000002040413F01007F08142241007F404097
:102B60004040007F020C027F007F0408107F003E7F
:102B70004141413E007F09090906003E4151215E65
:102B8000007F091929460046494949310001017F62
:102B90000101003F4040403F001F2040201F003FF8
:102BA0004038403F006314081463000708700807AA
:102BB00000615149454300007F4141000002040883
:102BC0001020000041417F00000402010204004087
:102BD000404040400000010204000020545454785A
:102BE000007F48444438003844444420003844447A
:102BF000487F00385454541800087E090102000C24
:102C00005252523E007F080404780000447D400088
:102C1000002040443D00007F102844000000417F18
:102C20004000007C04180478007C08040478003814
:102C300044444438007C1414140800081414187C0C
:102C4000007C0804040800485454542000043F4405
:102C50004020003C4040207C001C2040201C003CC8
:102C60004030403C004428102844000C5050503C58
:102C7000004464544C440000083641000000007FCA
:102C80000000000041360800001008081008007815
:0C2C900046414678430000001800002078
:102C9C0000000000010203040102030406070809F6
:102CAC0002040608000000000000000004030020DD
:102CBC006C030020D4030020000000000000000082
:102CCC0000000000000000000000000000000000F8
:102CDC00000000000000000000000000942C000820
:102CEC0000000000000000000000000000000000D8
:102CFC0000000000000000000000000000000000C8
:102D0C0000000000000000000000000000000000B7
:102D1C0000000000000000000000000000000000A7
:102D2C000000000000000000000000000000000097
:102D3C000000000000000000000000000000000087
:102D4C000000000000000000000000000000000077
:102D5C0001000000000000000E33CDAB34126DE614
:102D6C00ECDE05000B00000000000000000000007D
:102D7C000000000000000000000000000000000047
:102D8C000000000000000000000000000000000037
:102D9C000000000000000000000000000000000027
:102DAC000000000000000000000000000000000017
:1030DC00C9260008310100080D010008000000009D
:0400000508000000EF
:00000001FF
