:020000040800F2
:10000000080B002091050008F1050008F105000823
:10001000F1050008F1050008F105000800000000E6
:10002000000000000000000000000000F1050008D2
:10003000F105000800000000F105000801020008B9
:10004000F1050008F1050008F1050008F1050008B8
:10005000F1050008F1050008F1050008F1050008A8
:10006000F1050008F1050008F1050008F105000898
:10007000F1050008F1050008F1050008F105000888
:10008000F1050008F1050008F1050008F105000878
:10009000F1050008F1050008F1050008F105000868
:1000A000F1050008F1050008F1050008F105000858
:1000B000F1050008F1050008F1050008F105000848
:1000C000F1050008F1050008F1050008F105000838
:1000D000F1050008F1050008F1050008F105000828
:1000E000F1050008F1050008F10500080000000016
:1000F0000000000000000000000000000000000000
:1001000000000000000000005FF808F110B5054C89
:10011000237833B9044B13B10448AFF300800123B3
:10012000237010BD5004002000000000EC210008E6
:10013000084B10B51BB108490848AFF300800848C8
:10014000036803B910BD074B002BFBD0BDE810407E
:10015000184700BF0000000054040020EC210008F4
:100160004C0400200000000080B483B000AF0346C0
:100170003960FB7197F90730002B0BDA0D49FB79D9
:1001800003F00F03043B3A68D2B21201D2B20B441F
:100190001A7609E0084997F907303A68D2B2120195
:1001A000D2B20B4483F8002300BF0C37BD4680BC9D
:1001B000704700BF00ED00E000E100E080B582B0D4
:1001C00000AF78607B68B3F1807F01D3012311E039
:1001D0000A4A7B6823F07F43013B53600F214FF0B5
:1001E000FF30FFF7C1FF054B00229A60034B072247
:1001F0001A60002318460837BD4680BD10E000E0B5
:1002000080B400AF044B1B680133034A136000BF86
:10021000BD4680BC704700BFC006002080B582B0DC
:1002200000AF7860124800F0A5FE114B5B68114AE0
:10023000A2FB03239B091846FFF7C0FF0E4B0022C9
:100240009A600E4B00221A6000BF0C4B1A687B6844
:100250009A42FAD3064B5B68094AA2FB03239B0C24
:100260001846FFF7ABFF00BF0837BD4680BD00BF93
:10027000AC060020D34D621010E000E0C006002064
:1002800083DE1B4380B58AB000AFF860B9607A6046
:100290007B801C2387F827307A883B8E13439BB2E0
:1002A000BB84032387F8263007F1240319467868B6
:1002B00000F0A2F90023FB83BB687B6100233B8332
:1002C0001523BB834FF480433B844BF6FF737B8342
:1002D00007F114031946F86801F0B6F90121F8682E
:1002E00001F074FA00BF2837BD4680BD80B586B0E6
:1002F00000AFF8607B600B46FB721346BB720522B1
:100300000021404801F0CAF820213F4800F030FAAF
:1003100020213D4800F03AFA00BF4FF40031F86860
:1003200001F022FB0346002BF7D10121F86801F010
:100330006DFA00BF3549F86801F0E6FA0346002B74
:10034000F8D0FB7A00221946F86801F0BFFA00BF26
:100350002F49F86801F0D8FA0346002BF8D0BB7A91
:100360009AB2FB681A8200BF2A49F86801F0CCFAF9
:100370000346002BF8D097F82030012B02D105203E
:10038000FFF74CFF0121F86801F040FA00BF1F4958
:10039000F86801F0B9FA0346002BF8D0FB7A012285
:1003A0001946F86801F092FA00BF1B49F86801F09D
:1003B000ABFA0346002BF8D000BF1749F86801F0EC
:1003C000A3FA0346002BF8D0FB681B8A9BB2DAB273
:1003D0007B681A700021F86801F058FA0121F8686A
:1003E00001F034FA00BF4FF40031F86801F0BCFAB4
:1003F0000346002BF7D10023FB75FB7D1846183709
:10040000BD4680BD381D0008000C014001000300FE
:1004100082000700840007004000030080B500AFA1
:10042000154A154B1B6843F0010313601249124B28
:100430005A68124B13404B600F4A0F4B1B6823F056
:10044000847323F4803313600B4A0B4B1B6823F433
:1004500080231360084A084B5B6823F4FE03536053
:10046000054B4FF41F029A6000F00CF8044B4FF05C
:1004700000629A6000BF80BD001002400000FFF8DB
:1004800000ED00E080B500AF00F002F800BF80BDD5
:1004900080B483B000AF00237B6000233B603A4A06
:1004A000394B1B6843F480331360374B1B6803F4EC
:1004B00000333B607B6801337B603B68002B03D1DA
:1004C0007B68B3F5A06FF0D12F4B1B6803F40033AA
:1004D000002B02D001233B6001E000233B603B681E
:1004E000012B4BD1294A294B1B6843F010031360A1
:1004F000264A264B1B6823F003031360234A234B31
:100500001B6843F0020313601F4A1F4B5B68536074
:100510001D4A1D4B5B6853601B4A1B4B5B6843F4D1
:1005200080635360184A184B5B6823F47C13536054
:10053000154A154B5B6843F4E8135360124A124B9B
:100540001B6843F08073136000BF0F4B1B6803F000
:100550000073002BF9D00C4A0B4B5B6823F00303AC
:100560005360094A084B5B6843F00203536000BFC5
:10057000054B5B6803F00C03082BF9D100BF0C3767
:10058000BD4680BC704700BF001002400020024002
:1005900080B582B000AF114B7B60114B3B6007E030
:1005A0003B681A1D3A607A68111D796012681A60FA
:1005B0003B680C4A9342F3D30B480C494FF00002BE
:1005C0008842B8BF40F8042BFADBFFF727FF00F0A2
:1005D0004FF900BF0837BD4680BD00BFEC210008C1
:1005E00000000020500400205004002004070020D8
:1005F00080B400AFFEE700BF80B489B000AF786080
:1006000039600023FB6100233B610023BB610023B1
:10061000FB6000237B610023BB603B68DB7803F059
:100620000F03FB613B68DB7803F01003002B05D060
:100630003B689B781A46FB691343FB613B681B8848
:10064000DBB2002B44D07B681B687B610023BB615D
:1006500038E00122BB6902FA03F3FB603B681B88A8
:100660001A46FB6813403B613A69FB689A4226D1FF
:10067000BB699B00FB600F22FB6802FA03F3BB60BF
:10068000BB68DB437A6913407B61FA69FB6802FA55
:1006900003F37A6913437B613B68DB78282B05D130
:1006A0000122BB699A407B685A6108E03B68DB78AD
:1006B000482B04D10122BB699A407B681A61BB694F
:1006C0000133BB61BB69072BC3D97B687A691A60A8
:1006D0003B681B88FF2B46D97B685B687B610023E6
:1006E000BB613AE0BB690833012202FA03F3FB6005
:1006F0003B681B881A46FB6813403B613A69FB68FC
:100700009A4227D1BB699B00FB600F22FB6802FA6B
:1007100003F3BB60BB68DB437A6913407B61FA6912
:10072000FB6802FA03F37A6913437B613B68DB7869
:10073000282B05D1BB69083301229A407B685A6196
:100740003B68DB78482B05D1BB69083301229A400E
:100750007B681A61BB690133BB61BB69072BC1D9D7
:100760007B687A695A6000BF2437BD4680BC7047F9
:1007700080B483B000AF78600B467B807A887B685A
:100780001A6100BF0C37BD4680BC704780B483B08F
:1007900000AF78600B467B807A887B685A6100BF27
:1007A0000C37BD4680BC704780B483B000AF786022
:1007B0000B467B8013467B707B78002B03D07A88B6
:1007C0007B681A6102E07A887B685A6100BF0C3747
:1007D000BD4680BC704700BF80B483B000AF034605
:1007E0003960FB7197F90730002B0BDA0D49FB7963
:1007F00003F00F03043B3A68D2B21201D2B20B44A9
:100800001A7609E0084997F907303A68D2B212011E
:10081000D2B20B4483F8002300BF0C37BD4680BC26
:10082000704700BF00ED00E000E100E080B582B05D
:1008300000AF78607B68B3F1807F01D3012311E0C2
:100840000A4A7B6823F07F43013B53600F214FF03E
:10085000FF30FFF7C1FF054B00229A60034B0722D0
:100860001A60002318460837BD4680BD10E000E03E
:1008700080B590B002AF00F0CFF900F08FF900F032
:1008800095FD00220021BE4800F008FEBD4B5B68CC
:1008900001220021184600F077FE01223221BA48D9
:1008A00000F0FCFD802300934023B84AB849B948C2
:1008B000FFF7E8FC1420FFF7B1FC3A460023009351
:1008C0001346AA22EE21B348FFF710FD3B465A1CFF
:1008D000002300931346AB22EE21AE48FFF706FD3E
:1008E0003B469A1C002300931346AC22EE21A948F4
:1008F000FFF7FCFC3B46DA1C002300931346AD22B5
:10090000EE21A448FFF7F2FC3B461A1D002300939A
:100910001346AE22EE219F48FFF7E8FC3B465A1DE6
:10092000002300931346AF22EE219A48FFF7DEFC26
:100930003B469A1D002300931346B022EE219548B2
:10094000FFF7D4FC3B46DA1D002300931346B12287
:10095000EE219048FFF7CAFC3B4603F10802002352
:1009600000931346B222EE218A48FFF7BFFC3B46B4
:1009700003F10902002300931346B322EE218548B8
:10098000FFF7B4FC3B4603F10A0200230093134631
:10099000B422EE217F48FFF7A9FC3B4603F10B028E
:1009A000002300931346B522EE217A48FFF79EFC00
:1009B0003B4603F10C02002300931346B622EE21BE
:1009C0007448FFF793FC3B4603F10D0200230093AC
:1009D0001346B722EE216F48FFF788FC3B4603F130
:1009E0000E02002300931346B822EE216948FFF758
:1009F0007DFC3B4603F10F02002300931346B9220E
:100A0000EE216448FFF772FC3B4603F1100200231D
:100A100000931346BA22EE215E48FFF767FC3B467F
:100A200003F11102002300931346BB22EE21594823
:100A3000FFF75CFC3B4603F11202002300931346D0
:100A4000BC22EE215348FFF751FC3B4603F1130251
:100A5000002300931346BD22EE214E48FFF746FCCB
:100A60003B4603F11402002300931346BE22EE21FD
:100A70004848FFF73BFC3B4603F115020023009377
:100A80001346BF22EE214348FFF730FC3B781B02A0
:100A90001AB27B781BB21343FB86BB781B021AB2D7
:100AA000FB781BB21343BB863B791B021AB27B79DE
:100AB0001BB213437B86BB791B021AB2FB791BB2B4
:100AC00013431BB23B863B7A1B021AB27B7A1BB2E2
:100AD00013431BB2FB85BB7A1B021AB2FB7A1BB213
:100AE00013431BB2BB853B7B1B021AB27B7B1BB241
:100AF00013437B85BB7B1B021AB2FB7B1BB21343E8
:100B00003B853B7C1B021AB27B7C1BB21343FB84EC
:100B1000BB7C1B021AB2FB7C1BB21343BB843B7D24
:100B20001B021AB27B7D1BB213437B843B4603F14D
:100B30001602012300931346F622EE211548FFF713
:100B4000D5FB3B4603F11702012300931346F7221E
:100B5000EE211048FFF7CAFB00F0BEFCBB7D1B0274
:100B6000FA7D1344FB61002200210B4800F096FC43
:100B7000FB6900222321184600F006FDFEE700BFB6
:100B8000881F0008AC060020981F0008000C0140D8
:100B9000A0860100005400409C1F000880B582B070
:100BA00000AF4FF40041194800F010FF4FF6FF73FB
:100BB000BB801023FB710123BB713B1D19461448F8
:100BC000FFF71AFD0121124800F00AFB022110482C
:100BD00000F01AFB04210E4800F02AFB08210C4803
:100BE00000F03AFB10210A4800F04AFB1023FB708A
:100BF00020233B800323BB703B4619460548FFF783
:100C0000FBFC00BF0837BD4680BD00BF001001409F
:100C100000080140000C014080B500AF00F05EF814
:100C20004FF4803000F088F800F0B4F803461A461C
:100C3000274B1A70264B1B78012B2AD1002000F07D
:100C400029F94FF4806000F041F94FF4E06000F0C2
:100C500059F94FF4004000F071F94FF4E0114FF4EE
:100C6000803000F0BFF8012000F0DAF800BF392032
:100C700000F07CFA0346002BF9D0022000F0E0F8E7
:100C800000BF00F0F9F80346082BFAD1012000F06C
:100C90005DFA104800F06EF90E4B5B680E4AA2FB3D
:100CA00003239B091846FFF7C1FD0121042000F032
:100CB00011FA0121082000F00DFA0121102000F0A6
:100CC00009FA01214FF4001000F022FA00BF80BDA4
:100CD000E1060020AC060020D34D621080B400AFC6
:100CE000134A134B1B6843F0010313601049104B68
:100CF0005A68104B13404B600D4A0D4B1B6823F094
:100D0000847323F480331360094A094B1B6823F46E
:100D100080231360064A064B5B6823F4FE0353608E
:100D2000034B4FF41F029A6000BFBD4680BC704762
:100D3000001002400000FFF880B483B000AF78607C
:100D4000134A134B1B6823F480331360104A104B73
:100D50001B6823F4802313607B68B3F5803F03D0C6
:100D6000B3F5802F07D00DE0094A094B1B6843F407
:100D70008033136006E0064A054B1B6843F4A0234A
:100D8000136000BF00BF0C37BD4680BC704700BF7A
:100D90000010024080B582B000AF00233B6000230A
:100DA000FB710023BB71312000F0E0F90346BB71F9
:100DB0003B6801333B603B68B3F5A06F02D0BB7961
:100DC000002BF0D0312000F0D1F90346002B02D0E7
:100DD0000123FB7101E00023FB71FB791846083702
:100DE000BD4680BD80B485B000AF78603960002317
:100DF000FB600A4B5B68FB60FB6823F47C13FB60C1
:100E00007A683B681343FA681343FB60034AFB6844
:100E1000536000BF1437BD4680BC704700100240CD
:100E200080B483B000AF0346FB71044AFB791360C2
:100E300000BF0C37BD4680BC704700BF6000424217
:100E400080B485B000AF78600023FB60094B5B681D
:100E5000FB60FB6823F00303FB60FA687B681343C5
:100E6000FB60044AFB68536000BF1437BD4680BC7A
:100E7000704700BF0010024080B400AF044B5B68B5
:100E8000DBB203F00C03DBB21846BD4680BC7047F2
:100E90000010024080B485B000AF78600023FB6092
:100EA000094B5B68FB60FB6823F0F003FB60FA68AA
:100EB0007B681343FB60044AFB68536000BF143730
:100EC000BD4680BC704700BF0010024080B485B0B2
:100ED00000AF78600023FB60094B5B68FB60FB6838
:100EE00023F4E063FB60FA687B681343FB60044A09
:100EF000FB68536000BF1437BD4680BC704700BF1D
:100F00000010024080B485B000AF78600023FB6021
:100F1000094B5B68FB60FB6823F46053FB607B68F4
:100F2000DB00FA681343FB60034AFB68536000BFB1
:100F30001437BD4680BC70470010024080B485B0B5
:100F400000AF78600023FB60094B5B68FB60FB68C7
:100F500023F44043FB60FA687B681343FB60044A58
:100F6000FB68536000BF1437BD4680BC704700BFAC
:100F70000010024080B487B000AF786000237B612E
:100F800000233B610023FB600023BB604C4B5B688C
:100F900003F00C037B617B69042B07D0082B09D07D
:100FA000002B33D17B68474A1A6033E07B68454A9F
:100FB0001A602FE0424B5B6803F470133B61404BB7
:100FC0005B6803F48033FB603B699B0C02333B613D
:100FD000FB68002B06D13B693B4A02FB03F27B68AE
:100FE0001A6017E0364B5B6803F40033002B06D021
:100FF0003B69354A02FB03F27B681A600AE03B69F1
:10100000304A02FB03F27B681A6003E07B682D4ADA
:101010001A6000BF2A4B5B6803F0F0037B617B69B9
:101020001B097B61294A7B6913441B78DBB2BB60D7
:101030007B681A68BB68DA407B685A60204B5B6843
:1010400003F4E0637B617B691B0A7B611F4A7B6958
:1010500013441B78DBB2BB607B685A68BB68DA401C
:101060007B689A60164B5B6803F460537B617B6915
:10107000DB0A7B61154A7B6913441B78DBB2BB60DA
:101080007B685A68BB68DA407B68DA600C4B5B6847
:1010900003F440437B617B699B0B7B610C4A7B695A
:1010A00013441B78DBB2BB607B68DA68BB68B2FBB9
:1010B000F3F27B681A6100BF1C37BD4680BC7047E5
:1010C0000010024000127A0000093D0000000020DC
:1010D0001000002080B483B000AF78600B46FB7036
:1010E000FB78002B06D00949084B9A697B681343AB
:1010F0008B6106E00549054B9A697B68DB43134029
:101100008B6100BF0C37BD4680BC704700100240A9
:1011100080B483B000AF78600B46FB70FB78002B87
:1011200006D00949084BDA697B681343CB6106E0B6
:101130000549054BDA697B68DB431340CB6100BF8F
:101140000C37BD4680BC70470010024080B483B0AD
:1011500000AF0346FB71044AFB79136000BF0C37F4
:10116000BD4680BC704700BF4C00424280B487B08F
:1011700000AF0346FB710023FB6000237B6100236B
:10118000FB74FB795B09DBB2FB60FB68012B03D1CD
:10119000124B1B687B6109E0FB68022B03D10F4BEC
:1011A0001B6A7B6102E00D4B5B6A7B61FB7903F09C
:1011B0001F03FB607A69FB6822FA03F303F0010363
:1011C000002B02D00123FB7401E00023FB74FB7CA5
:1011D00018461C37BD4680BC704700BF0010024057
:1011E00080B483B000AF78600B467B80054A7B6893
:1011F0001360044A7B88938000BF0C37BD4680BCD7
:10120000704700BF6C04002080B483B000AF7860EA
:101210000B467B80054A7B689360044A7B889381F8
:1012200000BF0C37BD4680BC704700BF6C04002077
:1012300080B483B000AF78600B467B80054A7B6842
:101240001361044A7B88938200BF0C37BD4680BC83
:10125000704700BF6C04002080B483B000AF78609A
:101260000B467B80054A7B689361044A7B889383A5
:1012700000BF0C37BD4680BC704700BF6C04002027
:1012800080B483B000AF78600B467B80054A7B68F2
:101290001362044A7B88938400BF0C37BD4680BC30
:1012A000704700BF6C04002080B584B000AF0346D7
:1012B000FB710023FB7326E0164B9869154B998B45
:1012C000FA79FB7BC3F1070342FA03F303F001034E
:1012D000002B14BF01230023DBB21A46FFF764FA88
:1012E0000C4B186A0B4B9B8C01221946FFF75CFADA
:1012F000084B186A074B9B8C00221946FFF754FADB
:10130000FB7B0133FB73FB7B072BD5D900BF103769
:10131000BD4680BD6C04002080B582B000AF03469E
:101320000A46FB711346BB71BB79002B1CD11E4BC7
:1013300018691D4B9B8A00221946FFF735FA1A4B94
:101340009868194B9B8900221946FFF72DFAFB7903
:101350001846FFF7A9FF144B9868134B9B8901228D
:101360001946FFF721FA1BE00F4B18690E4B9B8AB9
:1013700001221946FFF718FA0B4B98680A4B9B8914
:1013800000221946FFF710FAFB791846FFF78CFF89
:10139000054B9868044B9B8901221946FFF704FA14
:1013A00000BF0837BD4680BD6C04002080B500AF8B
:1013B000174B1868164B9B8800221946FFF7F4F963
:1013C000134B1868124B9B8801221946FFF7ECF962
:1013D00000212120FFF7A0FF0021B820FFF79CFF8C
:1013E00000210420FFF798FF00211420FFF794FF4D
:1013F00000212020FFF790FF00210C20FFF78CFF39
:1014000000F06AF8034B002283F8F82100BF80BD8A
:101410006C0400209404002080B584B000AF034623
:10142000FB710023FB602DE01A4B93F8F83183F039
:101430000103DBB2002B10D0FB79A3F12002164987
:1014400013465B0013445B00CA18FB6813441B7807
:1014500001211846FFF760FF11E0FB79A3F120029C
:101460000D4913465B0013445B00CA18FB68134424
:101470001B78DB43DBB201211846FFF74DFFFB6809
:101480000133FB60FB68052BCEDD00BF1037BD4686
:1014900080BD00BF94040020A41F000880B582B066
:1014A00000AF78600B46FB701346BB70BA78FB78D0
:1014B0001146184600F02CF806E07B685A1C7A604A
:1014C0001B781846FFF7A8FF7B681B78002BF4D128
:1014D00000BF0837BD4680BD80B582B000AF002395
:1014E0007B600BE001210020FFF716FF074A7B68B5
:1014F000134400221A707B6801337B607B68B3F56C
:10150000FC7FEFDB00BF0837BD4680BD94040020A0
:1015100080B582B000AF03460A46FB711346BB712B
:10152000FB7963F07F03DBB200211846FFF7F4FE7E
:10153000BB7943F04003DBB200211846FFF7ECFE15
:1015400000BF0837BD4680BD80B485B000AF78606D
:101550000023FB737B68002B0AD101230CE07B681E
:10156000084AA2FB0323DB087B60FB7B0133FB7390
:101570007B68002BF3D1FB7B18461437BD4680BC3B
:10158000704700BFCDCCCCCC80B588B000AF7860C0
:101590000B46FB701346BB700123BB610023FB7736
:1015A0007868FFF7D1FF0346013BBB77BB7F013370
:1015B00007F120021344002203F8182C1FE07A6878
:1015C000204BA3FB0213D9080B469B000B445B0086
:1015D000D31ABB61BB7F5A1EBA771946BB69DBB20F
:1015E0003033DAB207F120030B4403F8182C7B6880
:1015F000144AA2FB0323DB087B600123FB777B6893
:10160000002BDCD17B68002B11D1FB7F002B0ED18E
:10161000BB7F07F120021344302203F8182CBA785C
:10162000F97807F108031846FFF738FF06E0BA78A3
:10163000F97807F108031846FFF730FF00BF20379D
:10164000BD4680BDCDCCCCCC80B58AB000AF786033
:1016500039600023FB8400237B840423BB84574B25
:10166000FB617B689B88FB84FB8C23F03F03FB843E
:1016700007F108031846FFF77DFC3B69FB61FB6936
:101680004F4AA2FB03239B0C7B84FA8C7B8C134375
:10169000FB847B68FA8C9A807B681B889BB223F062
:1016A00001039AB27B681A800023FB843B681B68A5
:1016B000444A934215D83B681B685B00FA69B2FB49
:1016C000F3F3BB84BB8C032B01D80423BB84FA8CBB
:1016D000BB8C1343FB847B8C01339AB27B681A84E6
:1016E00040E03B68DB884BF6FF72934209D13B68D0
:1016F0001A6813465B001344FA69B2FBF3F3BB8428
:101700000EE03B681A6813469B0013449A0013448A
:10171000FA69B2FBF3F3BB84BB8C43F48043BB8414
:10172000BB8CC3F30B03002B03D1BB8C43F0010331
:10173000BB84BA8CFB8C13439BB26FEA43436FEAC2
:101740005343FB847B8C4FF4967202FB03F31E4AD7
:1017500082FB03129211DB17D31A9BB201339AB2A8
:101760007B681A847B68FA8C9A837B681B889BB29F
:1017700043F001039AB27B681A807B681B88FB8464
:10178000FB8C23F4816323F00203FB843B689A887B
:101790003B685B8913439AB2FB8C1343FB847B68E1
:1017A000FA8C1A803B689A893B681B8913439AB26A
:1017B0007B681A8100BF2837BD4680BD00127A00C1
:1017C00083DE1B43A0860100D34D621080B483B03A
:1017D00000AF78600B46FB70FB78002B08D07B686D
:1017E0001B889BB243F001039AB27B681A8007E022
:1017F0007B681B889BB223F001039AB27B681A8036
:1018000000BF0C37BD4680BC704700BF80B483B0BA
:1018100000AF78600B46FB70FB78002B08D07B682C
:101820001B889BB243F480739AB27B681A8007E0EE
:101830007B681B889BB223F480739AB27B681A8002
:1018400000BF0C37BD4680BC704700BF80B483B07A
:1018500000AF78600B46FB70FB78002B08D07B68EC
:101860001B889BB243F400739AB27B681A8007E02E
:101870007B681B889BB223F400739AB27B681A8042
:1018800000BF0C37BD4680BC704700BF80B483B03A
:1018900000AF78600B46FB70FB78002B08D07B68AC
:1018A0001B889BB243F480639AB27B681A8007E07E
:1018B0007B681B889BB223F480639AB27B681A8092
:1018C00000BF0C37BD4680BC704700BF80B483B0FA
:1018D00000AF78600B46FB701346BB70BB78002BE3
:1018E00004D0FB7843F00103FB7003E0FB7823F0A6
:1018F0000103FB70FB789AB27B681A8200BF0C3739
:10190000BD4680BC704700BF80B487B000AF786030
:10191000396000233B610023FB600023BB60002390
:10192000FB757B689B8A9BB2FB607B681B8B9BB2C1
:10193000BB60BB681B04BB60FA68BB68134323F041
:101940007F433B613A693B681A403B689A4202D147
:101950000123FB7501E00023FB75FB7D18461C3756
:10196000BD4680BC704700BF80B487B000AF7860D0
:1019700039600023FB7500233B610023FB607B681B
:10198000FB603B681B0F3B613B6823F07F433B6080
:101990003B69002B03D0FB681433FB6005E03B6818
:1019A0001B0C3B60FB681833FB60FB681A683B68E4
:1019B0001340002B02D00123FB7501E00023FB75CF
:1019C000FB7D18461C37BD4680BC704780B483B091
:1019D00000AF78600B467B8000BF0C37BD4680BCF3
:1019E000704700BF024B13B1024800F005B87047C2
:1019F00000000000051A0008002301461A46184698
:101A000000F014B838B5074D074C2C1BA41005D0B6
:101A1000013C55F8043D9847002CF9D1BDE8384009
:101A200000F05CB84C040020480400202DE9F04789
:101A3000254C064625688846D5F848419246994681
:101A4000C4B360681F2817DC411C76B104EB800327
:101A5000C3F888A0D4F88851012282401543022E91
:101A6000C4F88851C3F808911ED0831C616000201F
:101A700044F82380BDE8F087144B03B34FF4C870DB
:101A8000AFF300800446D0B1D5F84831002784E890
:101A900088003846C5F848410121C4F88871C4F867
:101AA0008C71002EE1D0D1E7D4F88C311A43C4F800
:101AB0008C21DAE705F5A674C5F84841C1E74FF077
:101AC000FF30BDE8F08700BFE821000800000000FB
:101AD000F8B500BFF8BC08BC9E467047F8B500BF1B
:101AE000F8BC08BC9E4670470000000000000000E3
:101AF000005F000000000700070000147F147F143F
:101B000000242A7F2A1200231308646200364955F4
:101B1000225000000503000000001C2241000000CC
:101B200041221C000014083E08140008083E080862
:101B3000000050300000000808080808000060603D
:101B40000000002010080402003E5149453E0000FC
:101B5000427F4000004261514946002141454B31DE
:101B6000001814127F10002745454539003C4A49AA
:101B7000493000017109050300364949493600061C
:101B80004949291E00003636000000005636000084
:101B900000081422410000141414141400004122FF
:101BA000140800020151090600324979413E007EC5
:101BB0001111117E007F49494936003E41414122C1
:101BC000007F4141221C007F49494941007F0909AA
:101BD0000901003E4149497A007F0808087F00005A
:101BE000417F4100002040413F01007F0814224115
:101BF000007F40404040007F020C027F007F0408CD
:101C0000107F003E4141413E007F09090906003E28
:101C10004151215E007F0919294600464949493151
:101C20000001017F0101003F4040403F001F204074
:101C3000201F003F4038403F006314081463000732
:101C40000870080700615149454300007F41410089
:101C5000000204081020000041417F00000402013E
:101C60000204004040404040000001020400002007
:101C700054545478007F4844443800384444442045
:101C800000384444487F00385454541800087E09F2
:101C90000102000C5252523E007F080404780000FA
:101CA000447D4000002040443D00007F1028440057
:101CB0000000417F4000007C04180478007C080488
:101CC0000478003844444438007C14141408000894
:101CD0001414187C007C0804040800485454542050
:101CE00000043F444020003C4040207C001C204039
:101CF000201C003C4030403C004428102844000C8C
:101D00005050503C004464544C440000083641009C
:101D10000000007F000000004136080000100808A5
:101D200010080078464146784932435F577269741B
:101D30006520696E202000004932435F526561646E
:101D400020696E200000000000000000000000007C
:101D5000005F000000000700070000147F147F14DC
:101D600000242A7F2A120023130864620036495592
:101D7000225000000503000000001C22410000006A
:101D800041221C000014083E08140008083E080800
:101D900000005030000000080808080800006060DB
:101DA0000000002010080402003E5149453E00009A
:101DB000427F4000004261514946002141454B317C
:101DC000001814127F10002745454539003C4A4948
:101DD00049300001710905030036494949360006BA
:101DE0004949291E00003636000000005636000022
:101DF000000814224100001414141414000041229D
:101E0000140800020151090600324979413E007E62
:101E10001111117E007F49494936003E414141225E
:101E2000007F4141221C007F49494941007F090947
:101E30000901003E4149497A007F0808087F0000F7
:101E4000417F4100002040413F01007F08142241B2
:101E5000007F40404040007F020C027F007F04086A
:101E6000107F003E4141413E007F09090906003EC6
:101E70004151215E007F09192946004649494931EF
:101E80000001017F0101003F4040403F001F204012
:101E9000201F003F4038403F0063140814630007D0
:101EA0000870080700615149454300007F41410027
:101EB000000204081020000041417F0000040201DC
:101EC00002040040404040400000010204000020A5
:101ED00054545478007F48444438003844444420E3
:101EE00000384444487F00385454541800087E0990
:101EF0000102000C5252523E007F08040478000098
:101F0000447D4000002040443D00007F10284400F4
:101F10000000417F4000007C04180478007C080425
:101F20000478003844444438007C14141408000831
:101F30001414187C007C08040408004854545420ED
:101F400000043F444020003C4040207C001C2040D6
:101F5000201C003C4030403C004428102844000C29
:101F60005050503C004464544C440000083641003A
:101F70000000007F00000000413608000010080843
:101F80001008007846414678546F6F6C5F426F7856
:101F90005F53544D33320000487A000054454D5091
:101FA000203D00000000000000000000005F000075
:101FB00000000700070000147F147F1400242A7F0C
:101FC0002A1200231308646200364955225000008B
:101FD0000503000000001C224100000041221C00FB
:101FE0000014083E08140008083E0808000050309D
:101FF00000000008080808080000606000000020D9
:1020000010080402003E5149453E0000427F400056
:10201000004261514946002141454B3100181412DC
:102020007F10002745454539003C4A4949300001A9
:102030007109050300364949493600064949291EF8
:10204000000036360000000056360000000814225A
:10205000410000141414141400004122140800025A
:102060000151090600324979413E007E1111117E6D
:10207000007F49494936003E41414122007F4141AC
:10208000221C007F49494941007F09090901003E9E
:102090004149497A007F0808087F0000417F4100DC
:1020A000002040413F01007F08142241007F404052
:1020B0004040007F020C027F007F0408107F003E3A
:1020C0004141413E007F09090906003E4151215E20
:1020D000007F091929460046494949310001017F1D
:1020E0000101003F4040403F001F2040201F003FB3
:1020F0004038403F00631408146300070870080765
:1021000000615149454300007F414100000204083D
:102110001020000041417F00000402010204004041
:102120004040404000000102040000205454547814
:10213000007F484444380038444444200038444434
:10214000487F00385454541800087E090102000CDE
:102150005252523E007F080404780000447D400043
:10216000002040443D00007F102844000000417FD3
:102170004000007C04180478007C080404780038CF
:1021800044444438007C1414140800081414187CC7
:10219000007C0804040800485454542000043F44C0
:1021A0004020003C4040207C001C2040201C003C83
:1021B0004030403C004428102844000C5050503C13
:1021C000004464544C440000083641000000007F85
:1021D00000000000413608000010080810080078D0
:0C21E00046414678430000001800002033
:1021EC0000000000010203040102030406070809B1
:1021FC000204060800000000000000000403002098
:10220C006C030020D403002000000000000000003C
:10221C0000000000000000000000000000000000B2
:10222C00000000000000000000000000E421000895
:10223C000000000000000000000000000000000092
:10224C000000000000000000000000000000000082
:10225C000000000000000000000000000000000072
:10226C000000000000000000000000000000000062
:10227C000000000000000000000000000000000052
:10228C000000000000000000000000000000000042
:10229C000000000000000000000000000000000032
:1022AC0001000000000000000E33CDAB34126DE6CF
:1022BC00ECDE05000B000000000000000000000038
:1022CC000000000000000000000000000000000002
:1022DC0000000000000000000000000000000000F2
:1022EC0000000000000000000000000000000000E2
:1022FC0000000000000000000000000000000000D2
:10262C00E5190008310100080D0100080000000048
:0400000508000000EF
:00000001FF
