:020000040800F2
:10000000E80A0020F50A0008550B0008550B000807
:10001000550B0008550B0008550B000800000000A8
:10002000000000000000000000000000550B000868
:10003000550B000800000000550B000801020008E5
:10004000550B0008550B0008550B0008550B000810
:10005000550B0008550B0008550B0008550B000800
:10006000550B0008550B0008550B0008550B0008F0
:10007000550B0008550B0008550B0008550B0008E0
:10008000550B0008550B0008550B0008550B0008D0
:10009000550B0008550B0008550B0008550B0008C0
:1000A000550B0008550B0008550B0008550B0008B0
:1000B000550B0008550B0008550B0008550B0008A0
:1000C000550B0008550B0008550B0008550B000890
:1000D000550B0008550B0008550B0008550B000880
:1000E000550B0008550B0008550B000800000000D8
:1000F0000000000000000000000000000000000000
:1001000000000000000000005FF808F110B5054C89
:10011000237833B9044B13B10448AFF300800123B3
:10012000237010BD50040020000000006C1F000868
:10013000084B10B51BB108490848AFF300800848C8
:10014000036803B910BD074B002BFBD0BDE810407E
:10015000184700BF00000000540400206C1F000876
:100160004C0400200000000080B483B000AF0346C0
:100170003960FB7197F90730002B0BDA0D49FB79D9
:1001800003F00F03043B3A68D2B21201D2B20B441F
:100190001A7609E0084997F907303A68D2B2120195
:1001A000D2B20B4483F8002300BF0C37BD4680BC9D
:1001B000704700BF00ED00E000E100E080B582B0D4
:1001C00000AF78607B68B3F1807F01D3012311E039
:1001D0000A4A7B6823F07F43013B53600F214FF0B5
:1001E000FF30FFF7C1FF054B00229A60034B072247
:1001F0001A60002318460837BD4680BD10E000E0B5
:1002000080B400AF044B1B680133034A136000BF86
:10021000BD4680BC704700BFA406002080B582B0F8
:1002200000AF7860124800F007FF114B5B68114A7D
:10023000A2FB03239B091846FFF7C0FF0E4B0022C9
:100240009A600E4B00221A6000BF0C4B1A687B6844
:100250009A42FAD3064B5B68094AA2FB03239B0C24
:100260001846FFF7ABFF00BF0837BD4680BD00BF93
:1002700090060020D34D621010E000E0A40600209C
:1002800083DE1B4380B483B000AF7860084B00224C
:100290009A60084B00221A6000BF064B1A687B6800
:1002A0009A42FAD300BF0C37BD4680BC704700BFEE
:1002B00010E000E0A406002080B582B000AF7860B6
:1002C000144800F0B9FE134B5B68134AA2FB0323EA
:1002D0009B091846FFF772FF104B00229A60104BE3
:1002E00000221A6000BF7B684FF47A7202FB03F2AF
:1002F0000B4B1B689A42F6D8064B5B68094AA2FB77
:1003000003239B0C1846FFF759FF00BF0837BD4673
:1003100080BD00BF90060020D34D621010E000E0C9
:10032000A406002083DE1B4380B483B000AF786056
:100330007B681B78002B06D07B6802337A68023218
:10034000043212781A707B681B78012B06D97B68FF
:1003500007337A680732043212781A707B681B7888
:10036000022B06D97B680C337A680C32043212787F
:100370001A707B681B78032B06D97B6811337A6867
:100380001132043212781A707B681B78042B06D95C
:100390007B6816337A681632043212781A7000BFFE
:1003A0000C37BD4680BC704780B485B000AF786024
:1003B0007B681B78002B06D07B68023304337A6895
:1003C000023212781A707B681B78012B06D97B6881
:1003D000073304337A68073212781A707B681B7807
:1003E000022B06D97B680C3304337A680C321278FE
:1003F0001A707B681B78032B06D97B681133043392
:100400007A68113212781A707B681B78032B07D137
:100410007B68D3F802207B68D3F807301340FB6079
:100420007B681B78042B0AD17B68D3F802207B6899
:10043000D3F807301A407B68DB681340FB607B68A9
:100440001B78052B0ED17B68D3F802207B68D3F88C
:1004500007301A407B68DB681A407B68D3F811309C
:100460001340FB607B681B78042B04D97B68163330
:1004700004333A7B1A7000BF1437BD4680BC704706
:1004800080B485B000AF78607B681B78032B07D100
:100490007B68D3F802207B68D3F807301340FB60F9
:1004A0007B681B78042B0AD17B68D3F802207B6819
:1004B000D3F807301A407B68DB681340FB607B6829
:1004C0001B78052B0ED17B68D3F802207B68D3F80C
:1004D00007301A407B68DB681A407B68D3F811301C
:1004E0001340FB607B68D3F81620FB689A4201D169
:1004F000034B00E0034B18461437BD4680BC7047E1
:10050000941A0008981A000880B485B000AFF8600B
:100510000B467A60FB72FB7A002B0AD17B685BB2D8
:10052000DB015BB2DB1159B2FA68937961F3C7134F
:100530009371FB7A012B0AD17B685BB2DB015BB262
:10054000DB1159B2FA68937961F386139371FB7AE0
:10055000022B0AD17B685BB2DB015BB2DB1159B2C3
:10056000FA68937961F345139371FB7A032B0AD1EF
:100570007B685BB2DB015BB2DB1159B2FA6893793D
:1005800061F304139371FB7A042B0AD17B685BB28D
:10059000DB015BB2DB1159B2FA68937961F3C303F3
:1005A0009371FB7A052B0AD17B685BB2DB015BB2EE
:1005B000DB1159B2FA68937961F382039371FB7A84
:1005C000062B0AD17B685BB2DB015BB2DB1159B24F
:1005D000FA68937961F341039371FB7A072B0AD18F
:1005E0007B685BB2DB015BB2DB1159B2FA689379CD
:1005F00061F300039371FB7A082B0AD17B685BB22D
:10060000DB015BB2DB1159B2FA68D37A61F3C7132D
:10061000D372FB7A092B0AD17B685BB2DB015BB238
:10062000DB1159B2FA68D37A61F38613D372FB7A7D
:100630000A2B0AD17B685BB2DB015BB2DB1159B2DA
:10064000FA68D37A61F34513D372FB7A0B2B0AD184
:100650007B685BB2DB015BB2DB1159B2FA68D37A1B
:1006600061F30413D372FB7A0C2B0AD17B685BB263
:10067000DB015BB2DB1159B2FA68D37A61F3C303D1
:10068000D372FB7A0D2B0AD17B685BB2DB015BB2C4
:10069000DB1159B2FA68D37A61F38203D372FB7A21
:1006A0000E2B0AD17B685BB2DB015BB2DB1159B266
:1006B000FA68D37A61F34103D372FB7A0F2B0AD124
:1006C0007B685BB2DB015BB2DB1159B2FA68D37AAB
:1006D00061F30003D372FB7A102B0AD17B685BB203
:1006E000DB015BB2DB1159B2FA68137C61F3C7130B
:1006F0001374FB7A112B0AD17B685BB2DB015BB20E
:10070000DB1159B2FA68137C61F386131374FB7A18
:10071000122B0AD17B685BB2DB015BB2DB1159B2F1
:10072000FA68137C61F345131374FB7A132B0AD117
:100730007B685BB2DB015BB2DB1159B2FA68137CF8
:1007400061F304131374FB7A142B0AD17B685BB238
:10075000DB015BB2DB1159B2FA68137C61F3C303AE
:100760001374FB7A152B0AD17B685BB2DB015BB299
:10077000DB1159B2FA68137C61F382031374FB7ABC
:10078000162B0AD17B685BB2DB015BB2DB1159B27D
:10079000FA68137C61F341031374FB7A172B0AD1B7
:1007A0007B685BB2DB015BB2DB1159B2FA68137C88
:1007B00061F300031374FB7A182B0AD17B685BB2D8
:1007C000DB015BB2DB1159B2FA68937E61F300037F
:1007D0009376FB7A192B0AD17B685BB2DB015BB2A3
:1007E000DB1159B2FA68537D61F386135375FB7AB6
:1007F0001A2B0AD17B685BB2DB015BB2DB1159B209
:10080000FA68537D61F345135375FB7A1B2B0AD1AC
:100810007B685BB2DB015BB2DB1159B2FA68537DD6
:1008200061F304135375FB7A1C2B0AD17B685BB20E
:10083000DB015BB2DB1159B2FA68537D61F3C3038C
:100840005375FB7A1D2B0AD17B685BB2DB015BB26F
:10085000DB1159B2FA68537D61F382035375FB7A59
:100860001E2B0AD17B685BB2DB015BB2DB1159B294
:10087000FA68537D61F341035375FB7A1F2B0AD14C
:100880007B685BB2DB015BB2DB1159B2FA68537D66
:1008900061F300035375FB7A202B0AD17B685BB2AE
:1008A000DB015BB2DB1159B2FA68D37E61F300035E
:1008B000D376FB7A212B0AD17B685BB2DB015BB27A
:1008C000DB1159B2FA68937E61F3C7139376FB7A12
:1008D000222B0AD17B685BB2DB015BB2DB1159B220
:1008E000FA68937E61F386139376FB7A232B0AD101
:1008F0007B685BB2DB015BB2DB1159B2FA68937EB5
:1009000061F345139376FB7A242B0AD17B685BB2A3
:10091000DB015BB2DB1159B2FA68937E61F3041319
:100920009376FB7A252B0AD17B685BB2DB015BB245
:10093000DB1159B2FA68937E61F3C3039376FB7AB5
:10094000262B0AD17B685BB2DB015BB2DB1159B2AB
:10095000FA68937E61F382039376FB7A272B0AD1A0
:100960007B685BB2DB015BB2DB1159B2FA68937E44
:1009700061F34103937600BF1437BD4680BC7047D6
:1009800080B500AF154A154B1B6843F00103136097
:100990001249124B5A68124B13404B600F4A0F4BCF
:1009A0001B6823F0847323F4803313600B4A0B4BD2
:1009B0001B6823F480231360084A084B5B6823F408
:1009C000FE035360054B4FF41F029A6000F00CF8D1
:1009D000044B4FF000629A6000BF80BD00100240DF
:1009E0000000FFF800ED00E080B500AF00F002F875
:1009F00000BF80BD80B483B000AF00237B600023C4
:100A00003B603A4A394B1B6843F480331360374BE1
:100A10001B6803F400333B607B6801337B603B68F9
:100A2000002B03D17B68B3F5A06FF0D12F4B1B686F
:100A300003F40033002B02D001233B6001E00023CC
:100A40003B603B68012B4BD1294A294B1B6843F083
:100A500010031360264A264B1B6823F00303136020
:100A6000234A234B1B6843F0020313601F4A1F4BAA
:100A70005B6853601D4A1D4B5B6853601B4A1B4BF0
:100A80005B6843F480635360184A184B5B6823F437
:100A90007C135360154A154B5B6843F4E8135360AD
:100AA000124A124B1B6843F08073136000BF0F4B58
:100AB0001B6803F00073002BF9D00C4A0B4B5B68EA
:100AC00023F003035360094A084B5B6843F00203B9
:100AD000536000BF054B5B6803F00C03082BF9D192
:100AE00000BF0C37BD4680BC704700BF00100240FD
:100AF0000020024080B582B000AF114B7B60114BEB
:100B00003B6007E03B681A1D3A607A68111D796006
:100B100012681A603B680C4A9342F3D30B480C49A5
:100B20004FF000028842B8BF40F8042BFADBFFF711
:100B300027FF00F04FF900BF0837BD4680BD00BF5A
:100B40006C1F00080000002050040020500400200A
:100B5000E806002080B400AFFEE700BF80B489B093
:100B600000AF786039600023FB6100233B61002304
:100B7000BB610023FB6000237B610023BB603B68FB
:100B8000DB7803F00F03FB613B68DB7803F01003B5
:100B9000002B05D03B689B781A46FB691343FB6129
:100BA0003B681B88DBB2002B44D07B681B687B61F1
:100BB0000023BB6138E00122BB6902FA03F3FB604A
:100BC0003B681B881A46FB6813403B613A69FB6827
:100BD0009A4226D1BB699B00FB600F22FB6802FA98
:100BE00003F3BB60BB68DB437A6913407B61FA693E
:100BF000FB6802FA03F37A6913437B613B68DB7895
:100C0000282B05D10122BB699A407B685A6108E014
:100C10003B68DB78482B04D10122BB699A407B6892
:100C20001A61BB690133BB61BB69072BC3D97B6800
:100C30007A691A603B681B88FF2B46D97B685B6822
:100C40007B610023BB613AE0BB690833012202FAF1
:100C500003F3FB603B681B881A46FB6813403B614B
:100C60003A69FB689A4227D1BB699B00FB600F225F
:100C7000FB6802FA03F3BB60BB68DB437A6913408D
:100C80007B61FA69FB6802FA03F37A6913437B61BB
:100C90003B68DB78282B05D1BB69083301229A40D9
:100CA0007B685A613B68DB78482B05D1BB69083308
:100CB00001229A407B681A61BB690133BB61BB6941
:100CC000072BC1D97B687A695A6000BF2437BD46BB
:100CD00080BC704780B483B000AF78600B467B80E7
:100CE0007A887B681A6100BF0C37BD4680BC7047AC
:100CF00080B483B000AF78600B467B807A887B68D5
:100D00005A6100BF0C37BD4680BC704780B483B0C9
:100D100000AF78600B467B8013467B707B78002B9E
:100D200003D07A887B681A6102E07A887B685A610E
:100D300000BF0C37BD4680BC704700BF80B483B095
:100D400000AF03463960FB7197F90730002B0BDACF
:100D50000D49FB7903F00F03043B3A68D2B212014C
:100D6000D2B20B441A7609E0084997F907303A687D
:100D7000D2B21201D2B20B4483F8002300BF0C3769
:100D8000BD4680BC704700BF00ED00E000E100E020
:100D900080B582B000AF78607B68B3F1807F01D30B
:100DA000012311E00A4A7B6823F07F43013B536033
:100DB0000F214FF0FF30FFF7C1FF054B00229A6073
:100DC000034B07221A60002318460837BD4680BD32
:100DD00010E000E080B500AF00F0F4F800F0B0F8EB
:100DE00000F0DEFA00220021494800F051FB494B97
:100DF0005B6801220021184600F0C0FB012232216D
:100E0000454800F045FB0120FFF756FA434B052209
:100E10001A70424B08225A70414B05221A70404BFF
:100E200008225A703E4B002242F001029A700022C2
:100E3000DA7000221A7100225A71394B002242F0F6
:100E40000202DA7100221A7200225A7200229A7289
:100E5000334B002242F004021A7300225A7300221C
:100E60009A730022DA732E4B002242F008025A7461
:100E700000229A740022DA7400221A752848FFF7BB
:100E800093FA00F0C3F820212648FFF723FF00F073
:100E90001DFB00220021244800F0FAFA0222002162
:100EA000224800F0F5FA1D4BD3F80230022214213B
:100EB000184600F063FB022223211D4800F0E8FAE7
:100EC000032200211B4800F0E3FA144BDB680322E5
:100ED0001421184600F052FB03222321164800F08B
:100EE000D7FA05220021154800F0D2FA0B48FFF787
:100EF000C7FA034605221921184600F0C9FA202135
:100F00000848FFF7F5FE0120FFF7D6F9B9E700BF63
:100F1000E01C000890060020F01C0008C806002015
:100F2000A8060020000C0140F41C0008041D000865
:100F30000C1D0008101D0008181D00081C1D0008CD
:100F400080B582B000AF4FF400411B4800F0ECFBCD
:100F50004FF48041184800F0E7FB4FF6FF73BB8069
:100F60001023FB710123BB713B1D19461348FFF78A
:100F7000F5FD0121114800F02DF902210F4800F084
:100F80003DF904210D4800F04DF908210B4800F00F
:100F90005DF91021094800F06DF91023FB70202342
:100FA0003B800323BB703B4619460548FFF7D6FD3F
:100FB00000BF0837BD4680BD001001400008014059
:100FC000000C014080B500AF0E4800F035F80D4B25
:100FD0005B680D4AA2FB03239B091846FFF7D8FE66
:100FE0000121042000F0D8F80121082000F0D4F8F5
:100FF0000121102000F0D0F80121202000F0CCF8D1
:1010000000BF80BD90060020D34D621080B500AFB8
:101010004FF40041064800F011FB064A4FF400412E
:10102000034800F02DFB0348FFF77EF900BF80BDA9
:1010300000100140C806002080B487B000AF78607F
:1010400000237B6100233B610023FB600023BB6026
:101050004C4B5B6803F00C037B617B69042B07D06E
:10106000082B09D0002B33D17B68474A1A6033E044
:101070007B68454A1A602FE0424B5B6803F47013AB
:101080003B61404B5B6803F48033FB603B699B0C26
:1010900002333B61FB68002B06D13B693B4A02FBF4
:1010A00003F27B681A6017E0364B5B6803F4003389
:1010B000002B06D03B69354A02FB03F27B681A60BD
:1010C0000AE03B69304A02FB03F27B681A6003E0E6
:1010D0007B682D4A1A6000BF2A4B5B6803F0F0035F
:1010E0007B617B691B097B61294A7B6913441B78FF
:1010F000DBB2BB607B681A68BB68DA407B685A6009
:10110000204B5B6803F4E0637B617B691B0A7B61B6
:101110001F4A7B6913441B78DBB2BB607B685A684B
:10112000BB68DA407B689A60164B5B6803F46053D7
:101130007B617B69DB0A7B61154A7B6913441B7801
:10114000DBB2BB607B685A68BB68DA407B68DA60F8
:101150000C4B5B6803F440437B617B699B0B7B61B9
:101160000C4A7B6913441B78DBB2BB607B68DA688E
:10117000BB68B2FBF3F27B681A6100BF1C37BD4647
:1011800080BC70470010024000127A0000093D0048
:10119000000000201000002080B483B000AF786011
:1011A0000B46FB70FB78002B06D00949084B9A6967
:1011B0007B6813438B6106E00549054B9A697B68A0
:1011C000DB4313408B6100BF0C37BD4680BC7047CA
:1011D0000010024080B483B000AF78600B467B8083
:1011E000054A7B681360044A7B88938000BF0C37F4
:1011F000BD4680BC704700BF6C04002080B483B043
:1012000000AF78600B467B80054A7B689360044A98
:101210007B88938100BF0C37BD4680BC704700BF00
:101220006C04002080B483B000AF78600B467B80F4
:10123000054A7B681361044A7B88938200BF0C37A0
:10124000BD4680BC704700BF6C04002080B483B0F2
:1012500000AF78600B467B80054A7B689361044A47
:101260007B88938300BF0C37BD4680BC704700BFAE
:101270006C04002080B483B000AF78600B467B80A4
:10128000054A7B681362044A7B88938400BF0C374D
:10129000BD4680BC704700BF6C04002080B584B0A0
:1012A00000AF0346FB710023FB7326E0164B9869E1
:1012B000154B998BFA79FB7BC3F1070342FA03F3D1
:1012C00003F00103002B14BF01230023DBB21A46F5
:1012D000FFF71CFD0C4B186A0B4B9B8C0122194627
:1012E000FFF714FD084B186A074B9B8C0022194628
:1012F000FFF70CFDFB7B0133FB73FB7B072BD5D981
:1013000000BF1037BD4680BD6C04002080B582B0A0
:1013100000AF03460A46FB711346BB71BB79002B35
:101320001CD11E4B18691D4B9B8A00221946FFF7E2
:10133000EDFC1A4B9868194B9B8900221946FFF760
:10134000E5FCFB791846FFF7A9FF144B9868134B8F
:101350009B8901221946FFF7D9FC1BE00F4B186946
:101360000E4B9B8A01221946FFF7D0FC0B4B986865
:101370000A4B9B8900221946FFF7C8FCFB791846E7
:10138000FFF78CFF054B9868044B9B890122194697
:10139000FFF7BCFC00BF0837BD4680BD6C040020D1
:1013A00080B500AF174B1868164B9B880022194672
:1013B000FFF7ACFC134B1868124B9B8801221946AF
:1013C000FFF7A4FC00212120FFF7A0FF0021B82097
:1013D000FFF79CFF00210420FFF798FF0021142055
:1013E000FFF794FF00212020FFF790FF00210C2041
:1013F000FFF78CFF00F06AF8034B002283F8F82116
:1014000000BF80BD6C0400209404002080B584B02F
:1014100000AF0346FB710023FB602DE01A4B93F8ED
:10142000F83183F00103DBB2002B10D0FB79A3F17C
:101430002002164913465B0013445B00CA18FB6880
:1014400013441B7801211846FFF760FF11E0FB7978
:10145000A3F120020D4913465B0013445B00CA1838
:10146000FB6813441B78DB43DBB201211846FFF70E
:101470004DFFFB680133FB60FB68052BCEDD00BF31
:101480001037BD4680BD00BF94040020241D000815
:1014900080B582B000AF78600B46FB701346BB701E
:1014A000BA78FB781146184600F02CF806E07B6805
:1014B0005A1C7A601B781846FFF7A8FF7B681B78D8
:1014C000002BF4D100BF0837BD4680BD80B582B087
:1014D00000AF00237B600BE001210020FFF716FF27
:1014E000074A7B68134400221A707B6801337B60D3
:1014F0007B68B3F5FC7FEFDB00BF0837BD4680BDDE
:101500009404002080B582B000AF03460A46FB7108
:101510001346BB71FB7963F07F03DBB200211846F1
:10152000FFF7F4FEBB7943F04003DBB2002118461D
:10153000FFF7ECFE00BF0837BD4680BD80B485B024
:1015400000AF78600023FB737B68002B0AD1012376
:101550000CE07B68084AA2FB0323DB087B60FB7B73
:101560000133FB737B68002BF3D1FB7B18461437E8
:10157000BD4680BC704700BFCDCCCCCC80B588B018
:1015800000AF78600B46FB701346BB700123BB6154
:101590000023FB777868FFF7D1FF0346013BBB7759
:1015A000BB7F013307F120021344002203F8182CFB
:1015B0001FE07A68204BA3FB0213D9080B469B005F
:1015C0000B445B00D31ABB61BB7F5A1EBA77194626
:1015D000BB69DBB23033DAB207F120030B4403F806
:1015E000182C7B68144AA2FB0323DB087B600123D1
:1015F000FB777B68002BDCD17B68002B11D1FB7F54
:10160000002B0ED1BB7F07F120021344302203F8D8
:10161000182CBA78F97807F108031846FFF738FF55
:1016200006E0BA78F97807F108031846FFF730FFAB
:1016300000BF2037BD4680BDCDCCCCCC80B582B0BC
:1016400000AF78600B467B800B4B0C4A5A600A4B0C
:1016500000229A601220FEF7E1FD074B4FF0443262
:101660005A60054B4FF400429A600820FEF70AFECC
:1016700000BF0837BD4680BD00100140444444848B
:1016800080B586B000AFF8600B467A607B8100BF02
:10169000FB689A687B891340002BF9D19620FEF7EE
:1016A000F1FD00BFFB689A687B891340002BF9D1DC
:1016B0000023FB7527E000BFFB689A687B89134015
:1016C000002BF9D02820FEF7DDFDFB689A687B89A6
:1016D0001340002B0DD0FB7D012219467868FEF7E0
:1016E00013FF00BFFB689A687B891340002BF9D178
:1016F00006E0FB7D002219467868FEF705FF00BF73
:10170000FB7D0133FB75FA7D7B681B7819467B688E
:101710001B7803FB01F39A42CDDB3620FEF7B2FDC6
:1017200000BF1837BD4680BD80B584B000AF78607B
:101730000B467B800423FB737B88BB8107F10C0382
:1017400019467868FFF70AFA00BF1037BD4680BD1A
:10175000024B13B1024800F005B8704700000000CA
:1017600071170008002301461A46184600F014B805
:1017700038B5074D074C2C1BA41005D0013C55F87B
:10178000043D9847002CF9D1BDE8384000F05CB822
:101790004C040020480400202DE9F047254C064663
:1017A00025688846D5F8484192469946C4B3606892
:1017B0001F2817DC411C76B104EB8003C3F888A016
:1017C000D4F88851012282401543022EC4F8885172
:1017D000C3F808911ED0831C6160002044F8238068
:1017E000BDE8F087144B03B34FF4C870AFF300802B
:1017F0000446D0B1D5F84831002784E8880038463F
:10180000C5F848410121C4F88871C4F88C71002ED4
:10181000E1D0D1E7D4F88C311A43C4F88C21DAE74F
:1018200005F5A674C5F84841C1E74FF0FF30BDE8A3
:10183000F08700BF681F000800000000F8B500BF77
:10184000F8BC08BC9E467047F8B500BFF8BC08BCA1
:101850009E4670470000000000000000005F00008E
:1018600000000700070000147F147F1400242A7F63
:101870002A120023130864620036495522500000E2
:101880000503000000001C224100000041221C0052
:101890000014083E08140008083E080800005030F4
:1018A0000000000808080808000060600000002030
:1018B00010080402003E5149453E0000427F4000AE
:1018C000004261514946002141454B310018141234
:1018D0007F10002745454539003C4A494930000101
:1018E0007109050300364949493600064949291E50
:1018F00000003636000000005636000000081422B2
:1019000041000014141414140000412214080002B1
:101910000151090600324979413E007E1111117EC4
:10192000007F49494936003E41414122007F414103
:10193000221C007F49494941007F09090901003EF5
:101940004149497A007F0808087F0000417F410033
:10195000002040413F01007F08142241007F4040A9
:101960004040007F020C027F007F0408107F003E91
:101970004141413E007F09090906003E4151215E77
:10198000007F091929460046494949310001017F74
:101990000101003F4040403F001F2040201F003F0A
:1019A0004038403F006314081463000708700807BC
:1019B00000615149454300007F4141000002040895
:1019C0001020000041417F00000402010204004099
:1019D000404040400000010204000020545454786C
:1019E000007F48444438003844444420003844448C
:1019F000487F00385454541800087E090102000C36
:101A00005252523E007F080404780000447D40009A
:101A1000002040443D00007F102844000000417F2A
:101A20004000007C04180478007C08040478003826
:101A300044444438007C1414140800081414187C1E
:101A4000007C0804040800485454542000043F4417
:101A50004020003C4040207C001C2040201C003CDA
:101A60004030403C004428102844000C5050503C6A
:101A7000004464544C440000083641000000007FDC
:101A80000000000041360800001008081008007827
:101A9000464146784F4B00004552524F52000000DD
:101AA0000000000000000000005F000000000700D0
:101AB000070000147F147F1400242A7F2A120023B9
:101AC00013086462003649552250000005030000E7
:101AD00000001C224100000041221C000014083EAE
:101AE00008140008083E08080000503000000008F4
:101AF00008080808000060600000002010080402C8
:101B0000003E5149453E0000427F40000042615185
:101B10004946002141454B31001814127F1000271F
:101B200045454539003C4A494930000171090503E2
:101B300000364949493600064949291E0000363613
:101B40000000000056360000000814224100001476
:101B50001414141400004122140800020151090653
:101B600000324979413E007E1111117E007F4949C2
:101B70004936003E41414122007F4141221C007F05
:101B800049494941007F09090901003E4149497A13
:101B9000007F0808087F0000417F4100002040418D
:101BA0003F01007F08142241007F40404040007FF9
:101BB000020C027F007F0408107F003E4141413E3D
:101BC000007F09090906003E4151215E007F091985
:101BD00029460046494949310001017F0101003F82
:101BE0004040403F001F2040201F003F4038403F02
:101BF0000063140814630007087008070061514966
:101C0000454300007F41410000020408102000000D
:101C100041417F0000040201020400404040404076
:101C2000000001020400002054545478007F48440E
:101C3000443800384444442000384444487F003845
:101C40005454541800087E090102000C5252523EAE
:101C5000007F080404780000447D400000204044D8
:101C60003D00007F102844000000417F4000007CC0
:101C700004180478007C080404780038444444388C
:101C8000007C1414140800081414187C007C080448
:101C9000040800485454542000043F444020003CB1
:101CA0004040207C001C2040201C003C4030403C38
:101CB000004428102844000C5050503C0044645408
:101CC0004C440000083641000000007F0000000086
:101CD0004136080000100808100800784641467890
:101CE000546F6F6C5F426F785F53544D3332000016
:101CF000487A000044485431312073656E736F7226
:101D00000000000048203D200000000025000000E9
:101D100054203D20000000004300000043524320B7
:101D20003D2000000000000000000000005F0000F7
:101D300000000700070000147F147F1400242A7F8E
:101D40002A1200231308646200364955225000000D
:101D50000503000000001C224100000041221C007D
:101D60000014083E08140008083E0808000050301F
:101D7000000000080808080800006060000000205B
:101D800010080402003E5149453E0000427F4000D9
:101D9000004261514946002141454B31001814125F
:101DA0007F10002745454539003C4A49493000012C
:101DB0007109050300364949493600064949291E7B
:101DC00000003636000000005636000000081422DD
:101DD00041000014141414140000412214080002DD
:101DE0000151090600324979413E007E1111117EF0
:101DF000007F49494936003E41414122007F41412F
:101E0000221C007F49494941007F09090901003E20
:101E10004149497A007F0808087F0000417F41005E
:101E2000002040413F01007F08142241007F4040D4
:101E30004040007F020C027F007F0408107F003EBC
:101E40004141413E007F09090906003E4151215EA2
:101E5000007F091929460046494949310001017F9F
:101E60000101003F4040403F001F2040201F003F35
:101E70004038403F006314081463000708700807E7
:101E800000615149454300007F41410000020408C0
:101E90001020000041417F000004020102040040C4
:101EA0004040404000000102040000205454547897
:101EB000007F4844443800384444442000384444B7
:101EC000487F00385454541800087E090102000C61
:101ED0005252523E007F080404780000447D4000C6
:101EE000002040443D00007F102844000000417F56
:101EF0004000007C04180478007C08040478003852
:101F000044444438007C1414140800081414187C49
:101F1000007C0804040800485454542000043F4442
:101F20004020003C4040207C001C2040201C003C05
:101F30004030403C004428102844000C5050503C95
:101F4000004464544C440000083641000000007F07
:101F50000000000041360800001008081008007852
:0C1F6000464146784300000018000020B5
:101F6C000000000001020304010203040607080933
:101F7C00020406080000000000000000040300201A
:101F8C006C030020D40300200000000000000000BF
:101F9C000000000000000000000000000000000035
:101FAC00000000000000000000000000641F00089A
:101FBC000000000000000000000000000000000015
:101FCC000000000000000000000000000000000005
:101FDC0000000000000000000000000000000000F5
:101FEC0000000000000000000000000000000000E5
:101FFC0000000000000000000000000000000000D5
:10200C0000000000000000000000000000000000C4
:10201C0000000000000000000000000000000000B4
:10202C0001000000000000000E33CDAB34126DE651
:10203C00ECDE05000B0000000000000000000000BA
:10204C000000000000000000000000000000000084
:10205C000000000000000000000000000000000074
:10206C000000000000000000000000000000000064
:10207C000000000000000000000000000000000054
:1023AC0051170008310100080D0100080000000061
:0400000508000000EF
:00000001FF
