:020000040800F2
:1000000058060020C1050008210600082106000846
:100010002106000821060008210600080000000053
:1000200000000000000000000000000021060008A1
:10003000210600080000000021060008FD0E00084F
:1000400021060008210600082106000821060008F4
:1000500021060008210600082106000821060008E4
:1000600021060008210600082106000821060008D4
:1000700021060008210600082106000821060008C4
:1000800021060008210600082106000821060008B4
:1000900021060008210600082106000821060008A4
:1000A0002106000821060008210600082106000894
:1000B0002106000821060008210600082106000884
:1000C0002106000821060008210600082106000874
:1000D0002106000821060008210600082106000864
:1000E0002106000821060008210600080000000083
:1000F0000000000000000000000000000000000000
:1001000000000000000000005FF808F180B483B038
:1001100000AF78600B467B80054A7B681360044A19
:100120007B88938000BF0C37BD4680BC704700BF02
:100130001400002080B483B000AF78600B467B8051
:10014000054A7B689360044A7B88938100BF0C3723
:10015000BD4680BC704700BF1400002080B483B04F
:1001600000AF78600B467B80054A7B681361044AC8
:100170007B88938200BF0C37BD4680BC704700BFB0
:100180001400002080B483B000AF78600B467B8001
:10019000054A7B689361044A7B88938300BF0C37D0
:1001A000BD4680BC704700BF1400002080B584B0FD
:1001B00000AF0346FB710023FB7326E0164B9869E2
:1001C000154B998BFA79FB7BC3F1070342FA03F3D2
:1001D00003F00103002B0CBF01230023DBB21A46FE
:1001E00000F0FAFA0C4B186A0B4B9B8C0122194653
:1001F00000F0F2FA084B186A074B9B8C0022194654
:1002000000F0EAFAFB7B0133FB73FB7B072BD5D9AC
:1002100000BF1037BD4680BD1400002080B582B0FD
:1002200000AF03460A46FB711346BB71BB79002B36
:100230001CD11E4B18691D4B9B8A0022194600F0E9
:10024000CBFA1A4B9868194B9B890022194600F08B
:10025000C3FAFB791846FFF7A9FF144B9868134BB4
:100260009B890122194600F0B7FA1BE00F4B186971
:100270000E4B9B8A0122194600F0AEFA0B4B986890
:100280000A4B9B890022194600F0A6FAFB79184612
:10029000FFF78CFF054B9868044B9B890122194698
:1002A00000F09AFA00BF0837BD4680BD1400002058
:1002B00080B500AF174B1868164B9B880022194673
:1002C00000F08AFA134B1868124B9B8801221946DA
:1002D00000F082FA00212120FFF7A0FF0021B820C2
:1002E000FFF79CFF00210420FFF798FF0021142056
:1002F000FFF794FF00212020FFF790FF00210C2042
:10030000FFF78CFF00F06AF8034B002283F8F82116
:1003100000BF80BD140000203C00002080B584B0E8
:1003200000AF0346FB710023FB602DE01A4B93F8EE
:10033000F83183F00103DBB2002B10D0FB79A3F17D
:100340002002164913465B0013445B00CA18FB6881
:1003500013441B7801211846FFF760FF11E0FB7979
:10036000A3F120020D4913465B0013445B00CA1839
:10037000FB6813441B78DB43DBB201211846FFF70F
:100380004DFFFB680133FB60FB68052BCEDD00BF32
:100390001037BD4680BD00BF3C000020500F000854
:1003A00080B582B000AF78600B46FB701346BB701F
:1003B000BA78FB781146184600F02CF806E07B6806
:1003C0005A1C7A601B781846FFF7A8FF7B681B78D9
:1003D000002BF4D100BF0837BD4680BD80B582B088
:1003E00000AF00237B600BE001210020FFF716FF28
:1003F000074A7B68134400221A707B6801337B60D4
:100400007B68B3F5FC7FEFDB00BF0837BD4680BDDE
:100410003C00002080B582B000AF03460A46FB7165
:100420001346BB71FB7963F07F03DBB200211846F2
:10043000FFF7F4FEBB7943F04003DBB2002118461E
:10044000FFF7ECFE00BF0837BD4680BD80B500AFAA
:10045000154A154B1B6843F0010313601249124BF8
:100460005A68124B13404B600F4A0F4B1B6823F026
:10047000847323F4803313600B4A0B4B1B6823F403
:1004800080231360084A084B5B6823F4FE03536023
:10049000054B4FF41F029A6000F00CF8044B4FF02C
:1004A00000629A6000BF80BD001002400000FFF8AB
:1004B00000ED00E080B500AF00F002F800BF80BDA5
:1004C00080B483B000AF00237B6000233B603A4AD6
:1004D000394B1B6843F480331360374B1B6803F4BC
:1004E00000333B607B6801337B603B68002B03D1AA
:1004F0007B68B3F5A06FF0D12F4B1B6803F400337A
:10050000002B02D001233B6001E000233B603B68ED
:10051000012B4BD1294A294B1B6843F01003136070
:10052000264A264B1B6823F003031360234A234B00
:100530001B6843F0020313601F4A1F4B5B68536044
:100540001D4A1D4B5B6853601B4A1B4B5B6843F4A1
:1005500080635360184A184B5B6823F47C13536024
:10056000154A154B5B6843F4E8135360124A124B6B
:100570001B6843F08073136000BF0F4B1B6803F0D0
:100580000073002BF9D00C4A0B4B5B6823F003037C
:100590005360094A084B5B6843F00203536000BF95
:1005A000054B5B6803F00C03082BF9D100BF0C3737
:1005B000BD4680BC704700BF0010024000200240D2
:1005C00080B582B000AF114B7B60114B3B6007E000
:1005D0003B681A1D3A607A68111D796012681A60CA
:1005E0003B680C4A9342F3D30B480C494FF000028E
:1005F0008842B8BF40F8042BFADBFFF727FF00F072
:100600004FF900BF0837BD4680BD00BFD6130008B4
:1006100000000020140000201400002058020020D8
:1006200080B400AFFEE700BF80B489B000AF78604F
:1006300039600023FB6100233B610023BB61002381
:10064000FB6000237B610023BB603B68DB7803F029
:100650000F03FB613B68DB7803F01003002B05D030
:100660003B689B781A46FB691343FB613B681B8818
:10067000DBB2002B44D07B681B687B610023BB612D
:1006800038E00122BB6902FA03F3FB603B681B8878
:100690001A46FB6813403B613A69FB689A4226D1CF
:1006A000BB699B00FB600F22FB6802FA03F3BB608F
:1006B000BB68DB437A6913407B61FA69FB6802FA25
:1006C00003F37A6913437B613B68DB78282B05D100
:1006D0000122BB699A407B685A6108E03B68DB787D
:1006E000482B04D10122BB699A407B681A61BB691F
:1006F0000133BB61BB69072BC3D97B687A691A6078
:100700003B681B88FF2B46D97B685B687B610023B5
:10071000BB613AE0BB690833012202FA03F3FB60D4
:100720003B681B881A46FB6813403B613A69FB68CB
:100730009A4227D1BB699B00FB600F22FB6802FA3B
:1007400003F3BB60BB68DB437A6913407B61FA69E2
:10075000FB6802FA03F37A6913437B613B68DB7839
:10076000282B05D1BB69083301229A407B685A6166
:100770003B68DB78482B05D1BB69083301229A40DE
:100780007B681A61BB690133BB61BB69072BC1D9A7
:100790007B687A695A6000BF2437BD4680BC7047C9
:1007A00080B483B000AF78600B467B807A887B682A
:1007B0001A6100BF0C37BD4680BC704780B483B05F
:1007C00000AF78600B467B807A887B685A6100BFF7
:1007D0000C37BD4680BC704780B483B000AF7860F2
:1007E0000B467B8013467B707B78002B03D07A8886
:1007F0007B681A6102E07A887B685A6100BF0C3717
:10080000BD4680BC704700BF80B483B000AF0346D4
:100810003960FB7197F90730002B0BDA0D49FB7932
:1008200003F00F03043B3A68D2B21201D2B20B4478
:100830001A7609E0084997F907303A68D2B21201EE
:10084000D2B20B4483F8002300BF0C37BD4680BCF6
:10085000704700BF00ED00E000E100E080B582B02D
:1008600000AF78607B68B3F1807F01D3012311E092
:100870000A4A7B6823F07F43013B53600F214FF00E
:10088000FF30FFF7C1FF054B00229A60034B0722A0
:100890001A60002318460837BD4680BD10E000E00E
:1008A00080B500AF00F064F8C82000F035FB00F020
:1008B0001DF8FFF7FDFC002200210A48FFF770FD3C
:1008C00008210948FFF76CFF4FF4FA7000F024FB91
:1008D00008210548FFF772FF4FF4FA7000F01CFB87
:1008E000EEE700BFD0130008000C014080B584B0D3
:1008F00000AF4FF46043BB812823FB730123BB731C
:1009000007F10C0319461748FFF78EFE0121164820
:10091000FFF7FCFB02211448FFF70CFC04211248EE
:10092000FFF71CFC08211048FFF72CFC4FF6FF7363
:100930003B811023FB720123BB7207F108031946A8
:100940000948FFF771FE0823BB801023FB710123C8
:10095000BB713B1D19460548FFF766FE00BF103707
:10096000BD4680BD0010014000080140000C014060
:1009700080B500AF00F05EF84FF4803000F088F8EA
:1009800000F0B4F803461A46274B1A70264B1B7822
:10099000012B2AD1802000F029F94FF4806000F06B
:1009A00041F94FF4E06000F059F94FF4004000F0D5
:1009B00071F94FF4E0114FF4803000F0BFF80120DE
:1009C00000F0DAF800BF392000F05EFA0346002B91
:1009D000F9D0022000F0E0F800BF00F0F9F803467B
:1009E000082BFAD1012000F03FFA104800F06EF910
:1009F0000E4B5B680E4AA2FB03239B091846FFF7C8
:100A00002DFF0121042000F011FA0121082000F03F
:100A10000DFA0121102000F009FA0121202000F038
:100A200005FA00BF80BD00BF3D020020400200204B
:100A3000D34D621080B400AF134A134B1B6843F0D0
:100A4000010313601049104B5A68104B13404B6060
:100A50000D4A0D4B1B6823F0847323F4803313601D
:100A6000094A094B1B6823F480231360064A064B8E
:100A70005B6823F4FE035360034B4FF41F029A603C
:100A800000BFBD4680BC7047001002400000FFF868
:100A900080B483B000AF7860134A134B1B6823F413
:100AA00080331360104A104B1B6823F480231360BB
:100AB0007B68B3F5803F03D0B3F5802F07D00DE0FE
:100AC000094A094B1B6843F48033136006E0064A69
:100AD000054B1B6843F4A023136000BF00BF0C3715
:100AE000BD4680BC704700BF0010024080B582B098
:100AF00000AF00233B600023FB710023BB7131205A
:100B000000F0C2F90346BB713B6801333B603B68B0
:100B1000B3F5A06F02D0BB79002BF0D0312000F0EC
:100B2000B3F90346002B02D00123FB7101E000233F
:100B3000FB71FB7918460837BD4680BD80B485B08F
:100B400000AF786039600023FB600A4B5B68FB6094
:100B5000FB6823F47C13FB607A683B681343FA68F4
:100B60001343FB60034AFB68536000BF1437BD4664
:100B700080BC70470010024080B483B000AF0346D1
:100B8000FB71044AFB79136000BF0C37BD4680BC83
:100B9000704700BF6000424280B485B000AF78600B
:100BA0000023FB60094B5B68FB60FB6823F00303D9
:100BB000FB60FA687B681343FB60044AFB68536080
:100BC00000BF1437BD4680BC704700BF0010024014
:100BD00080B400AF044B5B68DBB203F00C03DBB204
:100BE0001846BD4680BC70470010024080B485B0F6
:100BF00000AF78600023FB60094B5B68FB60FB681B
:100C000023F0F003FB60FA687B681343FB60044A3F
:100C1000FB68536000BF1437BD4680BC704700BFFF
:100C20000010024080B485B000AF78600023FB6004
:100C3000094B5B68FB60FB6823F4E063FB60FA68C8
:100C40007B681343FB60044AFB68536000BF1437A2
:100C5000BD4680BC704700BF0010024080B485B024
:100C600000AF78600023FB60094B5B68FB60FB68AA
:100C700023F46053FB607B68DB00FA681343FB607E
:100C8000034AFB68536000BF1437BD4680BC704701
:100C90000010024080B485B000AF78600023FB6094
:100CA000094B5B68FB60FB6823F44043FB60FA6818
:100CB0007B681343FB60044AFB68536000BF143732
:100CC000BD4680BC704700BF0010024080B487B0B2
:100CD00000AF786000237B6100233B610023FB6051
:100CE0000023BB604C4B5B6803F00C037B617B69AA
:100CF000042B07D0082B09D0002B33D17B68474A3F
:100D00001A6033E07B68454A1A602FE0424B5B680B
:100D100003F470133B61404B5B6803F48033FB606A
:100D20003B699B0C02333B61FB68002B06D13B699E
:100D30003B4A02FB03F27B681A6017E0364B5B68A4
:100D400003F40033002B06D03B69354A02FB03F263
:100D50007B681A600AE03B69304A02FB03F27B6859
:100D60001A6003E07B682D4A1A6000BF2A4B5B685B
:100D700003F0F0037B617B691B097B61294A7B6976
:100D800013441B78DBB2BB607B681A68BB68DA402F
:100D90007B685A60204B5B6803F4E0637B617B698E
:100DA0001B0A7B611F4A7B6913441B78DBB2BB6063
:100DB0007B685A68BB68DA407B689A60164B5B6850
:100DC00003F460537B617B69DB0A7B61154A7B69B5
:100DD00013441B78DBB2BB607B685A68BB68DA409F
:100DE0007B68DA600C4B5B6803F440437B617B6992
:100DF0009B0B7B610C4A7B6913441B78DBB2BB60A5
:100E00007B68DA68BB68B2FBF3F27B681A6100BFEB
:100E10001C37BD4680BC70470010024000127A00AB
:100E200000093D00000000201000002080B483B0C5
:100E300000AF78600B46FB70FB78002B06D00949A9
:100E4000084B9A697B6813438B6106E00549054BA3
:100E50009A697B68DB4313408B6100BF0C37BD464A
:100E600080BC70470010024080B483B000AF0346DE
:100E7000FB71044AFB79136000BF0C37BD4680BC90
:100E8000704700BF4C00424280B487B000AF0346B9
:100E9000FB710023FB6000237B610023FB74FB7963
:100EA0005B09DBB2FB60FB68012B03D1124B1B68B3
:100EB0007B6109E0FB68022B03D10F4B1B6A7B614E
:100EC00002E00D4B5B6A7B61FB7903F01F03FB6063
:100ED0007A69FB6822FA03F303F00103002B02D0C6
:100EE0000123FB7401E00023FB74FB7C18461C37D4
:100EF000BD4680BC704700BF0010024080B400AF08
:100F0000044B1B680133034A136000BFBD4680BC1D
:100F1000704700BF3802002080B483B000AF786013
:100F2000094B00229A60094B00221A6000BF7B68BF
:100F3000A3F10A02054B1B689A42F8D800BF0C3790
:100F4000BD4680BC704700BF10E000E038020020C2
:100F50000000000000000000005F0000000007002B
:100F6000070000147F147F1400242A7F2A12002314
:100F70001308646200364955225000000503000042
:100F800000001C224100000041221C000014083E09
:100F900008140008083E080800005030000000084F
:100FA0000808080800006060000000201008040223
:100FB000003E5149453E0000427F400000426151E1
:100FC0004946002141454B31001814127F1000277B
:100FD00045454539003C4A4949300001710905033E
:100FE00000364949493600064949291E000036366F
:100FF00000000000563600000008142241000014D2
:1010000014141414000041221408000201510906AE
:1010100000324979413E007E1111117E007F49491D
:101020004936003E41414122007F4141221C007F60
:1010300049494941007F09090901003E4149497A6E
:10104000007F0808087F0000417F410000204041E8
:101050003F01007F08142241007F40404040007F54
:10106000020C027F007F0408107F003E4141413E98
:10107000007F09090906003E4151215E007F0919E0
:1010800029460046494949310001017F0101003FDD
:101090004040403F001F2040201F003F4038403F5D
:1010A00000631408146300070870080700615149C1
:1010B000454300007F414100000204081020000069
:1010C00041417F00000402010204004040404040D2
:1010D000000001020400002054545478007F48446A
:1010E000443800384444442000384444487F0038A1
:1010F0005454541800087E090102000C5252523E0A
:10110000007F080404780000447D40000020404433
:101110003D00007F102844000000417F4000007C1B
:1011200004180478007C08040478003844444438E7
:10113000007C1414140800081414187C007C0804A3
:10114000040800485454542000043F444020003C0C
:101150004040207C001C2040201C003C4030403C93
:10116000004428102844000C5050503C0044645463
:101170004C440000083641000000007F00000000E1
:1011800041360800001008081008007846414678EB
:101190000000000000000000005F000000000700E9
:1011A000070000147F147F1400242A7F2A120023D2
:1011B0001308646200364955225000000503000000
:1011C00000001C224100000041221C000014083EC7
:1011D00008140008083E080800005030000000080D
:1011E00008080808000060600000002010080402E1
:1011F000003E5149453E0000427F4000004261519F
:101200004946002141454B31001814127F10002738
:1012100045454539003C4A494930000171090503FB
:1012200000364949493600064949291E000036362C
:10123000000000005636000000081422410000148F
:10124000141414140000412214080002015109066C
:1012500000324979413E007E1111117E007F4949DB
:101260004936003E41414122007F4141221C007F1E
:1012700049494941007F09090901003E4149497A2C
:10128000007F0808087F0000417F410000204041A6
:101290003F01007F08142241007F40404040007F12
:1012A000020C027F007F0408107F003E4141413E56
:1012B000007F09090906003E4151215E007F09199E
:1012C00029460046494949310001017F0101003F9B
:1012D0004040403F001F2040201F003F4038403F1B
:1012E000006314081463000708700807006151497F
:1012F000454300007F414100000204081020000027
:1013000041417F000004020102040040404040408F
:10131000000001020400002054545478007F484427
:10132000443800384444442000384444487F00385E
:101330005454541800087E090102000C5252523EC7
:10134000007F080404780000447D400000204044F1
:101350003D00007F102844000000417F4000007CD9
:1013600004180478007C08040478003844444438A5
:10137000007C1414140800081414187C007C080461
:10138000040800485454542000043F444020003CCA
:101390004040207C001C2040201C003C4030403C51
:1013A000004428102844000C5050503C0044645421
:1013B0004C440000083641000000007F000000009F
:1013C00041360800001008081008007846414678A9
:0613D00048656C6C6F0023
:1013D60000000000010203040102030406070809D5
:0413E60002040608EF
:0400000508000000EF
:00000001FF
