:020000040800F2
:1000000090060020B5080008150900081509000829
:10001000150900081509000815090008000000006E
:1000200000000000000000000000000015090008AA
:10003000150900080000000015090008A5010008C6
:100040001509000815090008150900081509000818
:100050001509000815090008150900081509000808
:1000600015090008150900081509000815090008F8
:1000700015090008150900081509000815090008E8
:1000800015090008150900081509000815090008D8
:1000900015090008150900081509000815090008C8
:1000A00015090008150900081509000815090008B8
:1000B00015090008150900081509000815090008A8
:1000C0001509000815090008150900081509000898
:1000D0001509000815090008150900081509000888
:1000E000150900081509000815090008000000009E
:1000F0000000000000000000000000000000000000
:1001000000000000000000005FF808F180B483B038
:1001100000AF03463960FB7197F90730002B0BDA0B
:100120000D49FB7903F00F03043B3A68D2B2120188
:10013000D2B20B441A7609E0084997F907303A68B9
:10014000D2B21201D2B20B4483F8002300BF0C37A5
:10015000BD4680BC704700BF00ED00E000E100E05C
:1001600080B582B000AF78607B68B3F1807F01D347
:10017000012311E00A4A7B6823F07F43013B53606F
:100180000F214FF0FF30FFF7C1FF054B00229A60AF
:10019000034B07221A60002318460837BD4680BD6E
:1001A00010E000E080B400AF044B1B680133034A49
:1001B000136000BFBD4680BC704700BF4C020020EA
:1001C00080B582B000AF7860124800F025FF114B77
:1001D0005B68114AA2FB03239B091846FFF7C0FF87
:1001E0000E4B00229A600E4B00221A6000BF0C4B8F
:1001F0001A687B689A42FAD3064B5B68094AA2FBED
:1002000003239B0C1846FFF7ABFF00BF0837BD4622
:1002100080BD00BF38020020D34D621010E000E026
:100220004C02002083DE1B4380B483B000AF7860B3
:10023000084B00229A60084B00221A6000BF064B50
:100240001A687B689A42FAD300BF0C37BD4680BC5F
:10025000704700BF10E000E04C02002080B582B083
:1002600000AF7860144800F0D7FE134B5B68134A68
:10027000A2FB03239B091846FFF772FF104B0022D5
:100280009A60104B00221A6000BF7B684FF47A72AC
:1002900002FB03F20B4B1B689A42F6D8064B5B68D5
:1002A000094AA2FB03239B0C1846FFF759FF00BF26
:1002B0000837BD4680BD00BF38020020D34D621014
:1002C00010E000E04C02002083DE1B4380B584B0C8
:1002D00000AF78600023FB607B681B78002B08D0A0
:1002E0007B680233181D7B6802330422194601F033
:1002F00067FA7B681B78012B08D97B680733181DC8
:100300007B6807330422194601F05AFA7B681B7890
:10031000022B08D97B680C33181D7B680C33042230
:10032000194601F04DFA7B681B78032B08D97B68CE
:100330001133181D7B6811330422194601F040FA6D
:100340007B681B78032B07D17B68D3F802207B687E
:10035000D3F807301340FB607B681B78042B0AD16D
:100360007B68D3F802207B68D3F807301A407B689B
:10037000DB681340FB607B681B78052B0ED17B6824
:10038000D3F802207B68D3F807301A407B68DB681B
:100390001A407B68D3F811301340FB607B681B78F0
:1003A000042B04D97B68163304333A7B1A7000BFE0
:1003B0001037BD4680BD00BF80B483B000AF786009
:1003C0000B46FB70FB78002B07D17B689B7943F3CE
:1003D000C0135BB203F00103ADE1FB78012B07D141
:1003E0007B689B7943F380135BB203F00103A2E1C6
:1003F000FB78022B07D17B689B7943F340135BB2F8
:1004000003F0010397E1FB78032B07D17B689B790D
:1004100043F300135BB203F001038CE1FB78042B80
:1004200007D17B689B7943F3C0035BB203F0010300
:1004300081E1FB78052B07D17B689B7943F380032F
:100440005BB203F0010376E1FB78062B07D17B68F2
:100450009B7943F340035BB203F001036BE1FB784C
:10046000072B07D17B689B7943F300035BB203F052
:10047000010360E1FB78082B07D17B68DB7A43F34B
:10048000C0135BB203F0010355E1FB78092B07D1E0
:100490007B68DB7A43F380135BB203F001034AE12C
:1004A000FB780A2B07D17B68DB7A43F340135BB2FE
:1004B00003F001033FE1FB780B2B07D17B68DB7A6C
:1004C00043F300135BB203F0010334E1FB780C2B20
:1004D00007D17B68DB7A43F3C0035BB203F001030F
:1004E00029E1FB780D2B07D17B68DB7A43F380038E
:1004F0005BB203F001031EE1FB780E2B07D17B6892
:10050000DB7A43F340035BB203F0010313E1FB78B2
:100510000F2B07D17B68DB7A43F300035BB203F058
:10052000010308E1FB78102B07D17B681B7C43F3A8
:10053000C0135BB203F00103FDE0FB78112B07D180
:100540007B681B7C43F380135BB203F00103F2E092
:10055000FB78122B07D17B681B7C43F340135BB203
:1005600003F00103E7E0FB78132B07D17B681B7CCA
:1005700043F300135BB203F00103DCE0FB78142BC0
:1005800007D17B681B7C43F3C0035BB203F001031C
:10059000D1E0FB78152B07D17B681B7C43F38003EC
:1005A0005BB203F00103C6E0FB78162B07D17B6832
:1005B0001B7C43F340035BB203F00103BBE0FB7819
:1005C000172B07D17B681B7C43F300035BB203F05E
:1005D0000103B0E0FB78182B07D17B689B7E43F3C7
:1005E00000035BB203F00103A5E0FB78192B07D1F0
:1005F0007B685B7D43F380135BB203F001039AE0F9
:10060000FB781A2B07D17B685B7D43F340135BB209
:1006100003F001038FE0FB781B2B07D17B685B7D28
:1006200043F300135BB203F0010384E0FB781C2B5F
:1006300007D17B685B7D43F3C0035BB203F001032A
:1006400079E0FB781D2B07D17B685B7D43F380034A
:100650005BB203F001036EE0FB781E2B07D17B68D1
:100660005B7D43F340035BB203F0010363E0FB787F
:100670001F2B07D17B685B7D43F300035BB203F064
:10068000010358E0FB78202B07D17B68DB7E43F326
:1006900000035BB203F001034DE0FB78212B07D18F
:1006A0007B689B7E43F3C0135BB203F0010342E01F
:1006B000FB78222B07D17B689B7E43F380135BB2D0
:1006C00003F0010337E0FB78232B07D17B689B7E87
:1006D00043F340135BB203F001032CE0FB78242BBF
:1006E00007D17B689B7E43F300135BB203F00103E9
:1006F00021E0FB78252B07D17B689B7E43F3C00369
:100700005BB203F0010316E0FB78262B07D17B6870
:100710009B7E43F380035BB203F001030BE0FB78A5
:10072000272B07D17B689B7E43F340035BB203F02A
:10073000010300E0002318460C37BD4680BC70471B
:1007400080B500AF154A154B1B6843F001031360D9
:100750001249124B5A68124B13404B600F4A0F4B11
:100760001B6823F0847323F4803313600B4A0B4B14
:100770001B6823F480231360084A084B5B6823F44A
:10078000FE035360054B4FF41F029A6000F00CF813
:10079000044B4FF000629A6000BF80BD0010024021
:1007A0000000FFF800ED00E080B500AF00F002F8B7
:1007B00000BF80BD80B483B000AF00237B60002306
:1007C0003B603A4A394B1B6843F480331360374B24
:1007D0001B6803F400333B607B6801337B603B683C
:1007E000002B03D17B68B3F5A06FF0D12F4B1B68B2
:1007F00003F40033002B02D001233B6001E000230F
:100800003B603B68012B4BD1294A294B1B6843F0C5
:1008100010031360264A264B1B6823F00303136062
:10082000234A234B1B6843F0020313601F4A1F4BEC
:100830005B6853601D4A1D4B5B6853601B4A1B4B32
:100840005B6843F480635360184A184B5B6823F479
:100850007C135360154A154B5B6843F4E8135360EF
:10086000124A124B1B6843F08073136000BF0F4B9A
:100870001B6803F00073002BF9D00C4A0B4B5B682C
:1008800023F003035360094A084B5B6843F00203FB
:10089000536000BF054B5B6803F00C03082BF9D1D4
:1008A00000BF0C37BD4680BC704700BF001002403F
:1008B0000020024080B582B000AF114B7B60114B2D
:1008C0003B6007E03B681A1D3A607A68111D796049
:1008D00012681A603B680C4A9342F3D30B480C49E8
:1008E0004FF000028842B8BF40F8042BFADBFFF754
:1008F00027FF00F033F900BF0837BD4680BD00BFB9
:10090000401D0008000000201400002014000020FA
:100910009002002080B400AFFEE700BF80B489B031
:1009200000AF786039600023FB6100233B61002346
:10093000BB610023FB6000237B610023BB603B683D
:10094000DB7803F00F03FB613B68DB7803F01003F7
:10095000002B05D03B689B781A46FB691343FB616B
:100960003B681B88DBB2002B44D07B681B687B6133
:100970000023BB6138E00122BB6902FA03F3FB608C
:100980003B681B881A46FB6813403B613A69FB6869
:100990009A4226D1BB699B00FB600F22FB6802FADA
:1009A00003F3BB60BB68DB437A6913407B61FA6980
:1009B000FB6802FA03F37A6913437B613B68DB78D7
:1009C000282B05D10122BB699A407B685A6108E057
:1009D0003B68DB78482B04D10122BB699A407B68D5
:1009E0001A61BB690133BB61BB69072BC3D97B6843
:1009F0007A691A603B681B88FF2B46D97B685B6865
:100A00007B610023BB613AE0BB690833012202FA33
:100A100003F3FB603B681B881A46FB6813403B618D
:100A20003A69FB689A4227D1BB699B00FB600F22A1
:100A3000FB6802FA03F3BB60BB68DB437A691340CF
:100A40007B61FA69FB6802FA03F37A6913437B61FD
:100A50003B68DB78282B05D1BB69083301229A401B
:100A60007B685A613B68DB78482B05D1BB6908334A
:100A700001229A407B681A61BB690133BB61BB6983
:100A8000072BC1D97B687A695A6000BF2437BD46FD
:100A900080BC704780B483B000AF78600B467B8029
:100AA00013467B707B78002B03D07A887B681A61B1
:100AB00002E07A887B685A6100BF0C37BD4680BC73
:100AC000704700BF80B483B000AF03463960FB714C
:100AD00097F90730002B0BDA0D49FB7903F00F0370
:100AE000043B3A68D2B21201D2B20B441A7609E042
:100AF000084997F907303A68D2B21201D2B20B44D2
:100B000083F8002300BF0C37BD4680BC704700BF90
:100B100000ED00E000E100E080B582B000AF786059
:100B20007B68B3F1807F01D3012311E00A4A7B681F
:100B300023F07F43013B53600F214FF0FF30FFF75D
:100B4000C1FF054B00229A60034B07221A60002365
:100B500018460837BD4680BD10E000E080B500AF04
:100B600000F09CF800F05CF800F054FC002200213A
:100B7000264800F0C7FC264B5B680122002118467E
:100B800000F036FD01223221224800F0BBFC224B4E
:100B900005221A70204B08225A701F4B002242F087
:100BA00001029A700022DA7000221A7100225A7132
:100BB000194B002242F00102DA7100221A7200225F
:100BC0005A7200229A72144B002242F001021A73E8
:100BD00000225A7300229A730022DA730E4B00220D
:100BE00042F001025A7400229A740022DA74002240
:100BF0001A750948FFF76AFB00BF084B9B6803F4AE
:100C00000043002BF9D100F0A7F8F5E7EC1A000833
:100C100038020020FC1A0008500200200010014099
:100C200080B582B000AF4FF40041194800F0B0FD2C
:100C30004FF6FF73BB801023FB710123BB713B1D7B
:100C400019461448FFF76AFE0121124800F0FCFA29
:100C50000221104800F00CFB04210E4800F01CFBA0
:100C600008210C4800F02CFB10210A4800F03CFB46
:100C70001023FB7020233B800323BB703B461946A7
:100C80000548FFF74BFE00BF0837BD4680BD00BFDB
:100C90000010014000080140000C014080B500AF89
:100CA00000F06EF84FF4803000F098F800F0C4F8CF
:100CB00003461A46254B1A70244B1B78012B2AD168
:100CC000002000F039F94FF4806000F051F94FF442
:100CD000E06000F069F94FF4004000F081F94FF452
:100CE000E0114FF4803000F0CFF8012000F0EAF876
:100CF00000BF392000F06EFA0346002BF9D0022025
:100D000000F0F0F800BF00F009F90346082BFAD113
:100D1000012000F04FFA0E4800F07EF90C4B5B68A2
:100D20000C4AA2FB03239B091846FFF7F5FE01219D
:100D3000042000F021FA0121082000F01DFA012111
:100D4000102000F019FA00BF80BD00BF6D02002026
:100D500038020020D34D621080B500AF4FF400413F
:100D6000054800F0A5FC054A4FF40041024800F098
:100D7000D1FC00BF80BD00BF001001405002002028
:100D800080B400AF134A134B1B6843F00103136098
:100D90001049104B5A68104B13404B600D4A0D4BD5
:100DA0001B6823F0847323F480331360094A094BD2
:100DB0001B6823F480231360064A064B5B6823F408
:100DC000FE035360034B4FF41F029A6000BFBD4601
:100DD00080BC7047001002400000FFF880B483B070
:100DE00000AF7860134A134B1B6823F48033136001
:100DF000104A104B1B6823F4802313607B68B3F503
:100E0000803F03D0B3F5802F07D00DE0094A094B8E
:100E10001B6843F48033136006E0064A054B1B68E9
:100E200043F4A023136000BF00BF0C37BD4680BC55
:100E3000704700BF0010024080B582B000AF0023B1
:100E40003B600023FB710023BB71312000F0C2F92D
:100E50000346BB713B6801333B603B68B3F5A06F51
:100E600002D0BB79002BF0D0312000F0B3F903465B
:100E7000002B02D00123FB7101E00023FB71FB7901
:100E800018460837BD4680BD80B485B000AF786095
:100E900039600023FB600A4B5B68FB60FB6823F44E
:100EA0007C13FB607A683B681343FA681343FB606A
:100EB000034AFB68536000BF1437BD4680BC7047CF
:100EC0000010024080B483B000AF0346FB71044AB7
:100ED000FB79136000BF0C37BD4680BC704700BF74
:100EE0006000424280B485B000AF78600023FB60B0
:100EF000094B5B68FB60FB6823F00303FB60FA6847
:100F00007B681343FB60044AFB68536000BF1437DF
:100F1000BD4680BC704700BF0010024080B400AFE7
:100F2000044B5B68DBB203F00C03DBB21846BD4632
:100F300080BC70470010024080B485B000AF78607C
:100F40000023FB60094B5B68FB60FB6823F0F00348
:100F5000FB60FA687B681343FB60044AFB685360DC
:100F600000BF1437BD4680BC704700BF0010024070
:100F700080B485B000AF78600023FB60094B5B68EC
:100F8000FB60FB6823F4E063FB60FA687B68134353
:100F9000FB60044AFB68536000BF1437BD4680BC49
:100FA000704700BF0010024080B485B000AF786089
:100FB0000023FB60094B5B68FB60FB6823F4605314
:100FC000FB607B68DB00FA681343FB60034AFB6845
:100FD000536000BF1437BD4680BC7047001002400C
:100FE00080B485B000AF78600023FB60094B5B687C
:100FF000FB60FB6823F44043FB60FA687B681343A3
:10100000FB60044AFB68536000BF1437BD4680BCD8
:10101000704700BF0010024080B487B000AF786016
:1010200000237B6100233B610023FB600023BB6046
:101030004C4B5B6803F00C037B617B69042B07D08E
:10104000082B09D0002B33D17B68474A1A6033E064
:101050007B68454A1A602FE0424B5B6803F47013CB
:101060003B61404B5B6803F48033FB603B699B0C46
:1010700002333B61FB68002B06D13B693B4A02FB14
:1010800003F27B681A6017E0364B5B6803F40033A9
:10109000002B06D03B69354A02FB03F27B681A60DD
:1010A0000AE03B69304A02FB03F27B681A6003E006
:1010B0007B682D4A1A6000BF2A4B5B6803F0F0037F
:1010C0007B617B691B097B61294A7B6913441B781F
:1010D000DBB2BB607B681A68BB68DA407B685A6029
:1010E000204B5B6803F4E0637B617B691B0A7B61D7
:1010F0001F4A7B6913441B78DBB2BB607B685A686C
:10110000BB68DA407B689A60164B5B6803F46053F7
:101110007B617B69DB0A7B61154A7B6913441B7821
:10112000DBB2BB607B685A68BB68DA407B68DA6018
:101130000C4B5B6803F440437B617B699B0B7B61D9
:101140000C4A7B6913441B78DBB2BB607B68DA68AE
:10115000BB68B2FBF3F27B681A6100BF1C37BD4667
:1011600080BC70470010024000127A0000093D0068
:10117000000000201000002080B483B000AF786031
:101180000B46FB70FB78002B06D00949084B9A6987
:101190007B6813438B6106E00549054B9A697B68C0
:1011A000DB4313408B6100BF0C37BD4680BC7047EA
:1011B0000010024080B483B000AF0346FB71044AC4
:1011C000FB79136000BF0C37BD4680BC704700BF81
:1011D0004C00424280B487B000AF0346FB7100234D
:1011E000FB6000237B610023FB74FB795B09DBB2AE
:1011F000FB60FB68012B03D1124B1B687B6109E08C
:10120000FB68022B03D10F4B1B6A7B6102E00D4B85
:101210005B6A7B61FB7903F01F03FB607A69FB6803
:1012200022FA03F303F00103002B02D00123FB7425
:1012300001E00023FB74FB7C18461C37BD4680BCD4
:10124000704700BF0010024080B483B000AF7860E8
:101250000B467B80054A7B681360044A7B88938039
:1012600000BF0C37BD4680BC704700BF1400002093
:1012700080B483B000AF78600B467B80054A7B6802
:101280009360044A7B88938100BF0C37BD4680BCC5
:10129000704700BF1400002080B483B000AF7860B6
:1012A0000B467B80054A7B681361044A7B889382E6
:1012B00000BF0C37BD4680BC704700BF1400002043
:1012C00080B483B000AF78600B467B80054A7B68B2
:1012D0009361044A7B88938300BF0C37BD4680BC72
:1012E000704700BF1400002080B483B000AF786066
:1012F0000B467B80054A7B681362044A7B88938493
:1013000000BF0C37BD4680BC704700BF14000020F2
:1013100080B584B000AF0346FB710023FB7326E069
:10132000164B9869154B998BFA79FB7BC3F1070330
:1013300042FA03F303F00103002B14BF012300233F
:10134000DBB21A46FFF7A6FB0C4B186A0B4B9B8CC3
:1013500001221946FFF79EFB084B186A074B9B8C2E
:1013600000221946FFF796FBFB7B0133FB73FB7BE7
:10137000072BD5D900BF1037BD4680BD1400002013
:1013800080B582B000AF03460A46FB711346BB71BD
:10139000BB79002B1CD11E4B18691D4B9B8A002268
:1013A0001946FFF777FB1A4B9868194B9B89002267
:1013B0001946FFF76FFBFB791846FFF7A9FF144B9F
:1013C0009868134B9B8901221946FFF763FB1BE0CA
:1013D0000F4B18690E4B9B8A01221946FFF75AFBE7
:1013E0000B4B98680A4B9B8900221946FFF752FB6A
:1013F000FB791846FFF78CFF054B9868044B9B89D7
:1014000001221946FFF746FB00BF0837BD4680BDE5
:101410001400002080B500AF174B1868164B9B884E
:1014200000221946FFF736FB134B1868124B9B88B6
:1014300001221946FFF72EFB00212120FFF7A0FF14
:101440000021B820FFF79CFF00210420FFF798FF40
:1014500000211420FFF794FF00212020FFF790FFC8
:1014600000210C20FFF78CFF00F06AF8034B0022EC
:1014700083F8F82100BF80BD140000203C0000204C
:1014800080B584B000AF0346FB710023FB602DE004
:101490001A4B93F8F83183F00103DBB2002B10D024
:1014A000FB79A3F12002164913465B0013445B004D
:1014B000CA18FB6813441B7801211846FFF760FF28
:1014C00011E0FB79A3F120020D4913465B001344A0
:1014D0005B00CA18FB6813441B78DB43DBB20121B5
:1014E0001846FFF74DFFFB680133FB60FB68052BD7
:1014F000CEDD00BF1037BD4680BD00BF3C000020E0
:10150000001B000880B582B000AF78600B46FB700E
:101510001346BB70BA78FB781146184600F02CF8D9
:1015200006E07B685A1C7A601B781846FFF7A8FF14
:101530007B681B78002BF4D100BF0837BD4680BD07
:1015400080B582B000AF00237B600BE0012100205A
:10155000FFF716FF074A7B68134400221A707B6866
:1015600001337B607B68B3F5FC7FEFDB00BF08379E
:10157000BD4680BD3C00002080B582B000AF034670
:101580000A46FB711346BB71FB7963F07F03DBB244
:1015900000211846FFF7F4FEBB7943F04003DBB2AD
:1015A00000211846FFF7ECFE00BF0837BD4680BD9E
:1015B00080B485B000AF78600023FB737B68002B9C
:1015C0000AD101230CE07B68084AA2FB0323DB0855
:1015D0007B60FB7B0133FB737B68002BF3D1FB7BD0
:1015E00018461437BD4680BC704700BFCDCCCCCC6C
:1015F00080B588B000AF78600B46FB701346BB70B7
:101600000123BB610023FB777868FFF7D1FF034616
:10161000013BBB77BB7F013307F12002134400225B
:1016200003F8182C1FE07A68204BA3FB0213D9089B
:101630000B469B000B445B00D31ABB61BB7F5A1E59
:10164000BA771946BB69DBB23033DAB207F120034F
:101650000B4403F8182C7B68144AA2FB0323DB0815
:101660007B600123FB777B68002BDCD17B68002B40
:1016700011D1FB7F002B0ED1BB7F07F12002134459
:10168000302203F8182CBA78F97807F108031846C5
:10169000FFF738FF06E0BA78F97807F10803184633
:1016A000FFF730FF00BF2037BD4680BDCDCCCCCC8E
:1016B00080B582B000AF78600B467B801120FEF7CA
:1016C0007FFD7B689A687B881340002B1AD100BF8E
:1016D0007B689A687B881340002BF9D00820FEF7BE
:1016E000A3FD0A4B0A4A5A60084B0022DA605020D8
:1016F000FEF79AFD054B4FF044325A605020FEF73A
:1017000093FD00E000BF0837BD4680BD00100140DA
:101710004444443480B586B000AFF8600B467A602C
:101720007B8100237B6121E0174B184A5A60164BDE
:101730000022DA603220FEF777FD134B4FF044327F
:101740005A607B69DBB219467868FEF735FE38616E
:101750003B69012B03D14620FEF766FD03E01B2009
:10176000FEF762FD00BF7B6901337B617B685B78BC
:101770001A467B681B7803FB02F27B699A42D3DC32
:1017800000BF1837BD4680BD0010014044444434BA
:1017900080B582B000AF78600B467B80064B074A6D
:1017A0005A60054B4FF40042DA600120FEF756FD07
:1017B00000BF0837BD4680BD00100140444444844A
:1017C000844641EA000313F0030349D1403A23D38E
:1017D0000B6803604B6843608B688360CB68C360B1
:1017E0000B6903614B6943618B698361CB69C36199
:1017F0000B6A03624B6A43628B6A8362CB6AC36281
:101800000B6B03634B6B43638B6B8363CB6BC36368
:1018100040304031403ADBD230320BD30B680360AA
:101820004B6843608B688360CB68C36010301031B5
:10183000103AF3D20C3205D351F8043B40F8043B84
:10184000043AF9D2043208D0D2071CBF11F8013B88
:1018500000F8013B01D30B8803806046704700BF4E
:10186000082A13D38B07B1D010F00303AED0C3F115
:101870000403D21ADB071CBF11F8013B00F8013B3F
:10188000A4D331F8023B20F8023B9FE7043AD9D3B6
:10189000013A11F8013B00F8013BF9D20B780370D3
:1018A0004B7843708B78837060467047000000006F
:1018B00000000000005F00000000070007000014A7
:1018C0007F147F1400242A7F2A12002313086462E5
:1018D00000364955225000000503000000001C227C
:1018E0004100000041221C000014083E08140008BA
:1018F000083E0808000050300000000808080808EA
:10190000000060600000002010080402003E514901
:10191000453E0000427F400000426151494600219F
:1019200041454B31001814127F10002745454539B9
:10193000003C4A4949300001710905030036494914
:10194000493600064949291E0000363600000000CD
:101950005636000000081422410000141414141418
:1019600000004122140800020151090600324979A1
:10197000413E007E1111117E007F49494936003EEB
:1019800041414122007F4141221C007F4949494198
:10199000007F09090901003E4149497A007F080892
:1019A000087F0000417F4100002040413F01007F4F
:1019B00008142241007F40404040007F020C027F1B
:1019C000007F0408107F003E4141413E007F09092D
:1019D0000906003E4151215E007F09192946004653
:1019E000494949310001017F0101003F4040403F2A
:1019F000001F2040201F003F4038403F0063140874
:101A0000146300070870080700615149454300004E
:101A10007F414100000204081020000041417F0086
:101A20000004020102040040404040400000010266
:101A30000400002054545478007F4844443800384F
:101A40004444442000384444487F003854545418D7
:101A500000087E090102000C5252523E007F080429
:101A600004780000447D4000002040443D00007F99
:101A7000102844000000417F4000007C04180478D6
:101A8000007C08040478003844444438007C141472
:101A9000140800081414187C007C0804040800488A
:101AA0005454542000043F444020003C4040207CDB
:101AB000001C2040201C003C4030403C00442810CA
:101AC0002844000C5050503C004464544C440000E6
:101AD000083641000000007F000000004136080089
:101AE000001008081008007846414678546F6F6C63
:101AF0005F426F785F53544D33320000487A0000E4
:101B00000000000000000000005F0000000007006F
:101B1000070000147F147F1400242A7F2A12002358
:101B20001308646200364955225000000503000086
:101B300000001C224100000041221C000014083E4D
:101B400008140008083E0808000050300000000893
:101B50000808080800006060000000201008040267
:101B6000003E5149453E0000427F40000042615125
:101B70004946002141454B31001814127F100027BF
:101B800045454539003C4A49493000017109050382
:101B900000364949493600064949291E00003636B3
:101BA0000000000056360000000814224100001416
:101BB00014141414000041221408000201510906F3
:101BC00000324979413E007E1111117E007F494962
:101BD0004936003E41414122007F4141221C007FA5
:101BE00049494941007F09090901003E4149497AB3
:101BF000007F0808087F0000417F4100002040412D
:101C00003F01007F08142241007F40404040007F98
:101C1000020C027F007F0408107F003E4141413EDC
:101C2000007F09090906003E4151215E007F091924
:101C300029460046494949310001017F0101003F21
:101C40004040403F001F2040201F003F4038403FA1
:101C50000063140814630007087008070061514905
:101C6000454300007F4141000002040810200000AD
:101C700041417F0000040201020400404040404016
:101C8000000001020400002054545478007F4844AE
:101C9000443800384444442000384444487F0038E5
:101CA0005454541800087E090102000C5252523E4E
:101CB000007F080404780000447D40000020404478
:101CC0003D00007F102844000000417F4000007C60
:101CD00004180478007C080404780038444444382C
:101CE000007C1414140800081414187C007C0804E8
:101CF000040800485454542000043F444020003C51
:101D00004040207C001C2040201C003C4030403CD7
:101D1000004428102844000C5050503C00446454A7
:101D20004C440000083641000000007F0000000025
:101D3000413608000010080810080078464146782F
:101D40000000000001020304010203040607080961
:041D5000020406087B
:0400000508000000EF
:00000001FF
