:020000040800F2
:10000000B0070020FD0800085D0900085D09000830
:100010005D0900085D0900085D0900080000000096
:100020000000000000000000000000005D09000862
:100030005D090008000000005D090008F1170008D4
:100040005D0900085D0900085D0900085D090008F8
:100050005D0900085D0900085D0900085D090008E8
:100060005D0900085D0900085D0900085D090008D8
:100070005D0900085D0900085D0900085D090008C8
:100080005D0900085D0900085D0900085D090008B8
:100090005D0900085D0900085D0900085D090008A8
:1000A0005D0900085D0900085D0900085D09000898
:1000B0005D0900085D0900085D0900085D09000888
:1000C0005D0900085D0900085D0900085D09000878
:1000D0005D0900085D0900085D0900085D09000868
:1000E0005D0900085D0900085D09000800000000C6
:1000F0000000000000000000000000000000000000
:1001000000000000000000005FF808F180B483B038
:1001100000AF78600B467B80054A7B681360044A19
:100120007B88938000BF0C37BD4680BC704700BF02
:100130001400002080B483B000AF78600B467B8051
:10014000054A7B689360044A7B88938100BF0C3723
:10015000BD4680BC704700BF1400002080B483B04F
:1001600000AF78600B467B80054A7B681361044AC8
:100170007B88938200BF0C37BD4680BC704700BFB0
:100180001400002080B483B000AF78600B467B8001
:10019000054A7B689361044A7B88938300BF0C37D0
:1001A000BD4680BC704700BF1400002080B483B0FF
:1001B00000AF78600B467B80054A7B681362044A77
:1001C0007B88938400BF0C37BD4680BC704700BF5E
:1001D0001400002080B584B000AF0346FB710023FB
:1001E000FB7326E0164B9869154B998BFA79FB7BCC
:1001F000C3F1070342FA03F303F00103002B14BF1A
:1002000001230023DBB21A4600F05AFD0C4B186A9A
:100210000B4B9B8C0122194600F052FD084B186ACB
:10022000074B9B8C0022194600F04AFDFB7B0133F3
:10023000FB73FB7B072BD5D900BF1037BD4680BDB4
:100240001400002080B582B000AF03460A46FB715F
:100250001346BB71BB79002B1CD11E4B18691D4B7B
:100260009B8A0022194600F02BFD1A4B9868194B07
:100270009B890022194600F023FDFB791846FFF701
:10028000A9FF144B9868134B9B890122194600F073
:1002900017FD1BE00F4B18690E4B9B8A0122194674
:1002A00000F00EFD0B4B98680A4B9B890022194603
:1002B00000F006FDFB791846FFF78CFF054B9868A8
:1002C000044B9B890122194600F0FAFC00BF083755
:1002D000BD4680BD1400002080B500AF174B1868E4
:1002E000164B9B880022194600F0EAFC134B186855
:1002F000124B9B880122194600F0E2FC00212120CC
:10030000FFF7A0FF0021B820FFF79CFF0021042089
:10031000FFF798FF00211420FFF794FF0021202011
:10032000FFF790FF00210C20FFF78CFF00F06AF828
:10033000034B002283F8F82100BF80BD1400002089
:100340003C00002080B584B000AF0346FB71002361
:10035000FB602DE01A4B93F8F83183F00103DBB218
:10036000002B10D0FB79A3F12002164913465B0045
:1003700013445B00CA18FB6813441B78012118461C
:10038000FFF760FF11E0FB79A3F120020D4913464E
:100390005B0013445B00CA18FB6813441B78DB4303
:1003A000DBB201211846FFF74DFFFB680133FB600C
:1003B000FB68052BCEDD00BF1037BD4680BD00BFFA
:1003C0003C0000204018000880B582B000AF786083
:1003D0000B46FB701346BB70BA78FB781146184683
:1003E00000F02CF806E07B685A1C7A601B781846EF
:1003F000FFF7A8FF7B681B78002BF4D100BF0837FC
:10040000BD4680BD80B582B000AF00237B600BE0AD
:1004100001210020FFF716FF074A7B6813440022E2
:100420001A707B6801337B607B68B3F5FC7FEFDB80
:1004300000BF0837BD4680BD3C00002080B582B0BB
:1004400000AF03460A46FB711346BB71FB7963F0AC
:100450007F03DBB200211846FFF7F4FEBB7943F0BF
:100460004003DBB200211846FFF7ECFE00BF08375F
:10047000BD4680BD80B485B000AF78600023FB73BB
:100480007B68002B0AD101230CE07B68084AA2FBA1
:100490000323DB087B60FB7B0133FB737B68002B52
:1004A000F3D1FB7B18461437BD4680BC704700BFB4
:1004B000CDCCCCCC80B588B000AF78600B46FB705B
:1004C0001346BB700123BB610023FB777868FFF7FD
:1004D000D1FF0346013BBB77BB7F013307F120020D
:1004E0001344002203F8182C1FE07A68204BA3FB6A
:1004F0000213D9080B469B000B445B00D31ABB6167
:10050000BB7F5A1EBA771946BB69DBB23033DAB209
:1005100007F120030B4403F8182C7B68144AA2FB54
:100520000323DB087B600123FB777B68002BDCD196
:100530007B68002B11D1FB7F002B0ED1BB7F07F115
:1005400020021344302203F8182CBA78F97807F106
:1005500008031846FFF738FF06E0BA78F97807F184
:1005600008031846FFF730FF00BF2037BD4680BDA7
:10057000CDCCCCCC80B500AF154A154B1B6843F0F1
:10058000010313601249124B5A68124B13404B601F
:100590000F4A0F4B1B6823F0847323F480331360DE
:1005A0000B4A0B4B1B6823F480231360084A084B4B
:1005B0005B6823F4FE035360054B4FF41F029A60FF
:1005C00000F00CF8044B4FF000629A6000BF80BD51
:1005D000001002400000FFF800ED00E080B500AF21
:1005E00000F002F800BF80BD80B483B000AF0023EC
:1005F0007B6000233B603A4A394B1B6843F48033ED
:100600001360374B1B6803F400333B607B68013396
:100610007B603B68002B03D17B68B3F5A06FF0D102
:100620002F4B1B6803F40033002B02D001233B60E7
:1006300001E000233B603B68012B4BD1294A294B49
:100640001B6843F010031360264A264B1B6823F0F7
:1006500003031360234A234B1B6843F00203136018
:100660001F4A1F4B5B6853601D4A1D4B5B685360FC
:100670001B4A1B4B5B6843F480635360184A184B5A
:100680005B6823F47C135360154A154B5B6843F495
:10069000E8135360124A124B1B6843F080731360D7
:1006A00000BF0F4B1B6803F00073002BF9D00C4AFE
:1006B0000B4B5B6823F003035360094A084B5B68EC
:1006C00043F00203536000BF054B5B6803F00C036B
:1006D000082BF9D100BF0C37BD4680BC704700BF66
:1006E000001002400020024080B582B000AF104BE5
:1006F000104A5A600E4B4FF4C0429A60192001F024
:1007000085F80B4B4FF044325A60094B4FF460426E
:100710009A6000237B6003E000BF7B6801337B604D
:100720007B68452BF8DD00BF0837BD4680BD00BFA4
:10073000001001404444448480B582B000AF0023DF
:100740003B6003E000BF3B6801333B603B68B3F5AF
:10075000667FF7DB00BF274B9B6803F40043002B49
:10076000F9D100237B6034E000BF224B9B6803F487
:100770000043002BF9D000233B6003E000BF3B683F
:1007800001333B601B4B9B6803F40043002B02D0FA
:100790003B68452BF2DD4FF40041164800F00AFAA1
:1007A0000346002B0CD0144A7B68012142F8231029
:1007B00000BF104B9B6803F40043002BF9D105E008
:1007C0000D4A7B68002142F8231000BF7B6801338B
:1007D0007B607B68272BC7DD00233B6003E000BF05
:1007E0003B6801333B603B68F92BF8DD00BF0837FD
:1007F000BD4680BD001001403802002080B483B0A7
:1008000000AF3C4B0022C3F8A42007237B6012E01A
:10081000384BD3F8A42038497B6851F823107B6803
:10082000C3F1070301FA03F31343324AC2F8A430B9
:100830007B68013B7B607B68002BE9DA2D4B002253
:10084000C3F8A0200F237B6012E02A4BD3F8A0202E
:1008500029497B6851F823107B68C3F10F0301FA23
:1008600003F31343234AC2F8A0307B68013B7B604B
:100870007B68072BE9DC1F4B0022C3F8AC20172351
:100880007B6012E01B4BD3F8AC201B497B6851F80E
:1008900023107B68C3F1170301FA03F31343154ACE
:1008A000C2F8AC307B68013B7B607B680F2BE9DCD6
:1008B000104B0022C3F8A8201F237B6012E00D4BD1
:1008C000D3F8A8200C497B6851F823107B68C3F14A
:1008D0001F0301FA03F31343064AC2F8A8307B68EA
:1008E000013B7B607B68172BE9DC00BF0C37BD4602
:1008F00080BC7047D80200203802002080B582B04A
:1009000000AF114B7B60114B3B6007E03B681A1D49
:100910003A607A68111D796012681A603B680C4A67
:100920009342F3D30B480C494FF000028842B8BF02
:1009300040F8042BFADBFFF71DFE00F09DFA00BF24
:100940000837BD4680BD00BF0A2200080000002015
:100950001400002014000020AC03002080B400AF7D
:10096000FEE700BF80B588B000AF78603960002333
:10097000FB6100233B610023BB610023FB6000237C
:100980007B610023BB607B68824A93421BD07B68FB
:10099000814A934217D07B68804A934213D07B6888
:1009A0007F4A93420FD07B687E4A93420BD07B688C
:1009B0007D4A934207D07B687C4A934203D0B221A0
:1009C0007B4800F071FB3B68DB78002B1FD03B6855
:1009D000DB78042B1BD03B68DB78282B17D03B68D7
:1009E000DB78482B13D03B68DB78142B0FD03B68A7
:1009F000DB78102B0BD03B68DB781C2B07D03B68D7
:100A0000DB78182B03D0B321694800F04DFB3B681D
:100A10001B88002B03D1B421654800F045FB3B68DF
:100A2000DB7803F00F03FB613B68DB7803F0100316
:100A3000002B15D03B689B78012B0BD03B689B7833
:100A4000022B07D03B689B78032B03D0BB2158486F
:100A500000F02AFB3B689B781A46FB691343FB6155
:100A60003B681B88DBB2002B44D07B681B687B6132
:100A70000023BB6138E00122BB6902FA03F3FB608B
:100A80003B681B881A46FB6813403B613A69FB6868
:100A90009A4226D1BB699B00FB600F22FB6802FAD9
:100AA00003F3BB60BB68DB437A6913407B61FA697F
:100AB000FB6802FA03F37A6913437B613B68DB78D6
:100AC000282B05D10122BB699A407B685A6108E056
:100AD0003B68DB78482B04D10122BB699A407B68D4
:100AE0001A61BB690133BB61BB69072BC3D97B6842
:100AF0007A691A603B681B88FF2B46D97B685B6864
:100B00007B610023BB613AE0BB690833012202FA32
:100B100003F3FB603B681B881A46FB6813403B618C
:100B20003A69FB689A4227D1BB699B00FB600F22A0
:100B3000FB6802FA03F3BB60BB68DB437A691340CE
:100B40007B61FA69FB6802FA03F37A6913437B61FC
:100B50003B68DB78282B05D1BB69083301229A401A
:100B60007B685A613B68DB78482B05D1BB69083349
:100B700001229A407B681A61BB690133BB61BB6982
:100B8000072BC1D97B687A695A6000BF2037BD4600
:100B900080BD00BF00080140000C01400010014072
:100BA0000014014000180140001C014000200140D9
:100BB000C01C000880B584B000AF78600B467B8015
:100BC0000023FB737B68364A93421CD07B68354A0E
:100BD000934218D07B68344A934214D07B68334ADE
:100BE000934210D07B68324A93420CD07B68314AE2
:100BF000934208D07B68304A934204D04FF48F71FF
:100C00002E4800F051FA7B88012B39D07B88022BCB
:100C100036D07B88042B33D07B88082B30D07B8860
:100C2000102B2DD07B88202B2AD07B88402B27D0DF
:100C30007B88802B24D07B88B3F5807F20D07B8875
:100C4000B3F5007F1CD07B88B3F5806F18D07B880C
:100C5000B3F5006F14D07B88B3F5805F10D07B882C
:100C6000B3F5005F0CD07B88B3F5804F08D07B884C
:100C7000B3F5004F04D040F21F11104800F014FAF1
:100C80007B689A687B881340002B02D00123FB739A
:100C900001E00023FB73FB7B18461037BD4680BD87
:100CA00000080140000C0140001001400014014008
:100CB00000180140001C014000200140C01C000839
:100CC00080B582B000AF78600B467B8013467B70A6
:100CD0007B683B4A93421CD07B683A4A934218D0C7
:100CE0007B68394A934214D07B68384A934210D0CB
:100CF0007B68374A93420CD07B68364A934208D0CF
:100D00007B68354A934204D040F28D11334800F09D
:100D1000CBF97B88012B39D07B88022B36D07B889E
:100D2000042B33D07B88082B30D07B88102B2DD020
:100D30007B88202B2AD07B88402B27D07B88802B58
:100D400024D07B88B3F5807F20D07B88B3F5007FEB
:100D50001CD07B88B3F5806F18D07B88B3F5006F0B
:100D600014D07B88B3F5805F10D07B88B3F5005F2B
:100D70000CD07B88B3F5804F08D07B88B3F5004F4B
:100D800004D04FF4C771154800F08EF97B78002B22
:100D900007D07B78012B04D040F28F110F4800F070
:100DA00083F97B78002B03D07A887B681A6102E094
:100DB0007A887B685A6100BF0837BD4680BD00BF96
:100DC00000080140000C01400010014000140140E7
:100DD00000180140001C014000200140C01C000818
:100DE00080B483B000AF03463960FB7197F90730D8
:100DF000002B0BDA0D49FB7903F00F03043B3A6833
:100E0000D2B21201D2B20B441A7609E0084997F91E
:100E100007303A68D2B21201D2B20B4483F80023F1
:100E200000BF0C37BD4680BC704700BF00ED00E03E
:100E300000E100E080B582B000AF78607B68B3F17C
:100E4000807F01D3012311E00A4A7B6823F07F43AE
:100E5000013B53600F214FF0FF30FFF7C1FF054BFF
:100E600000229A60034B07221A60002318460837B5
:100E7000BD4680BD10E000E080B500AF00F0B2F8E4
:100E800000F06AF8FFF728FA002200212848FFF74F
:100E90009BFA284B5B68012200211846FFF70AFBEA
:100EA000012232212448FFF78FFA41F2883000F006
:100EB000ADFCFFF7A7FA002200212048FFF784FAD3
:100EC000FFF7A0FAFFF710FCFFF736FCFFF796FCE0
:100ED000FFF798FA002200211948FFF775FA02225D
:100EE00000211848FFF770FA174BD3F8A4300222FC
:100EF00014211846FFF7DEFA022223211348FFF7D8
:100F000063FA032200211248FFF75EFA0E4BD3F872
:100F1000AC30032214211846FFF7CCFA0322232118
:100F20000C48FFF751FA4FF4FA7000F06FFCC9E774
:100F3000441F000894030020541F0008581F000895
:100F4000601F0008701F0008D8020020781F0008EA
:100F50007C1F0008841F000880B584B000AF4FF6E6
:100F6000FF73BB811023FB730123BB7307F10C03D9
:100F700019461948FFF7F6FC01211748FFF7C6F894
:100F800002211548FFF7D6F804211348FFF7E6F8C9
:100F900008211148FFF7F6F810210F48FFF706F96E
:100FA0000423FB724FF400433B810323BB7207F120
:100FB000080319460948FFF7D5FC1023FB712023CD
:100FC000BB800323BB713B1D19460548FFF7CAFCD4
:100FD00000BF1037BD4680BD000801400010014031
:100FE000000C014080B500AF00F06EF84FF4803087
:100FF00000F098F800F0D4F803461A46274B1A7010
:10100000264B1B78012B2AD1002000F0B5F94FF4B4
:10101000806000F0EDF94FF4E06000F01DFA4FF44D
:10102000004000F04FFA4FF4E0114FF4803000F030
:10103000DFF8012000F04CF900BF392000F078FB08
:101040000346002BF9D0022000F05EF900BF00F04B
:1010500085F90346082BFAD1012000F04DFB10481A
:1010600000F060FA0E4B5B680E4AA2FB03239B095B
:101070001846FFF7DFFE0121042000F003FB0121E9
:10108000082000F0FFFA0121102000F0FBFA0121F6
:10109000202000F0F7FA00BF80BD00BF91030020C0
:1010A00094030020D34D621080B582B000AF786009
:1010B0003960002200217868FFF786F900220021BC
:1010C0003868FFF7F7F9FEE780B400AF134A134B17
:1010D0001B6843F0010313601049104B5A68104B12
:1010E00013404B600D4A0D4B1B6823F0847323F4AF
:1010F00080331360094A094B1B6823F48023136073
:10110000064A064B5B6823F4FE035360034B4FF41F
:101110001F029A6000BFBD4680BC704700100240AD
:101120000000FFF880B582B000AF78607B68002BCC
:101130000CD07B68B3F5803F08D07B68B3F5802F77
:1011400004D040F211111448FFF7AEFF134A134BBD
:101150001B6823F480331360104A104B1B6823F480
:10116000802313607B68B3F5803F03D0B3F5802FF5
:1011700007D00DE0094A094B1B6843F48033136024
:1011800006E0064A054B1B6843F4A023136000BF2A
:1011900000BF0837BD4680BDC821000800100240CE
:1011A00080B582B000AF00233B600023FB710023B9
:1011B000BB71312000F0BCFA0346BB713B680133C0
:1011C0003B603B68B3F5A06F02D0BB79002BF0D039
:1011D000312000F0ADFA0346002B02D00123FB7151
:1011E00001E00023FB71FB7918460837BD4680BD3E
:1011F00080B584B000AF786039600023FB607B6805
:10120000002B0CD07B68B3F5803F08D07B68B3F52A
:10121000403F04D040F27F112B48FFF745FF3B6869
:10122000002B3CD03B68B3F5802F38D03B68B3F53A
:10123000002F34D03B68B3F5402F30D03B68B3F576
:10124000801F2CD03B68B3F5A01F28D03B68B3F5B6
:10125000C01F24D03B68B3F5E01F20D03B68B3F536
:10126000001F1CD03B68B3F5101F18D03B68B3F5C6
:10127000201F14D03B68B3F5301F10D03B68B3F586
:10128000401F0CD03B68B3F5501F08D03B68B3F546
:10129000601F04D04FF4C0710B48FFF705FF0B4BE4
:1012A0005B68FB60FB6823F47C13FB607A683B6837
:1012B0001343FA681343FB60044AFB68536000BFA2
:1012C0001037BD4680BD00BFC82100080010024095
:1012D00080B582B000AF0346FB71FB79002B07D0CD
:1012E000FB79012B04D04FF4CA710548FFF7DCFEEF
:1012F000044AFB79136000BF0837BD4680BD00BFBC
:10130000C82100086000424280B584B000AF786018
:101310000023FB607B68002B0AD07B68012B07D081
:101320007B68022B04D04FF40E710A48FFF7BCFE15
:10133000094B5B68FB60FB6823F00303FB60FA6802
:101340007B681343FB60044AFB68536000BF10379F
:10135000BD4680BDC82100080010024080B400AF27
:10136000044B5B68DBB203F00C03DBB21846BD46EE
:1013700080BC70470010024080B584B000AF786038
:101380000023FB607B68002B1CD07B68802B19D06E
:101390007B68902B16D07B68A02B13D07B68B02B7A
:1013A00010D07B68C02B0DD07B68D02B0AD07B6817
:1013B000E02B07D07B68F02B04D04FF419710A485A
:1013C000FFF772FE094B5B68FB60FB6823F0F003DC
:1013D000FB60FA687B681343FB60044AFB68536058
:1013E00000BF1037BD4680BDC82100080010024074
:1013F00080B584B000AF78600023FB607B68002B71
:1014000014D07B68B3F5806F10D07B68B3F5A06F04
:101410000CD07B68B3F5C06F08D07B68B3F5E06F84
:1014200004D040F27E210A48FFF73EFE094B5B687C
:10143000FB60FB6823F4E063FB60FA687B6813439E
:10144000FB60044AFB68536000BF1037BD4680BD97
:10145000C82100080010024080B584B000AF786059
:101460000023FB607B68002B14D07B68B3F5806F92
:1014700010D07B68B3F5A06F0CD07B68B3F5C06F5C
:1014800008D07B68B3F5E06F04D04FF426710B48A9
:10149000FFF70AFE0A4B5B68FB60FB6823F46053AE
:1014A000FB607B68DB00FA681343FB60044AFB685F
:1014B000536000BF1037BD4680BD00BFC821000883
:1014C0000010024080B584B000AF78600023FB605C
:1014D0007B68002B10D07B68B3F5804F0CD07B6805
:1014E000B3F5004F08D07B68B3F5404F04D040F20D
:1014F00002310A48FFF7D8FD094B5B68FB60FB68C7
:1015000023F44043FB60FA687B681343FB60044AA2
:10151000FB68536000BF1037BD4680BDC82100087E
:101520000010024080B487B000AF786000237B6178
:1015300000233B610023FB600023BB604C4B5B68D6
:1015400003F00C037B617B69042B07D0082B09D0C7
:10155000002B33D17B68474A1A6033E07B68454AE9
:101560001A602FE0424B5B6803F470133B61404B01
:101570005B6803F48033FB603B699B0C02333B6187
:10158000FB68002B06D13B693B4A02FB03F27B68F8
:101590001A6017E0364B5B6803F40033002B06D06B
:1015A0003B69354A02FB03F27B681A600AE03B693B
:1015B000304A02FB03F27B681A6003E07B682D4A25
:1015C0001A6000BF2A4B5B6803F0F0037B617B6904
:1015D0001B097B61294A7B6913441B78DBB2BB6022
:1015E0007B681A68BB68DA407B685A60204B5B688E
:1015F00003F4E0637B617B691B0A7B611F4A7B69A3
:1016000013441B78DBB2BB607B685A68BB68DA4066
:101610007B689A60164B5B6803F460537B617B695F
:10162000DB0A7B61154A7B6913441B78DBB2BB6024
:101630007B685A68BB68DA407B68DA600C4B5B6891
:1016400003F440437B617B699B0B7B610C4A7B69A4
:1016500013441B78DBB2BB607B68DA68BB68B2FB03
:10166000F3F27B681A6100BF1C37BD4680BC70472F
:101670000010024000127A0000093D000000002026
:101680001000002080B582B000AF78600B46FB7080
:101690007A68164B1340002B02D17B68002B04D1D3
:1016A00040F24A411248FFF7FFFCFB78002B07D0BD
:1016B000FB78012B04D040F24B410D48FFF7F4FCBE
:1016C000FB78002B06D00B490A4B9A697B681343C1
:1016D0008B6106E00749074B9A697B68DB4313403F
:1016E0008B6100BF0837BD4680BD00BF0200C0FF50
:1016F000C82100080010024080B582B000AF034648
:10170000FB71FB79002B07D0FB79012B04D040F251
:10171000E5410548FFF7C8FC044AFB79136000BFA8
:101720000837BD4680BD00BFC82100084C004242BA
:1017300080B586B000AF0346FB710023FB60002339
:101740007B610023FB74FB79212B22D0FB79312BA9
:101750001FD0FB79392B1CD0FB79412B19D0FB7999
:10176000612B16D0FB797A2B13D0FB797B2B10D011
:10177000FB797C2B0DD0FB797D2B0AD0FB797E2B5E
:1017800007D0FB797F2B04D040F234511648FFF785
:101790008BFCFB795B09DBB2FB60FB68012B03D19F
:1017A000124B1B687B6109E0FB68022B03D10F4BD6
:1017B0001B6A7B6102E00D4B5B6A7B61FB7903F086
:1017C0001F03FB607A69FB6822FA03F303F001034D
:1017D000002B02D00123FB7401E00023FB74FB7C8F
:1017E00018461837BD4680BDC821000800100240C9
:1017F00080B400AF044B1B680133034A136000BF81
:10180000BD4680BC704700BF8C03002080B483B00D
:1018100000AF7860084B00229A60084B00221A60E3
:1018200000BF064B1A687B689A42FAD300BF0C3798
:10183000BD4680BC704700BF10E000E08C03002074
:101840000000000000000000005F00000000070032
:10185000070000147F147F1400242A7F2A1200231B
:101860001308646200364955225000000503000049
:1018700000001C224100000041221C000014083E10
:1018800008140008083E0808000050300000000856
:10189000080808080000606000000020100804022A
:1018A000003E5149453E0000427F400000426151E8
:1018B0004946002141454B31001814127F10002782
:1018C00045454539003C4A49493000017109050345
:1018D00000364949493600064949291E0000363676
:1018E00000000000563600000008142241000014D9
:1018F00014141414000041221408000201510906B6
:1019000000324979413E007E1111117E007F494924
:101910004936003E41414122007F4141221C007F67
:1019200049494941007F09090901003E4149497A75
:10193000007F0808087F0000417F410000204041EF
:101940003F01007F08142241007F40404040007F5B
:10195000020C027F007F0408107F003E4141413E9F
:10196000007F09090906003E4151215E007F0919E7
:1019700029460046494949310001017F0101003FE4
:101980004040403F001F2040201F003F4038403F64
:1019900000631408146300070870080700615149C8
:1019A000454300007F414100000204081020000070
:1019B00041417F00000402010204004040404040D9
:1019C000000001020400002054545478007F484471
:1019D000443800384444442000384444487F0038A8
:1019E0005454541800087E090102000C5252523E11
:1019F000007F080404780000447D4000002040443B
:101A00003D00007F102844000000417F4000007C22
:101A100004180478007C08040478003844444438EE
:101A2000007C1414140800081414187C007C0804AA
:101A3000040800485454542000043F444020003C13
:101A40004040207C001C2040201C003C4030403C9A
:101A5000004428102844000C5050503C004464546A
:101A60004C440000083641000000007F00000000E8
:101A700041360800001008081008007846414678F2
:101A80000000000000000000005F000000000700F0
:101A9000070000147F147F1400242A7F2A120023D9
:101AA0001308646200364955225000000503000007
:101AB00000001C224100000041221C000014083ECE
:101AC00008140008083E0808000050300000000814
:101AD00008080808000060600000002010080402E8
:101AE000003E5149453E0000427F400000426151A6
:101AF0004946002141454B31001814127F10002740
:101B000045454539003C4A49493000017109050302
:101B100000364949493600064949291E0000363633
:101B20000000000056360000000814224100001496
:101B30001414141400004122140800020151090673
:101B400000324979413E007E1111117E007F4949E2
:101B50004936003E41414122007F4141221C007F25
:101B600049494941007F09090901003E4149497A33
:101B7000007F0808087F0000417F410000204041AD
:101B80003F01007F08142241007F40404040007F19
:101B9000020C027F007F0408107F003E4141413E5D
:101BA000007F09090906003E4151215E007F0919A5
:101BB00029460046494949310001017F0101003FA2
:101BC0004040403F001F2040201F003F4038403F22
:101BD0000063140814630007087008070061514986
:101BE000454300007F41410000020408102000002E
:101BF00041417F0000040201020400404040404097
:101C0000000001020400002054545478007F48442E
:101C1000443800384444442000384444487F003865
:101C20005454541800087E090102000C5252523ECE
:101C3000007F080404780000447D400000204044F8
:101C40003D00007F102844000000417F4000007CE0
:101C500004180478007C08040478003844444438AC
:101C6000007C1414140800081414187C007C080468
:101C7000040800485454542000043F444020003CD1
:101C80004040207C001C2040201C003C4030403C58
:101C9000004428102844000C5050503C0044645428
:101CA0004C440000083641000000007F00000000A6
:101CB00041360800001008081008007846414678B0
:101CC0005A3A5C686F6D655C7374616D5C776F72B6
:101CD0006B73706163655C746F6F6C5F626F785F6C
:101CE00073746D33325C73746D5F6C69625C7372B4
:101CF000635C73746D3332663130785F6770696F1F
:101D00002E6300000000000000000000005F0000E3
:101D100000000700070000147F147F1400242A7FAE
:101D20002A1200231308646200364955225000002D
:101D30000503000000001C224100000041221C009D
:101D40000014083E08140008083E0808000050303F
:101D5000000000080808080800006060000000207B
:101D600010080402003E5149453E0000427F4000F9
:101D7000004261514946002141454B31001814127F
:101D80007F10002745454539003C4A49493000014C
:101D90007109050300364949493600064949291E9B
:101DA00000003636000000005636000000081422FD
:101DB00041000014141414140000412214080002FD
:101DC0000151090600324979413E007E1111117E10
:101DD000007F49494936003E41414122007F41414F
:101DE000221C007F49494941007F09090901003E41
:101DF0004149497A007F0808087F0000417F41007F
:101E0000002040413F01007F08142241007F4040F4
:101E10004040007F020C027F007F0408107F003EDC
:101E20004141413E007F09090906003E4151215EC2
:101E3000007F091929460046494949310001017FBF
:101E40000101003F4040403F001F2040201F003F55
:101E50004038403F00631408146300070870080707
:101E600000615149454300007F41410000020408E0
:101E70001020000041417F000004020102040040E4
:101E800040404040000001020400002054545478B7
:101E9000007F4844443800384444442000384444D7
:101EA000487F00385454541800087E090102000C81
:101EB0005252523E007F080404780000447D4000E6
:101EC000002040443D00007F102844000000417F76
:101ED0004000007C04180478007C08040478003872
:101EE00044444438007C1414140800081414187C6A
:101EF000007C0804040800485454542000043F4463
:101F00004020003C4040207C001C2040201C003C25
:101F10004030403C004428102844000C5050503CB5
:101F2000004464544C440000083641000000007F27
:101F30000000000041360800001008081008007872
:101F400046414678546F6F6C5F426F785F53544DD3
:101F500033320000487A000053746172740000004C
:101F600044485431312073656E736F720000000075
:101F700048203D20000000002500000054203D20A6
:101F8000000000004300000000000000000000000E
:101F9000005F000000000700070000147F147F149A
:101FA00000242A7F2A120023130864620036495550
:101FB000225000000503000000001C224100000028
:101FC00041221C000014083E08140008083E0808BE
:101FD0000000503000000008080808080000606099
:101FE0000000002010080402003E5149453E000058
:101FF000427F4000004261514946002141454B313A
:10200000001814127F10002745454539003C4A4905
:102010004930000171090503003649494936000677
:102020004949291E000036360000000056360000DF
:10203000000814224100001414141414000041225A
:10204000140800020151090600324979413E007E20
:102050001111117E007F49494936003E414141221C
:10206000007F4141221C007F49494941007F090905
:102070000901003E4149497A007F0808087F0000B5
:10208000417F4100002040413F01007F0814224170
:10209000007F40404040007F020C027F007F040828
:1020A000107F003E4141413E007F09090906003E84
:1020B0004151215E007F09192946004649494931AD
:1020C0000001017F0101003F4040403F001F2040D0
:1020D000201F003F4038403F00631408146300078E
:1020E0000870080700615149454300007F414100E5
:1020F000000204081020000041417F00000402019A
:102100000204004040404040000001020400002062
:1021100054545478007F48444438003844444420A0
:1021200000384444487F00385454541800087E094D
:102130000102000C5252523E007F08040478000055
:10214000447D4000002040443D00007F10284400B2
:102150000000417F4000007C04180478007C0804E3
:102160000478003844444438007C141414080008EF
:102170001414187C007C08040408004854545420AB
:1021800000043F444020003C4040207C001C204094
:10219000201C003C4030403C004428102844000CE7
:1021A0005050503C004464544C44000008364100F8
:1021B0000000007F00000000413608000010080801
:1021C00010080078464146785A3A5C686F6D655C45
:1021D0007374616D5C776F726B73706163655C744F
:1021E0006F6F6C5F626F785F73746D33325C7374A2
:1021F0006D5F6C69625C7372635C73746D333266BD
:0A2200003130785F7263632E6300D3
:10220A000000000001020304010203040607080992
:04221A0002040608AC
:0400000508000000EF
:00000001FF
